{
  "transactions": [
    {
      "hash": "0x8a27a7f369992339041360d05acedc35f1490167ec121e32ea992cd329e0c6f6",
      "transactionType": "CREATE",
      "contractName": "MockERC20",
      "contractAddress": "0xb755edd638c87a2aa9691bcb6e8fea14f07ee9bf",
      "function": null,
      "arguments": [
        "Test Token 0",
        "TEST0",
        "18"
      ],
      "transaction": {
        "from": "0x07425a37236a384917015f4f3e570250b9b23223",
        "gas": "0x1038dc",
        "value": "0x0",
        "input": "0x60e0806040523461041c57611197803803809161001c8285610420565b833981019060608183031261041c5780516001600160401b03811161041c5782610047918301610443565b60208201519092906001600160401b03811161041c5760409161006b918401610443565b91015160ff8116810361041c5782516001600160401b038111610342576100925f54610498565b601f81116103c2575b506020601f821160011461036157819293945f92610356575b50508160011b915f199060031b1c1916175f555b81516001600160401b038111610342576100e3600154610498565b601f81116102d4575b50602092601f821160011461027357928192935f92610268575b50508160011b915f199060031b1c1916176001555b6080524660a0526040515f905f54918161013484610498565b9182825260208201946001811690815f1461024c5750600114610202575b61015e92500382610420565b51902060405160208101917f8b73c3c69bb8fe3d512ecc4cf759cc79239f7b179b0ffacaa9a75d522b39400f835260408201527fc89efdaa54c0f20c7adf612882df0950f5a951637e0307cdcb4c672f298b8bc660608201524660808201523060a082015260a081526101d260c082610420565b51902060c052604051610ca690816104d1823960805181610739015260a05181610b04015260c05181610b2a0152f35b505f80805290915f5160206111775f395f51905f525b81831061023057505090602061015e92820101610152565b6020919350806001915483858801015201910190918392610218565b60ff191686525061015e92151560051b82016020019050610152565b015190505f80610106565b601f1982169360015f52805f20915f5b8681106102bc57508360019596106102a4575b505050811b0160015561011b565b01515f1960f88460031b161c191690555f8080610296565b91926020600181928685015181550194019201610283565b818111156100ec5760015f52601f820160051c7fb10e2d527612073b26eecdfd717e6a320cf44b4afac2b0732d9fcbe2b7fa0cf66020841061033a575b81601f9101920160051c03905f5b82811061032d5750506100ec565b5f8282015560010161031f565b5f9150610311565b634e487b7160e01b5f52604160045260245ffd5b015190505f806100b4565b601f198216905f8052805f20915f5b8181106103aa57509583600195969710610392575b505050811b015f556100c8565b01515f1960f88460031b161c191690555f8080610385565b9192602060018192868b015181550194019201610370565b8181111561009b575f8052601f820160051c5f5160206111775f395f51905f5260208410610414575b81601f9101920160051c03905f5b82811061040757505061009b565b5f828201556001016103f9565b5f91506103eb565b5f80fd5b601f909101601f19168101906001600160401b0382119082101761034257604052565b81601f8201121561041c578051906001600160401b0382116103425760405192610477601f8401601f191660200185610420565b8284526020838301011161041c57815f9260208093018386015e8301015290565b90600182811c921680156104c6575b60208310146104b257565b634e487b7160e01b5f52602260045260245ffd5b91607f16916104a756fe60806040526004361015610011575f80fd5b5f3560e01c806306fdde0314610905578063095ea7b31461088057806318160ddd1461086357806323b872dd1461075d578063313ce567146107205780633644e515146106fe57806340c10f191461064d57806370a08231146106085780637ecebe00146105c357806395d89b41146104cb5780639dc29fac1461044a578063a9059cbb146103b4578063d505accf146101255763dd62ed3e146100b3575f80fd5b34610121576040600319360112610121576100cc610aae565b73ffffffffffffffffffffffffffffffffffffffff6100e9610ad1565b91165f52600460205273ffffffffffffffffffffffffffffffffffffffff60405f2091165f52602052602060405f2054604051908152f35b5f80fd5b346101215760e06003193601126101215761013e610aae565b610146610ad1565b6044356064359260843560ff8116809103610121574285106103565760805f9160209373ffffffffffffffffffffffffffffffffffffffff610186610b01565b91169687855260058652604085209889549960018b0190556040519073ffffffffffffffffffffffffffffffffffffffff888301937f6e71edae12b1b97f4d1f60370fef10105fa2faae0126114a169c64845d6126c985528b6040850152169a8b6060840152898784015260a083015260c082015260c0815261020a60e0826109f8565b51902060405190868201927f1901000000000000000000000000000000000000000000000000000000000000845260228301526042820152604281526102516062826109f8565b519020906040519182528482015260a435604082015260c435606082015282805260015afa1561034b5773ffffffffffffffffffffffffffffffffffffffff5f511680151580610342575b156102e4577f8c5be1e5ebec7d5bd14f71427d1e84f3dd0314c0f7b2291e5b200ac8c7c3b925916020915f526004825260405f20855f5282528060405f2055604051908152a3005b60646040517f08c379a000000000000000000000000000000000000000000000000000000000815260206004820152600e60248201527f494e56414c49445f5349474e45520000000000000000000000000000000000006044820152fd5b5082811461029c565b6040513d5f823e3d90fd5b60646040517f08c379a000000000000000000000000000000000000000000000000000000000815260206004820152601760248201527f5045524d49545f444541444c494e455f455850495245440000000000000000006044820152fd5b34610121576040600319360112610121576103cd610aae565b73ffffffffffffffffffffffffffffffffffffffff60243591335f52600360205260405f206103fd848254610af4565b90551690815f52600360205260405f208181540190556040519081527fddf252ad1be2c89b69c2b068fc378daa952ba7f163c4a11628f55a4df523b3ef60203392a3602060405160018152f35b34610121576040600319360112610121575f610464610aae565b7fddf252ad1be2c89b69c2b068fc378daa952ba7f163c4a11628f55a4df523b3ef602073ffffffffffffffffffffffffffffffffffffffff60243593169283855260038252604085206104b8828254610af4565b90558060025403600255604051908152a3005b34610121575f600319360112610121576040515f6001546104eb816109a7565b80845290600181169081156105815750600114610523575b61051f83610513818503826109f8565b60405191829182610a66565b0390f35b60015f9081527fb10e2d527612073b26eecdfd717e6a320cf44b4afac2b0732d9fcbe2b7fa0cf6939250905b80821061056757509091508101602001610513610503565b91926001816020925483858801015201910190929161054f565b7fffffffffffffffffffffffffffffffffffffffffffffffffffffffffffffff001660208086019190915291151560051b840190910191506105139050610503565b346101215760206003193601126101215773ffffffffffffffffffffffffffffffffffffffff6105f1610aae565b165f526005602052602060405f2054604051908152f35b346101215760206003193601126101215773ffffffffffffffffffffffffffffffffffffffff610636610aae565b165f526003602052602060405f2054604051908152f35b3461012157604060031936011261012157610666610aae565b602435906002548281018091116106d157602073ffffffffffffffffffffffffffffffffffffffff5f937fddf252ad1be2c89b69c2b068fc378daa952ba7f163c4a11628f55a4df523b3ef9360025516938484526003825260408420818154019055604051908152a3005b7f4e487b71000000000000000000000000000000000000000000000000000000005f52601160045260245ffd5b34610121575f600319360112610121576020610718610b01565b604051908152f35b34610121575f60031936011261012157602060405160ff7f0000000000000000000000000000000000000000000000000000000000000000168152f35b3461012157606060031936011261012157610776610aae565b61077e610ad1565b7fddf252ad1be2c89b69c2b068fc378daa952ba7f163c4a11628f55a4df523b3ef602073ffffffffffffffffffffffffffffffffffffffff80604435951693845f526004835260405f208233165f52835260405f2054867fffffffffffffffffffffffffffffffffffffffffffffffffffffffffffffffff820361083c575b5050845f526003835260405f20610815878254610af4565b90551693845f526003825260405f20818154019055604051908152a3602060405160018152f35b61084591610af4565b855f526004845260405f208333165f52845260405f205586866107fd565b34610121575f600319360112610121576020600254604051908152f35b3461012157604060031936011261012157610899610aae565b73ffffffffffffffffffffffffffffffffffffffff60243591335f52600460205260405f208282165f526020528260405f205560405192835216907f8c5be1e5ebec7d5bd14f71427d1e84f3dd0314c0f7b2291e5b200ac8c7c3b92560203392a3602060405160018152f35b34610121575f600319360112610121576040515f5f54610924816109a7565b8084529060018116908115610581575060011461094b5761051f83610513818503826109f8565b5f8080527f290decd9548b62a8d60345a988386fc84ba6bc95484008f6362f93160ef3e563939250905b80821061098d57509091508101602001610513610503565b919260018160209254838588010152019101909291610975565b90600182811c921680156109ee575b60208310146109c157565b7f4e487b71000000000000000000000000000000000000000000000000000000005f52602260045260245ffd5b91607f16916109b6565b90601f7fffffffffffffffffffffffffffffffffffffffffffffffffffffffffffffffe0910116810190811067ffffffffffffffff821117610a3957604052565b7f4e487b71000000000000000000000000000000000000000000000000000000005f52604160045260245ffd5b7fffffffffffffffffffffffffffffffffffffffffffffffffffffffffffffffe0601f602060409481855280519182918282880152018686015e5f8582860101520116010190565b6004359073ffffffffffffffffffffffffffffffffffffffff8216820361012157565b6024359073ffffffffffffffffffffffffffffffffffffffff8216820361012157565b919082039182116106d157565b467f000000000000000000000000000000000000000000000000000000000000000003610b4c577f000000000000000000000000000000000000000000000000000000000000000090565b6040515f905f549181610b5e846109a7565b9182825260208201946001811690815f14610c5f5750600114610c02575b610b88925003826109f8565b51902060405160208101917f8b73c3c69bb8fe3d512ecc4cf759cc79239f7b179b0ffacaa9a75d522b39400f835260408201527fc89efdaa54c0f20c7adf612882df0950f5a951637e0307cdcb4c672f298b8bc660608201524660808201523060a082015260a08152610bfc60c0826109f8565b51902090565b505f80805290917f290decd9548b62a8d60345a988386fc84ba6bc95484008f6362f93160ef3e5635b818310610c43575050906020610b8892820101610b7c565b6020919350806001915483858801015201910190918392610c2b565b7fffffffffffffffffffffffffffffffffffffffffffffffffffffffffffffff0016865250610b8892151560051b82016020019050610b7c56fea164736f6c6343000821000a290decd9548b62a8d60345a988386fc84ba6bc95484008f6362f93160ef3e563000000000000000000000000000000000000000000000000000000000000006000000000000000000000000000000000000000000000000000000000000000a00000000000000000000000000000000000000000000000000000000000000012000000000000000000000000000000000000000000000000000000000000000c5465737420546f6b656e2030000000000000000000000000000000000000000000000000000000000000000000000000000000000000000000000000000000055445535430000000000000000000000000000000000000000000000000000000",
        "nonce": "0x4e0",
        "chainId": "0x14a34"
      },
      "additionalContracts": [],
      "isFixedGasLimit": false
    },
    {
      "hash": "0x91acc2240b490233a625821d185a87c8dfa666d37c28bbe1f6ae743ee70a89cd",
      "transactionType": "CREATE",
      "contractName": "MockERC20",
      "contractAddress": "0xcead52cc1423d5dec86920cf618dfa67f0aacb01",
      "function": null,
      "arguments": [
        "Test Token 1",
        "TEST1",
        "18"
      ],
      "transaction": {
        "from": "0x07425a37236a384917015f4f3e570250b9b23223",
        "gas": "0x1038dc",
        "value": "0x0",
        "input": "0x60e0806040523461041c57611197803803809161001c8285610420565b833981019060608183031261041c5780516001600160401b03811161041c5782610047918301610443565b60208201519092906001600160401b03811161041c5760409161006b918401610443565b91015160ff8116810361041c5782516001600160401b038111610342576100925f54610498565b601f81116103c2575b506020601f821160011461036157819293945f92610356575b50508160011b915f199060031b1c1916175f555b81516001600160401b038111610342576100e3600154610498565b601f81116102d4575b50602092601f821160011461027357928192935f92610268575b50508160011b915f199060031b1c1916176001555b6080524660a0526040515f905f54918161013484610498565b9182825260208201946001811690815f1461024c5750600114610202575b61015e92500382610420565b51902060405160208101917f8b73c3c69bb8fe3d512ecc4cf759cc79239f7b179b0ffacaa9a75d522b39400f835260408201527fc89efdaa54c0f20c7adf612882df0950f5a951637e0307cdcb4c672f298b8bc660608201524660808201523060a082015260a081526101d260c082610420565b51902060c052604051610ca690816104d1823960805181610739015260a05181610b04015260c05181610b2a0152f35b505f80805290915f5160206111775f395f51905f525b81831061023057505090602061015e92820101610152565b6020919350806001915483858801015201910190918392610218565b60ff191686525061015e92151560051b82016020019050610152565b015190505f80610106565b601f1982169360015f52805f20915f5b8681106102bc57508360019596106102a4575b505050811b0160015561011b565b01515f1960f88460031b161c191690555f8080610296565b91926020600181928685015181550194019201610283565b818111156100ec5760015f52601f820160051c7fb10e2d527612073b26eecdfd717e6a320cf44b4afac2b0732d9fcbe2b7fa0cf66020841061033a575b81601f9101920160051c03905f5b82811061032d5750506100ec565b5f8282015560010161031f565b5f9150610311565b634e487b7160e01b5f52604160045260245ffd5b015190505f806100b4565b601f198216905f8052805f20915f5b8181106103aa57509583600195969710610392575b505050811b015f556100c8565b01515f1960f88460031b161c191690555f8080610385565b9192602060018192868b015181550194019201610370565b8181111561009b575f8052601f820160051c5f5160206111775f395f51905f5260208410610414575b81601f9101920160051c03905f5b82811061040757505061009b565b5f828201556001016103f9565b5f91506103eb565b5f80fd5b601f909101601f19168101906001600160401b0382119082101761034257604052565b81601f8201121561041c578051906001600160401b0382116103425760405192610477601f8401601f191660200185610420565b8284526020838301011161041c57815f9260208093018386015e8301015290565b90600182811c921680156104c6575b60208310146104b257565b634e487b7160e01b5f52602260045260245ffd5b91607f16916104a756fe60806040526004361015610011575f80fd5b5f3560e01c806306fdde0314610905578063095ea7b31461088057806318160ddd1461086357806323b872dd1461075d578063313ce567146107205780633644e515146106fe57806340c10f191461064d57806370a08231146106085780637ecebe00146105c357806395d89b41146104cb5780639dc29fac1461044a578063a9059cbb146103b4578063d505accf146101255763dd62ed3e146100b3575f80fd5b34610121576040600319360112610121576100cc610aae565b73ffffffffffffffffffffffffffffffffffffffff6100e9610ad1565b91165f52600460205273ffffffffffffffffffffffffffffffffffffffff60405f2091165f52602052602060405f2054604051908152f35b5f80fd5b346101215760e06003193601126101215761013e610aae565b610146610ad1565b6044356064359260843560ff8116809103610121574285106103565760805f9160209373ffffffffffffffffffffffffffffffffffffffff610186610b01565b91169687855260058652604085209889549960018b0190556040519073ffffffffffffffffffffffffffffffffffffffff888301937f6e71edae12b1b97f4d1f60370fef10105fa2faae0126114a169c64845d6126c985528b6040850152169a8b6060840152898784015260a083015260c082015260c0815261020a60e0826109f8565b51902060405190868201927f1901000000000000000000000000000000000000000000000000000000000000845260228301526042820152604281526102516062826109f8565b519020906040519182528482015260a435604082015260c435606082015282805260015afa1561034b5773ffffffffffffffffffffffffffffffffffffffff5f511680151580610342575b156102e4577f8c5be1e5ebec7d5bd14f71427d1e84f3dd0314c0f7b2291e5b200ac8c7c3b925916020915f526004825260405f20855f5282528060405f2055604051908152a3005b60646040517f08c379a000000000000000000000000000000000000000000000000000000000815260206004820152600e60248201527f494e56414c49445f5349474e45520000000000000000000000000000000000006044820152fd5b5082811461029c565b6040513d5f823e3d90fd5b60646040517f08c379a000000000000000000000000000000000000000000000000000000000815260206004820152601760248201527f5045524d49545f444541444c494e455f455850495245440000000000000000006044820152fd5b34610121576040600319360112610121576103cd610aae565b73ffffffffffffffffffffffffffffffffffffffff60243591335f52600360205260405f206103fd848254610af4565b90551690815f52600360205260405f208181540190556040519081527fddf252ad1be2c89b69c2b068fc378daa952ba7f163c4a11628f55a4df523b3ef60203392a3602060405160018152f35b34610121576040600319360112610121575f610464610aae565b7fddf252ad1be2c89b69c2b068fc378daa952ba7f163c4a11628f55a4df523b3ef602073ffffffffffffffffffffffffffffffffffffffff60243593169283855260038252604085206104b8828254610af4565b90558060025403600255604051908152a3005b34610121575f600319360112610121576040515f6001546104eb816109a7565b80845290600181169081156105815750600114610523575b61051f83610513818503826109f8565b60405191829182610a66565b0390f35b60015f9081527fb10e2d527612073b26eecdfd717e6a320cf44b4afac2b0732d9fcbe2b7fa0cf6939250905b80821061056757509091508101602001610513610503565b91926001816020925483858801015201910190929161054f565b7fffffffffffffffffffffffffffffffffffffffffffffffffffffffffffffff001660208086019190915291151560051b840190910191506105139050610503565b346101215760206003193601126101215773ffffffffffffffffffffffffffffffffffffffff6105f1610aae565b165f526005602052602060405f2054604051908152f35b346101215760206003193601126101215773ffffffffffffffffffffffffffffffffffffffff610636610aae565b165f526003602052602060405f2054604051908152f35b3461012157604060031936011261012157610666610aae565b602435906002548281018091116106d157602073ffffffffffffffffffffffffffffffffffffffff5f937fddf252ad1be2c89b69c2b068fc378daa952ba7f163c4a11628f55a4df523b3ef9360025516938484526003825260408420818154019055604051908152a3005b7f4e487b71000000000000000000000000000000000000000000000000000000005f52601160045260245ffd5b34610121575f600319360112610121576020610718610b01565b604051908152f35b34610121575f60031936011261012157602060405160ff7f0000000000000000000000000000000000000000000000000000000000000000168152f35b3461012157606060031936011261012157610776610aae565b61077e610ad1565b7fddf252ad1be2c89b69c2b068fc378daa952ba7f163c4a11628f55a4df523b3ef602073ffffffffffffffffffffffffffffffffffffffff80604435951693845f526004835260405f208233165f52835260405f2054867fffffffffffffffffffffffffffffffffffffffffffffffffffffffffffffffff820361083c575b5050845f526003835260405f20610815878254610af4565b90551693845f526003825260405f20818154019055604051908152a3602060405160018152f35b61084591610af4565b855f526004845260405f208333165f52845260405f205586866107fd565b34610121575f600319360112610121576020600254604051908152f35b3461012157604060031936011261012157610899610aae565b73ffffffffffffffffffffffffffffffffffffffff60243591335f52600460205260405f208282165f526020528260405f205560405192835216907f8c5be1e5ebec7d5bd14f71427d1e84f3dd0314c0f7b2291e5b200ac8c7c3b92560203392a3602060405160018152f35b34610121575f600319360112610121576040515f5f54610924816109a7565b8084529060018116908115610581575060011461094b5761051f83610513818503826109f8565b5f8080527f290decd9548b62a8d60345a988386fc84ba6bc95484008f6362f93160ef3e563939250905b80821061098d57509091508101602001610513610503565b919260018160209254838588010152019101909291610975565b90600182811c921680156109ee575b60208310146109c157565b7f4e487b71000000000000000000000000000000000000000000000000000000005f52602260045260245ffd5b91607f16916109b6565b90601f7fffffffffffffffffffffffffffffffffffffffffffffffffffffffffffffffe0910116810190811067ffffffffffffffff821117610a3957604052565b7f4e487b71000000000000000000000000000000000000000000000000000000005f52604160045260245ffd5b7fffffffffffffffffffffffffffffffffffffffffffffffffffffffffffffffe0601f602060409481855280519182918282880152018686015e5f8582860101520116010190565b6004359073ffffffffffffffffffffffffffffffffffffffff8216820361012157565b6024359073ffffffffffffffffffffffffffffffffffffffff8216820361012157565b919082039182116106d157565b467f000000000000000000000000000000000000000000000000000000000000000003610b4c577f000000000000000000000000000000000000000000000000000000000000000090565b6040515f905f549181610b5e846109a7565b9182825260208201946001811690815f14610c5f5750600114610c02575b610b88925003826109f8565b51902060405160208101917f8b73c3c69bb8fe3d512ecc4cf759cc79239f7b179b0ffacaa9a75d522b39400f835260408201527fc89efdaa54c0f20c7adf612882df0950f5a951637e0307cdcb4c672f298b8bc660608201524660808201523060a082015260a08152610bfc60c0826109f8565b51902090565b505f80805290917f290decd9548b62a8d60345a988386fc84ba6bc95484008f6362f93160ef3e5635b818310610c43575050906020610b8892820101610b7c565b6020919350806001915483858801015201910190918392610c2b565b7fffffffffffffffffffffffffffffffffffffffffffffffffffffffffffffff0016865250610b8892151560051b82016020019050610b7c56fea164736f6c6343000821000a290decd9548b62a8d60345a988386fc84ba6bc95484008f6362f93160ef3e563000000000000000000000000000000000000000000000000000000000000006000000000000000000000000000000000000000000000000000000000000000a00000000000000000000000000000000000000000000000000000000000000012000000000000000000000000000000000000000000000000000000000000000c5465737420546f6b656e2031000000000000000000000000000000000000000000000000000000000000000000000000000000000000000000000000000000055445535431000000000000000000000000000000000000000000000000000000",
        "nonce": "0x4e1",
        "chainId": "0x14a34"
      },
      "additionalContracts": [],
      "isFixedGasLimit": false
    },
    {
      "hash": "0x443de5bebc9d36f036b371af3383888b57f7558d5f402d90d6935e7c360e0738",
      "transactionType": "CALL",
      "contractName": "MockERC20",
      "contractAddress": "0xb755edd638c87a2aa9691bcb6e8fea14f07ee9bf",
      "function": "mint(address,uint256)",
      "arguments": [
        "0x5a8BD49cb9D90CC66d43c597A31837761BaC6b43",
        "10000000000000000000000"
      ],
      "transaction": {
        "from": "0x07425a37236a384917015f4f3e570250b9b23223",
        "to": "0xb755edd638c87a2aa9691bcb6e8fea14f07ee9bf",
        "gas": "0x16f67",
        "value": "0x0",
        "input": "0x40c10f190000000000000000000000005a8bd49cb9d90cc66d43c597a31837761bac6b4300000000000000000000000000000000000000000000021e19e0c9bab2400000",
        "nonce": "0x4e2",
        "chainId": "0x14a34"
      },
      "additionalContracts": [],
      "isFixedGasLimit": false
    },
    {
      "hash": "0x57f9e31bf495526e173bd1fbdcb6106f63b5150a3bdc180f2bb9dc468453a428",
      "transactionType": "CALL",
      "contractName": "MockERC20",
      "contractAddress": "0xcead52cc1423d5dec86920cf618dfa67f0aacb01",
      "function": "mint(address,uint256)",
      "arguments": [
        "0x5a8BD49cb9D90CC66d43c597A31837761BaC6b43",
        "10000000000000000000000"
      ],
      "transaction": {
        "from": "0x07425a37236a384917015f4f3e570250b9b23223",
        "to": "0xcead52cc1423d5dec86920cf618dfa67f0aacb01",
        "gas": "0x16f67",
        "value": "0x0",
        "input": "0x40c10f190000000000000000000000005a8bd49cb9d90cc66d43c597a31837761bac6b4300000000000000000000000000000000000000000000021e19e0c9bab2400000",
        "nonce": "0x4e3",
        "chainId": "0x14a34"
      },
      "additionalContracts": [],
      "isFixedGasLimit": false
    },
    {
      "hash": "0x8d71112a85d4db7a00a4b0a8d0ca7d91f8e3525bd14e57294bd7b82ce8e9a5a7",
      "transactionType": "CREATE2",
      "contractName": "Counter",
      "contractAddress": "0x13d1cc7562c6f0be452ee6576658e76ef68f4ac0",
      "function": null,
      "arguments": [
        "0x05E73354cFDd6745C338b50BcFDfA3Aa6fA03408"
      ],
      "transaction": {
        "from": "0x07425a37236a384917015f4f3e570250b9b23223",
        "to": "0x4e59b44847b379578588920ca78fbf26c0b4956c",
        "gas": "0xfe905",
        "value": "0x0",
        "input": "0x00000000000000000000000000000000000000000000000000000000000021d860a06040523461028a57604051601f610f4938819003918201601f19168301916001600160401b0383118484101761028e5780849260209460405283398101031261028a57516001600160a01b038116810361028a576080525f6101a06100646102a2565b8281528260208201528260408201528260608201528260808201528260a08201528260c08201528260e0820152826101008201528261012082015282610140820152826101608201528261018082015201525f6101a06100c26102a2565b82815282602082015260016040820152826060820152600160808201528260a0820152600160c0820152600160e08201528261010082015282610120820152826101408201528261016082015282610180820152015261200030161580159061027d575b801561026c575b801561025f575b801561024e575b8015610241575b8015610231575b8015610221575b8015610215575b8015610209575b80156101fd575b80156101f1575b80156101e5575b80156101d9575b6101c657604051610c8690816102c3823960805181818160f4015281816101b40152818161022e015281816104bb0152818161055f015281816106990152818161074101526107e00152f35b630732d7b560e51b5f523060045260245ffd5b5060013016151561017a565b50600230161515610173565b5060043016151561016c565b50600830161515610165565b5060103016151561015e565b50602030161515610157565b5060403016151560011415610150565b5060803016151560011415610149565b5061010030161515610142565b50610200301615156001141561013b565b5061040030161515610134565b50610800301615156001141561012d565b5061100030161515610126565b5f80fd5b634e487b7160e01b5f52604160045260245ffd5b604051906101c082016001600160401b0381118382101761028e5760405256fe60806040526004361015610011575f80fd5b5f3560e01c806321d0ee70146107b6578063259982e514610717578063575e24b41461060e5780635c338d32146105e55780636c2bbe7e146105335780636fe7e6eb146105ad5780639f063efc14610533578063b47b2fb114610430578063b6a8b0fa146100c9578063c4e833ce146102d0578063c6939957146102a6578063dacdbe771461027c578063db6a945114610252578063dc4c90d314610202578063dc98354e1461016e5763e1b4af69146100c9575f80fd5b3461016a576100d736610a1e565b50505050505073ffffffffffffffffffffffffffffffffffffffff7f0000000000000000000000000000000000000000000000000000000000000000163303610142577f0a85dc29000000000000000000000000000000000000000000000000000000005f5260045ffd5b7fae18210a000000000000000000000000000000000000000000000000000000005f5260045ffd5b5f80fd5b3461016a5760e060031936011261016a57610187610855565b5060a060231936011261016a5761019c6109eb565b5073ffffffffffffffffffffffffffffffffffffffff7f0000000000000000000000000000000000000000000000000000000000000000163303610142577f0a85dc29000000000000000000000000000000000000000000000000000000005f5260045ffd5b3461016a575f60031936011261016a57602060405173ffffffffffffffffffffffffffffffffffffffff7f0000000000000000000000000000000000000000000000000000000000000000168152f35b3461016a57602060031936011261016a576004355f526003602052602060405f2054604051908152f35b3461016a57602060031936011261016a576004355f526001602052602060405f2054604051908152f35b3461016a57602060031936011261016a576004355f526002602052602060405f2054604051908152f35b3461016a575f60031936011261016a575f6101a06102ec610a83565b8281528260208201528260408201528260608201528260808201528260a08201528260c08201528260e0820152826101008201528261012082015282610140820152826101608201528261018082015201526101c0602061034b610a83565b5f8152818101905f82526040810160018152606082015f8152608083016001815260a084015f815260c085016001815260e0860190600182526101008701925f84526101208801945f86526101408901965f88526101608a01985f8a526101a06101808c019b5f8d52019b5f8d526040519d8e915f835251151591015251151560408d015251151560608c015251151560808b015251151560a08a015251151560c089015251151560e08801525115156101008701525115156101208601525115156101408501525115156101608401525115156101808301525115156101a0820152f35b3461016a5761016060031936011261016a5761044a610855565b5060a060231936011261016a5760607fffffffffffffffffffffffffffffffffffffffffffffffffffffffffffffff3c36011261016a576101443567ffffffffffffffff811161016a576104a2903690600401610899565b505073ffffffffffffffffffffffffffffffffffffffff7f00000000000000000000000000000000000000000000000000000000000000001633036101425760a06104ec36610af1565b205f52600160205260405f206105028154610c1f565b9055604080517fb47b2fb10000000000000000000000000000000000000000000000000000000081525f6020820152f35b3461016a5761054136610956565b5050505050505073ffffffffffffffffffffffffffffffffffffffff7f0000000000000000000000000000000000000000000000000000000000000000163303610142577f0a85dc29000000000000000000000000000000000000000000000000000000005f5260045ffd5b3461016a5761010060031936011261016a576105c7610855565b5060a060231936011261016a576105dc6109eb565b5061019c610a0e565b3461016a57602060031936011261016a576004355f525f602052602060405f2054604051908152f35b3461016a5761014060031936011261016a57610628610855565b5060a060231936011261016a5760607fffffffffffffffffffffffffffffffffffffffffffffffffffffffffffffff3c36011261016a576101243567ffffffffffffffff811161016a57610680903690600401610899565b505073ffffffffffffffffffffffffffffffffffffffff7f00000000000000000000000000000000000000000000000000000000000000001633036101425760a06106ca36610af1565b205f525f60205260405f206106df8154610c1f565b905560606040517f575e24b40000000000000000000000000000000000000000000000000000000081525f60208201525f6040820152f35b3461016a57610725366108c7565b505050905073ffffffffffffffffffffffffffffffffffffffff7f00000000000000000000000000000000000000000000000000000000000000001633036101425761077460a0913690610b9a565b205f52600260205260405f2061078a8154610c1f565b905560206040517f259982e5000000000000000000000000000000000000000000000000000000008152f35b3461016a576107c4366108c7565b505050905073ffffffffffffffffffffffffffffffffffffffff7f00000000000000000000000000000000000000000000000000000000000000001633036101425761081360a0913690610b9a565b205f52600360205260405f206108298154610c1f565b905560206040517f21d0ee70000000000000000000000000000000000000000000000000000000008152f35b6004359073ffffffffffffffffffffffffffffffffffffffff8216820361016a57565b359073ffffffffffffffffffffffffffffffffffffffff8216820361016a57565b9181601f8401121561016a5782359167ffffffffffffffff831161016a576020838186019501011161016a57565b9061016060031983011261016a5760043573ffffffffffffffffffffffffffffffffffffffff8116810361016a579160a060231982011261016a5760249160807fffffffffffffffffffffffffffffffffffffffffffffffffffffffffffffff3c83011261016a5760c491610144359067ffffffffffffffff821161016a5761095291600401610899565b9091565b906101a060031983011261016a5760043573ffffffffffffffffffffffffffffffffffffffff8116810361016a579160a060231982011261016a5760249160807fffffffffffffffffffffffffffffffffffffffffffffffffffffffffffffff3c83011261016a5760c49161014435916101643591610184359067ffffffffffffffff821161016a5761095291600401610899565b60c4359073ffffffffffffffffffffffffffffffffffffffff8216820361016a57565b60e435908160020b820361016a57565b61012060031982011261016a5760043573ffffffffffffffffffffffffffffffffffffffff8116810361016a579160a060231983011261016a5760249160c4359160e43591610104359067ffffffffffffffff821161016a5761095291600401610899565b604051906101c0820182811067ffffffffffffffff821117610aa457604052565b7f4e487b71000000000000000000000000000000000000000000000000000000005f52604160045260245ffd5b6040519060a0820182811067ffffffffffffffff821117610aa457604052565b60231960a091011261016a57610b05610ad1565b9060243573ffffffffffffffffffffffffffffffffffffffff8116810361016a57825260443573ffffffffffffffffffffffffffffffffffffffff8116810361016a57602083015260643562ffffff8116810361016a5760408301526084358060020b810361016a57606083015260a43573ffffffffffffffffffffffffffffffffffffffff8116810361016a576080830152565b91908260a091031261016a57610bae610ad1565b91610bb881610878565b8352610bc660208201610878565b6020840152604081013562ffffff8116810361016a5760408401526060810135908160020b820361016a576080916060850152013573ffffffffffffffffffffffffffffffffffffffff8116810361016a576080830152565b7fffffffffffffffffffffffffffffffffffffffffffffffffffffffffffffffff8114610c4c5760010190565b7f4e487b71000000000000000000000000000000000000000000000000000000005f52601160045260245ffdfea164736f6c6343000821000a00000000000000000000000005e73354cfdd6745c338b50bcfdfa3aa6fa03408",
        "nonce": "0x4e4",
        "chainId": "0x14a34"
      },
      "additionalContracts": [],
      "isFixedGasLimit": false
    },
    {
      "hash": "0xe4a7bf063f6dc6c4a4732398623cee6fa7e5c8207d737adf9c2a41eb5b36eddb",
      "transactionType": "CREATE",
      "contractName": "MockV3Aggregator",
      "contractAddress": "0xd53c2116617925f719e595f47f2eb9109219032f",
      "function": null,
      "arguments": [
        "8",
        "250000000000"
      ],
      "transaction": {
        "from": "0x07425a37236a384917015f4f3e570250b9b23223",
        "gas": "0xbe47f",
        "value": "0x0",
        "input": "0x60803461010757601f6107b138819003918201601f19168301916001600160401b0383118484101761010b5780849260409485528339810103126101075780519060ff821680920361010757602001515f805460ff1916909217909155600480546001600160a01b031916331790556001819055426002556003545f1981146100f357600101806003555f5260056020528060405f20556003545f5260066020524260405f20556003545f5260076020524260405f2055600354907f0559884fd3a460db3073b7fc896cc77986f16e378210ded43186175bf646fc5f6020604051428152a360405161069190816101208239f35b634e487b7160e01b5f52601160045260245ffd5b5f80fd5b634e487b7160e01b5f52604160045260245ffdfe6080806040526004361015610012575f80fd5b5f3560e01c908163313ce567146106685750806350d25bcd1461064b57806354fd4d5014610630578063668a0f02146106135780637284e416146105425780638205bf6a146105255780638da5cb5b146104f25780639a6fc8f514610470578063a87a20ce146103a7578063b5ab58dc1461037d578063b633620c14610353578063bac01e9c146101e2578063f2fde38b146101185763feaf968c146100b6575f80fd5b34610114575f600319360112610114576003546001545f8281526007602090815260409182902054600254835169ffffffffffffffffffff90961680875292860194909452918401919091526060830191909152608082015260a090f35b5f80fd5b346101145760206003193601126101145760043573ffffffffffffffffffffffffffffffffffffffff81168091036101145760045473ffffffffffffffffffffffffffffffffffffffff8116908133036101ba57827fffffffffffffffffffffffff0000000000000000000000000000000000000000927f8be0079c531659141344cd1fd0a4f28419497f9722a3daafe3b4186f6b6457e05f80a31617600455005b7f5fc483c5000000000000000000000000000000000000000000000000000000005f5260045ffd5b346101145760206003193601126101145760043567ffffffffffffffff811161011457366023820112156101145780600401359067ffffffffffffffff8211610114573660248360051b830101116101145773ffffffffffffffffffffffffffffffffffffffff6004541633036101ba575f5b828110156103515760248160051b830101359073ffffffffffffffffffffffffffffffffffffffff6004541633036101ba578160015542600255600354917fffffffffffffffffffffffffffffffffffffffffffffffffffffffffffffffff8314610324576001809301806003555f5260056020528060405f20556003545f5260066020524260405f20556003545f5260076020524260405f2055600354907f0559884fd3a460db3073b7fc896cc77986f16e378210ded43186175bf646fc5f6020604051428152a301610255565b7f4e487b71000000000000000000000000000000000000000000000000000000005f52601160045260245ffd5b005b34610114576020600319360112610114576004355f526006602052602060405f2054604051908152f35b34610114576020600319360112610114576004355f526005602052602060405f2054604051908152f35b346101145760206003193601126101145760043573ffffffffffffffffffffffffffffffffffffffff6004541633036101ba5780600155426002556003547fffffffffffffffffffffffffffffffffffffffffffffffffffffffffffffffff811461032457600101806003555f5260056020528060405f20556003545f5260066020524260405f20556003545f5260076020524260405f2055600354907f0559884fd3a460db3073b7fc896cc77986f16e378210ded43186175bf646fc5f6020604051428152a3005b346101145760206003193601126101145760043569ffffffffffffffffffff811690818103610114575f918252600560209081526040808420546007835281852054600684529482902054825169ffffffffffffffffffff9590951680865293850191909152908301939093526060820192909252608081019190915260a090f35b34610114575f60031936011261011457602073ffffffffffffffffffffffffffffffffffffffff60045416604051908152f35b34610114575f600319360112610114576020600254604051908152f35b34610114575f600319360112610114576040516040810181811067ffffffffffffffff8211176105e657604052601c8152604060208201917f4d6f636b563341676772656761746f72202d20455448202f205553440000000083527fffffffffffffffffffffffffffffffffffffffffffffffffffffffffffffffe0601f8351948593602085525180918160208701528686015e5f85828601015201168101030190f35b7f4e487b71000000000000000000000000000000000000000000000000000000005f52604160045260245ffd5b34610114575f600319360112610114576020600354604051908152f35b34610114575f60031936011261011457602060405160048152f35b34610114575f600319360112610114576020600154604051908152f35b34610114575f6003193601126101145760209060ff5f54168152f3fea164736f6c6343000821000a00000000000000000000000000000000000000000000000000000000000000080000000000000000000000000000000000000000000000000000003a35294400",
        "nonce": "0x4e5",
        "chainId": "0x14a34"
      },
      "additionalContracts": [],
      "isFixedGasLimit": false
    },
    {
      "hash": "0xe59b6c62be9a1defbde02efc7cacfb719d3b6627002f0290c13a2630d78621e2",
      "transactionType": "CALL",
      "contractName": null,
      "contractAddress": "0x05e73354cfdd6745c338b50bcfdfa3aa6fa03408",
      "function": "initialize((address,address,uint24,int24,address),uint160)",
      "arguments": [
        "(0xb755Edd638c87a2Aa9691bcB6e8Fea14F07EE9BF, 0xCEAd52Cc1423d5deC86920cf618dFa67F0AaCb01, 3000, 60, 0x13d1cc7562c6F0bE452Ee6576658E76Ef68f4Ac0)",
        "3960542286683080847829248659053"
      ],
      "transaction": {
        "from": "0x07425a37236a384917015f4f3e570250b9b23223",
        "to": "0x05e73354cfdd6745c338b50bcfdfa3aa6fa03408",
        "gas": "0x12995",
        "value": "0x0",
        "input": "0x6276cbbe000000000000000000000000b755edd638c87a2aa9691bcb6e8fea14f07ee9bf000000000000000000000000cead52cc1423d5dec86920cf618dfa67f0aacb010000000000000000000000000000000000000000000000000000000000000bb8000000000000000000000000000000000000000000000000000000000000003c00000000000000000000000013d1cc7562c6f0be452ee6576658e76ef68f4ac00000000000000000000000000000000000000031fd33cb74200c5c4a0bc64e6d",
        "nonce": "0x4e6",
        "chainId": "0x14a34"
      },
      "additionalContracts": [],
      "isFixedGasLimit": false
    },
    {
      "hash": "0x72797c95c11340860650d3710a90f6b4cbc6173347e6865122291fe548c31fe7",
      "transactionType": "CALL",
      "contractName": "MockERC20",
      "contractAddress": "0xb755edd638c87a2aa9691bcb6e8fea14f07ee9bf",
      "function": "approve(address,uint256)",
      "arguments": [
        "0x000000000022D473030F116dDEE9F6B43aC78BA3",
        "115792089237316195423570985008687907853269984665640564039457584007913129639935"
      ],
      "transaction": {
        "from": "0x5a8bd49cb9d90cc66d43c597a31837761bac6b43",
        "to": "0xb755edd638c87a2aa9691bcb6e8fea14f07ee9bf",
        "gas": "0x107a0",
        "value": "0x0",
        "input": "0x095ea7b3000000000000000000000000000000000022d473030f116ddee9f6b43ac78ba3ffffffffffffffffffffffffffffffffffffffffffffffffffffffffffffffff",
        "nonce": "0x232",
        "chainId": "0x14a34"
      },
      "additionalContracts": [],
      "isFixedGasLimit": false
    },
    {
      "hash": "0x230f8387986b59d48554109939863763d5976c3a4cc882babaa606c2073ffa98",
      "transactionType": "CALL",
      "contractName": "MockERC20",
      "contractAddress": "0xcead52cc1423d5dec86920cf618dfa67f0aacb01",
      "function": "approve(address,uint256)",
      "arguments": [
        "0x000000000022D473030F116dDEE9F6B43aC78BA3",
        "115792089237316195423570985008687907853269984665640564039457584007913129639935"
      ],
      "transaction": {
        "from": "0x5a8bd49cb9d90cc66d43c597a31837761bac6b43",
        "to": "0xcead52cc1423d5dec86920cf618dfa67f0aacb01",
        "gas": "0x107a0",
        "value": "0x0",
        "input": "0x095ea7b3000000000000000000000000000000000022d473030f116ddee9f6b43ac78ba3ffffffffffffffffffffffffffffffffffffffffffffffffffffffffffffffff",
        "nonce": "0x233",
        "chainId": "0x14a34"
      },
      "additionalContracts": [],
      "isFixedGasLimit": false
    },
    {
      "hash": "0x174641763931286bfe5fd4cc6396caa05a54c279ceb93ced13f2a065d6fd3c73",
      "transactionType": "CALL",
      "contractName": "MockERC20",
      "contractAddress": "0xb755edd638c87a2aa9691bcb6e8fea14f07ee9bf",
      "function": "approve(address,uint256)",
      "arguments": [
        "0x4B2C77d209D3405F41a037Ec6c77F7F5b8e2ca80",
        "115792089237316195423570985008687907853269984665640564039457584007913129639935"
      ],
      "transaction": {
        "from": "0x5a8bd49cb9d90cc66d43c597a31837761bac6b43",
        "to": "0xb755edd638c87a2aa9691bcb6e8fea14f07ee9bf",
        "gas": "0xf94c",
        "value": "0x0",
        "input": "0x095ea7b30000000000000000000000004b2c77d209d3405f41a037ec6c77f7f5b8e2ca80ffffffffffffffffffffffffffffffffffffffffffffffffffffffffffffffff",
        "nonce": "0x234",
        "chainId": "0x14a34"
      },
      "additionalContracts": [],
      "isFixedGasLimit": false
    },
    {
      "hash": "0xd753ee65463ac33721fef0e79a97eb5a89e4c5c6a8fd7defcca90862fa4fbe2a",
      "transactionType": "CALL",
      "contractName": "MockERC20",
      "contractAddress": "0xcead52cc1423d5dec86920cf618dfa67f0aacb01",
      "function": "approve(address,uint256)",
      "arguments": [
        "0x4B2C77d209D3405F41a037Ec6c77F7F5b8e2ca80",
        "115792089237316195423570985008687907853269984665640564039457584007913129639935"
      ],
      "transaction": {
        "from": "0x5a8bd49cb9d90cc66d43c597a31837761bac6b43",
        "to": "0xcead52cc1423d5dec86920cf618dfa67f0aacb01",
        "gas": "0xf94c",
        "value": "0x0",
        "input": "0x095ea7b30000000000000000000000004b2c77d209d3405f41a037ec6c77f7f5b8e2ca80ffffffffffffffffffffffffffffffffffffffffffffffffffffffffffffffff",
        "nonce": "0x235",
        "chainId": "0x14a34"
      },
      "additionalContracts": [],
      "isFixedGasLimit": false
    },
    {
      "hash": "0xf5f76a3ecf4571d62677d9b0154422a17cd8103db2f689ecb7d9f64f2b635d2d",
      "transactionType": "CALL",
      "contractName": "MockERC20",
      "contractAddress": "0xb755edd638c87a2aa9691bcb6e8fea14f07ee9bf",
      "function": "approve(address,uint256)",
      "arguments": [
        "0x71cD4Ea054F9Cb3D3BF6251A00673303411A7DD9",
        "115792089237316195423570985008687907853269984665640564039457584007913129639935"
      ],
      "transaction": {
        "from": "0x5a8bd49cb9d90cc66d43c597a31837761bac6b43",
        "to": "0xb755edd638c87a2aa9691bcb6e8fea14f07ee9bf",
        "gas": "0x107e6",
        "value": "0x0",
        "input": "0x095ea7b300000000000000000000000071cd4ea054f9cb3d3bf6251a00673303411a7dd9ffffffffffffffffffffffffffffffffffffffffffffffffffffffffffffffff",
        "nonce": "0x236",
        "chainId": "0x14a34"
      },
      "additionalContracts": [],
      "isFixedGasLimit": false
    },
    {
      "hash": "0x60b5960d83ae86fb4cd9cc65b8df77b99cf4e292a38abccbafd33c43d8548576",
      "transactionType": "CALL",
      "contractName": "MockERC20",
      "contractAddress": "0xcead52cc1423d5dec86920cf618dfa67f0aacb01",
      "function": "approve(address,uint256)",
      "arguments": [
        "0x71cD4Ea054F9Cb3D3BF6251A00673303411A7DD9",
        "115792089237316195423570985008687907853269984665640564039457584007913129639935"
      ],
      "transaction": {
        "from": "0x5a8bd49cb9d90cc66d43c597a31837761bac6b43",
        "to": "0xcead52cc1423d5dec86920cf618dfa67f0aacb01",
        "gas": "0x107e6",
        "value": "0x0",
        "input": "0x095ea7b300000000000000000000000071cd4ea054f9cb3d3bf6251a00673303411a7dd9ffffffffffffffffffffffffffffffffffffffffffffffffffffffffffffffff",
        "nonce": "0x237",
        "chainId": "0x14a34"
      },
      "additionalContracts": [],
      "isFixedGasLimit": false
    },
    {
      "hash": "0xe4c53c3c4a12a5dc57c17e0941e7198b65a40900c1fe8a8381a0268fa33f7a1d",
      "transactionType": "CALL",
      "contractName": null,
      "contractAddress": "0x000000000022d473030f116ddee9f6b43ac78ba3",
      "function": "approve(address,address,uint160,uint48)",
      "arguments": [
        "0xb755Edd638c87a2Aa9691bcB6e8Fea14F07EE9BF",
        "0x4B2C77d209D3405F41a037Ec6c77F7F5b8e2ca80",
        "1461501637330902918203684832716283019655932542975",
        "281474976710655"
      ],
      "transaction": {
        "from": "0x5a8bd49cb9d90cc66d43c597a31837761bac6b43",
        "to": "0x000000000022d473030f116ddee9f6b43ac78ba3",
        "gas": "0x1112d",
        "value": "0x0",
        "input": "0x87517c45000000000000000000000000b755edd638c87a2aa9691bcb6e8fea14f07ee9bf0000000000000000000000004b2c77d209d3405f41a037ec6c77f7f5b8e2ca80000000000000000000000000ffffffffffffffffffffffffffffffffffffffff0000000000000000000000000000000000000000000000000000ffffffffffff",
        "nonce": "0x238",
        "chainId": "0x14a34"
      },
      "additionalContracts": [],
      "isFixedGasLimit": false
    },
    {
      "hash": "0x5e8f1a1f5a82763d155b779d2f250be28e2826b7b4c7d94b8ace05e7d4a425cd",
      "transactionType": "CALL",
      "contractName": null,
      "contractAddress": "0x000000000022d473030f116ddee9f6b43ac78ba3",
      "function": "approve(address,address,uint160,uint48)",
      "arguments": [
        "0xCEAd52Cc1423d5deC86920cf618dFa67F0AaCb01",
        "0x4B2C77d209D3405F41a037Ec6c77F7F5b8e2ca80",
        "1461501637330902918203684832716283019655932542975",
        "281474976710655"
      ],
      "transaction": {
        "from": "0x5a8bd49cb9d90cc66d43c597a31837761bac6b43",
        "to": "0x000000000022d473030f116ddee9f6b43ac78ba3",
        "gas": "0x1112d",
        "value": "0x0",
        "input": "0x87517c45000000000000000000000000cead52cc1423d5dec86920cf618dfa67f0aacb010000000000000000000000004b2c77d209d3405f41a037ec6c77f7f5b8e2ca80000000000000000000000000ffffffffffffffffffffffffffffffffffffffff0000000000000000000000000000000000000000000000000000ffffffffffff",
        "nonce": "0x239",
        "chainId": "0x14a34"
      },
      "additionalContracts": [],
      "isFixedGasLimit": false
    },
    {
      "hash": "0xc989fc7803c9d73f5e81cbccfd3b1525b22c89cb8e5c66e552686b30d4d6dc51",
      "transactionType": "CALL",
      "contractName": null,
      "contractAddress": "0x000000000022d473030f116ddee9f6b43ac78ba3",
      "function": "approve(address,address,uint160,uint48)",
      "arguments": [
        "0xb755Edd638c87a2Aa9691bcB6e8Fea14F07EE9BF",
        "0x71cD4Ea054F9Cb3D3BF6251A00673303411A7DD9",
        "1461501637330902918203684832716283019655932542975",
        "281474976710655"
      ],
      "transaction": {
        "from": "0x5a8bd49cb9d90cc66d43c597a31837761bac6b43",
        "to": "0x000000000022d473030f116ddee9f6b43ac78ba3",
        "gas": "0x101ee",
        "value": "0x0",
        "input": "0x87517c45000000000000000000000000b755edd638c87a2aa9691bcb6e8fea14f07ee9bf00000000000000000000000071cd4ea054f9cb3d3bf6251a00673303411a7dd9000000000000000000000000ffffffffffffffffffffffffffffffffffffffff0000000000000000000000000000000000000000000000000000ffffffffffff",
        "nonce": "0x23a",
        "chainId": "0x14a34"
      },
      "additionalContracts": [],
      "isFixedGasLimit": false
    },
    {
      "hash": "0x02a98374188d136d6d3387beb4eec6b076689714502c997a03980588ebefa670",
      "transactionType": "CALL",
      "contractName": null,
      "contractAddress": "0x000000000022d473030f116ddee9f6b43ac78ba3",
      "function": "approve(address,address,uint160,uint48)",
      "arguments": [
        "0xCEAd52Cc1423d5deC86920cf618dFa67F0AaCb01",
        "0x71cD4Ea054F9Cb3D3BF6251A00673303411A7DD9",
        "1461501637330902918203684832716283019655932542975",
        "281474976710655"
      ],
      "transaction": {
        "from": "0x5a8bd49cb9d90cc66d43c597a31837761bac6b43",
        "to": "0x000000000022d473030f116ddee9f6b43ac78ba3",
        "gas": "0x101ee",
        "value": "0x0",
        "input": "0x87517c45000000000000000000000000cead52cc1423d5dec86920cf618dfa67f0aacb0100000000000000000000000071cd4ea054f9cb3d3bf6251a00673303411a7dd9000000000000000000000000ffffffffffffffffffffffffffffffffffffffff0000000000000000000000000000000000000000000000000000ffffffffffff",
        "nonce": "0x23b",
        "chainId": "0x14a34"
      },
      "additionalContracts": [],
      "isFixedGasLimit": false
    },
    {
      "hash": "0xcce5c78c1b682923cfef21a1dce3cceca9dcc1ab3d690ddbc12615bbebd96ed9",
      "transactionType": "CALL",
      "contractName": null,
      "contractAddress": "0x4b2c77d209d3405f41a037ec6c77f7f5b8e2ca80",
      "function": "modifyLiquidities(bytes,uint256)",
      "arguments": [
        "0x000000000000000000000000000000000000000000000000000000000000004000000000000000000000000000000000000000000000000000000000000000800000000000000000000000000000000000000000000000000000000000000004020d14140000000000000000000000000000000000000000000000000000000000000000000000000000000000000000000000000000000000000000000000040000000000000000000000000000000000000000000000000000000000000080000000000000000000000000000000000000000000000000000000000000024000000000000000000000000000000000000000000000000000000000000002a0000000000000000000000000000000000000000000000000000000000000030000000000000000000000000000000000000000000000000000000000000001a0000000000000000000000000b755edd638c87a2aa9691bcb6e8fea14f07ee9bf000000000000000000000000cead52cc1423d5dec86920cf618dfa67f0aacb010000000000000000000000000000000000000000000000000000000000000bb8000000000000000000000000000000000000000000000000000000000000003c00000000000000000000000013d1cc7562c6f0be452ee6576658e76ef68f4ac000000000000000000000000000000000000000000000000000000000000129a8000000000000000000000000000000000000000000000000000000000001395c00000000000000000000000000000000000000000000003635c9adc5dea000000000000000000000000000000000000000000000000000001a2a87696426ccc1000000000000000000000000000000000000000000000106c4dd1e21374113ca0000000000000000000000005a8bd49cb9d90cc66d43c597a31837761bac6b43000000000000000000000000000000000000000000000000000000000000018000000000000000000000000000000000000000000000000000000000000000000000000000000000000000000000000000000000000000000000000000000040000000000000000000000000b755edd638c87a2aa9691bcb6e8fea14f07ee9bf000000000000000000000000cead52cc1423d5dec86920cf618dfa67f0aacb010000000000000000000000000000000000000000000000000000000000000040000000000000000000000000b755edd638c87a2aa9691bcb6e8fea14f07ee9bf0000000000000000000000005a8bd49cb9d90cc66d43c597a31837761bac6b430000000000000000000000000000000000000000000000000000000000000040000000000000000000000000cead52cc1423d5dec86920cf618dfa67f0aacb010000000000000000000000005a8bd49cb9d90cc66d43c597a31837761bac6b43",
        "1771658210"
      ],
      "transaction": {
        "from": "0x5a8bd49cb9d90cc66d43c597a31837761bac6b43",
        "to": "0x4b2c77d209d3405f41a037ec6c77f7f5b8e2ca80",
        "gas": "0xa3e97",
        "value": "0x0",
        "input": "0xdd46508f00000000000000000000000000000000000000000000000000000000000000400000000000000000000000000000000000000000000000000000000069995be20000000000000000000000000000000000000000000000000000000000000400000000000000000000000000000000000000000000000000000000000000004000000000000000000000000000000000000000000000000000000000000000800000000000000000000000000000000000000000000000000000000000000004020d14140000000000000000000000000000000000000000000000000000000000000000000000000000000000000000000000000000000000000000000000040000000000000000000000000000000000000000000000000000000000000080000000000000000000000000000000000000000000000000000000000000024000000000000000000000000000000000000000000000000000000000000002a0000000000000000000000000000000000000000000000000000000000000030000000000000000000000000000000000000000000000000000000000000001a0000000000000000000000000b755edd638c87a2aa9691bcb6e8fea14f07ee9bf000000000000000000000000cead52cc1423d5dec86920cf618dfa67f0aacb010000000000000000000000000000000000000000000000000000000000000bb8000000000000000000000000000000000000000000000000000000000000003c00000000000000000000000013d1cc7562c6f0be452ee6576658e76ef68f4ac000000000000000000000000000000000000000000000000000000000000129a8000000000000000000000000000000000000000000000000000000000001395c00000000000000000000000000000000000000000000003635c9adc5dea000000000000000000000000000000000000000000000000000001a2a87696426ccc1000000000000000000000000000000000000000000000106c4dd1e21374113ca0000000000000000000000005a8bd49cb9d90cc66d43c597a31837761bac6b43000000000000000000000000000000000000000000000000000000000000018000000000000000000000000000000000000000000000000000000000000000000000000000000000000000000000000000000000000000000000000000000040000000000000000000000000b755edd638c87a2aa9691bcb6e8fea14f07ee9bf000000000000000000000000cead52cc1423d5dec86920cf618dfa67f0aacb010000000000000000000000000000000000000000000000000000000000000040000000000000000000000000b755edd638c87a2aa9691bcb6e8fea14f07ee9bf0000000000000000000000005a8bd49cb9d90cc66d43c597a31837761bac6b430000000000000000000000000000000000000000000000000000000000000040000000000000000000000000cead52cc1423d5dec86920cf618dfa67f0aacb010000000000000000000000005a8bd49cb9d90cc66d43c597a31837761bac6b43",
        "nonce": "0x23c",
        "chainId": "0x14a34"
      },
      "additionalContracts": [],
      "isFixedGasLimit": false
    }
  ],
  "receipts": [
    {
      "status": "0x1",
      "cumulativeGasUsed": "0xd2ec4",
      "logs": [],
      "logsBloom": "0x00000000000000000000000000000000000000000000000000000000000000000000000000000000000000000000000000000000000000000000000000000000000000000000000000000000000000000000000000000000000000000000000000000000000000000000000000000000000000000000000000000000000000000000000000000000000000000000000000000000000000000000000000000000000000000000000000000000000000000000000000000000000000000000000000000000000000000000000000000000000000000000000000000000000000000000000000000000000000000000000000000000000000000000000000000000",
      "type": "0x2",
      "transactionHash": "0x8a27a7f369992339041360d05acedc35f1490167ec121e32ea992cd329e0c6f6",
      "transactionIndex": "0x1",
      "blockHash": "0x0000000000000000000000000000000000000000000000000000000000000000",
      "blockNumber": "0x242f784",
      "gasUsed": "0xc7a82",
      "effectiveGasPrice": "0x5b8d80",
      "blobGasUsed": "0x4e8f9",
      "from": "0x07425a37236a384917015f4f3e570250b9b23223",
      "to": null,
      "contractAddress": "0xb755edd638c87a2aa9691bcb6e8fea14f07ee9bf",
      "daFootprintGasScalar": "0x8b",
      "l1BaseFeeScalar": "0x44d",
      "l1BlobBaseFee": "0xb",
      "l1BlobBaseFeeScalar": "0xa118b",
      "l1Fee": "0x6227",
      "l1GasPrice": "0xcc",
      "l1GasUsed": "0x90b8"
    },
    {
      "status": "0x1",
      "cumulativeGasUsed": "0x685b18",
      "logs": [],
      "logsBloom": "0x00000000000000000000000000000000000000000000000000000000000000000000000000000000000000000000000000000000000000000000000000000000000000000000000000000000000000000000000000000000000000000000000000000000000000000000000000000000000000000000000000000000000000000000000000000000000000000000000000000000000000000000000000000000000000000000000000000000000000000000000000000000000000000000000000000000000000000000000000000000000000000000000000000000000000000000000000000000000000000000000000000000000000000000000000000000",
      "type": "0x2",
      "transactionHash": "0x91acc2240b490233a625821d185a87c8dfa666d37c28bbe1f6ae743ee70a89cd",
      "transactionIndex": "0xe",
      "blockHash": "0x0000000000000000000000000000000000000000000000000000000000000000",
      "blockNumber": "0x242f785",
      "gasUsed": "0xc7a82",
      "effectiveGasPrice": "0x5b8d80",
      "blobGasUsed": "0x4e8f9",
      "from": "0x07425a37236a384917015f4f3e570250b9b23223",
      "to": null,
      "contractAddress": "0xcead52cc1423d5dec86920cf618dfa67f0aacb01",
      "daFootprintGasScalar": "0x8b",
      "l1BaseFeeScalar": "0x44d",
      "l1BlobBaseFee": "0xb",
      "l1BlobBaseFeeScalar": "0xa118b",
      "l1Fee": "0x43d",
      "l1GasPrice": "0xcc",
      "l1GasUsed": "0x90b8"
    },
    {
      "status": "0x1",
      "cumulativeGasUsed": "0x20f2e7",
      "logs": [
        {
          "address": "0xb755edd638c87a2aa9691bcb6e8fea14f07ee9bf",
          "topics": [
            "0xddf252ad1be2c89b69c2b068fc378daa952ba7f163c4a11628f55a4df523b3ef",
            "0x0000000000000000000000000000000000000000000000000000000000000000",
            "0x0000000000000000000000005a8bd49cb9d90cc66d43c597a31837761bac6b43"
          ],
          "data": "0x00000000000000000000000000000000000000000000021e19e0c9bab2400000",
          "blockHash": "0x0000000000000000000000000000000000000000000000000000000000000000",
          "blockNumber": "0x242f786",
          "blockTimestamp": "0x69994dec",
          "transactionHash": "0x443de5bebc9d36f036b371af3383888b57f7558d5f402d90d6935e7c360e0738",
          "transactionIndex": "0x8",
          "logIndex": "0x69",
          "removed": false
        }
      ],
      "logsBloom": "0x00000000000000000000000000000000000000000000000000000000010000000000000000000000000000000000000000000000000000000000000000000000000000000040000000000008000000000000000000000000000000000000000000000000020000000000000000000800000000000000000004000010000000000000000000000000000000000000000000000000000000000020000000000000000001000000000000000000000000000000000000000000000000000000000000000002000000000000000000000000000000000000000000000000000020000000000000000800000000000000000000000000000000000000000000000000",
      "type": "0x2",
      "transactionHash": "0x443de5bebc9d36f036b371af3383888b57f7558d5f402d90d6935e7c360e0738",
      "transactionIndex": "0x8",
      "blockHash": "0x0000000000000000000000000000000000000000000000000000000000000000",
      "blockNumber": "0x242f786",
      "gasUsed": "0x109ff",
      "effectiveGasPrice": "0x5b8d80",
      "blobGasUsed": "0x364c",
      "from": "0x07425a37236a384917015f4f3e570250b9b23223",
      "to": "0xb755edd638c87a2aa9691bcb6e8fea14f07ee9bf",
      "contractAddress": null,
      "daFootprintGasScalar": "0x8b",
      "l1BaseFeeScalar": "0x44d",
      "l1BlobBaseFee": "0xb",
      "l1BlobBaseFeeScalar": "0xa118b",
      "l1Fee": "0x98a",
      "l1GasPrice": "0xcc",
      "l1GasUsed": "0x640"
    },
    {
      "status": "0x1",
      "cumulativeGasUsed": "0x1af7ae",
      "logs": [
        {
          "address": "0xcead52cc1423d5dec86920cf618dfa67f0aacb01",
          "topics": [
            "0xddf252ad1be2c89b69c2b068fc378daa952ba7f163c4a11628f55a4df523b3ef",
            "0x0000000000000000000000000000000000000000000000000000000000000000",
            "0x0000000000000000000000005a8bd49cb9d90cc66d43c597a31837761bac6b43"
          ],
          "data": "0x00000000000000000000000000000000000000000000021e19e0c9bab2400000",
          "blockHash": "0x0000000000000000000000000000000000000000000000000000000000000000",
          "blockNumber": "0x242f787",
          "blockTimestamp": "0x69994dee",
          "transactionHash": "0x57f9e31bf495526e173bd1fbdcb6106f63b5150a3bdc180f2bb9dc468453a428",
          "transactionIndex": "0x4",
          "logIndex": "0x76",
          "removed": false
        }
      ],
      "logsBloom": "0x00000000000000000000000000000000000000000000000000000000000000000000000000000000000000000000000000000000000000000000000000000000000000000040000000000008000000000000000000000000000000000000000000000000020000000000000000000800000000000000000004000010000000000000000000000000000000000000000000000000000000000020000000000000000020000000000000000000000000000000000000002000000000000000000000000002000000000000000000000000000000000000000000000000000020000000000000000000000000000000000000008000000000000000000000000000",
      "type": "0x2",
      "transactionHash": "0x57f9e31bf495526e173bd1fbdcb6106f63b5150a3bdc180f2bb9dc468453a428",
      "transactionIndex": "0x4",
      "blockHash": "0x0000000000000000000000000000000000000000000000000000000000000000",
      "blockNumber": "0x242f787",
      "gasUsed": "0x109ff",
      "effectiveGasPrice": "0x5b8d80",
      "blobGasUsed": "0x364c",
      "from": "0x07425a37236a384917015f4f3e570250b9b23223",
      "to": "0xcead52cc1423d5dec86920cf618dfa67f0aacb01",
      "contractAddress": null,
      "daFootprintGasScalar": "0x8b",
      "l1BaseFeeScalar": "0x44d",
      "l1BlobBaseFee": "0xb",
      "l1BlobBaseFeeScalar": "0xa118b",
      "l1Fee": "0x447",
      "l1GasPrice": "0xd2",
      "l1GasUsed": "0x640"
    },
    {
      "status": "0x1",
      "cumulativeGasUsed": "0x501992",
      "logs": [],
      "logsBloom": "0x00000000000000000000000000000000000000000000000000000000000000000000000000000000000000000000000000000000000000000000000000000000000000000000000000000000000000000000000000000000000000000000000000000000000000000000000000000000000000000000000000000000000000000000000000000000000000000000000000000000000000000000000000000000000000000000000000000000000000000000000000000000000000000000000000000000000000000000000000000000000000000000000000000000000000000000000000000000000000000000000000000000000000000000000000000000",
      "type": "0x2",
      "transactionHash": "0x8d71112a85d4db7a00a4b0a8d0ca7d91f8e3525bd14e57294bd7b82ce8e9a5a7",
      "transactionIndex": "0x7",
      "blockHash": "0x0000000000000000000000000000000000000000000000000000000000000000",
      "blockNumber": "0x242f788",
      "gasUsed": "0xb84cc",
      "effectiveGasPrice": "0x5b8d80",
      "blobGasUsed": "0x34658",
      "from": "0x07425a37236a384917015f4f3e570250b9b23223",
      "to": "0x4e59b44847b379578588920ca78fbf26c0b4956c",
      "contractAddress": "0x13d1cc7562c6f0be452ee6576658e76ef68f4ac0",
      "daFootprintGasScalar": "0x8b",
      "l1BaseFeeScalar": "0x44d",
      "l1BlobBaseFee": "0xb",
      "l1BlobBaseFeeScalar": "0xa118b",
      "l1Fee": "0x4219",
      "l1GasPrice": "0xd2",
      "l1GasUsed": "0x6084"
    },
    {
      "status": "0x1",
      "cumulativeGasUsed": "0x1a2bf5",
      "logs": [
        {
          "address": "0xd53c2116617925f719e595f47f2eb9109219032f",
          "topics": [
            "0x0559884fd3a460db3073b7fc896cc77986f16e378210ded43186175bf646fc5f",
            "0x0000000000000000000000000000000000000000000000000000003a35294400",
            "0x0000000000000000000000000000000000000000000000000000000000000001"
          ],
          "data": "0x0000000000000000000000000000000000000000000000000000000069994df2",
          "blockHash": "0x0000000000000000000000000000000000000000000000000000000000000000",
          "blockNumber": "0x242f789",
          "blockTimestamp": "0x69994df2",
          "transactionHash": "0xe4a7bf063f6dc6c4a4732398623cee6fa7e5c8207d737adf9c2a41eb5b36eddb",
          "transactionIndex": "0x6",
          "logIndex": "0x2a",
          "removed": false
        }
      ],
      "logsBloom": "0x00000000000000000000000000000000000000000000000000000000000000000000000000000000000000000000000000000000000300000000000000040000000000000000000000000000000000000000000000040000000000000000000000000000000000000000000000000000000000000000000000000000000000000000000000000000000000000000000000000480000000000400000000000000000000010000000000000000000000000000001000000000000000000000000000000000000000000000000000100000000000000000000000000008000040000000000000000000000000000000000000000000000000000000000000000000",
      "type": "0x2",
      "transactionHash": "0xe4a7bf063f6dc6c4a4732398623cee6fa7e5c8207d737adf9c2a41eb5b36eddb",
      "transactionIndex": "0x6",
      "blockHash": "0x0000000000000000000000000000000000000000000000000000000000000000",
      "blockNumber": "0x242f789",
      "gasUsed": "0x925ec",
      "effectiveGasPrice": "0x5b8d80",
      "blobGasUsed": "0x208b5",
      "from": "0x07425a37236a384917015f4f3e570250b9b23223",
      "to": null,
      "contractAddress": "0xd53c2116617925f719e595f47f2eb9109219032f",
      "daFootprintGasScalar": "0x8b",
      "l1BaseFeeScalar": "0x44d",
      "l1BlobBaseFee": "0xb",
      "l1BlobBaseFeeScalar": "0xa118b",
      "l1Fee": "0x2912",
      "l1GasPrice": "0xd2",
      "l1GasUsed": "0x3bf8"
    },
    {
      "status": "0x1",
      "cumulativeGasUsed": "0xd7a412",
      "logs": [
        {
          "address": "0x05e73354cfdd6745c338b50bcfdfa3aa6fa03408",
          "topics": [
            "0xdd466e674ea557f56295e2d0218a125ea4b4f0f6f3307b95f85e6110838d6438",
            "0x94daa3fb000f6456e186a7cfcf9539770624b48e2ab377c39f13a7c6d023924f",
            "0x000000000000000000000000b755edd638c87a2aa9691bcb6e8fea14f07ee9bf",
            "0x000000000000000000000000cead52cc1423d5dec86920cf618dfa67f0aacb01"
          ],
          "data": "0x0000000000000000000000000000000000000000000000000000000000000bb8000000000000000000000000000000000000000000000000000000000000003c00000000000000000000000013d1cc7562c6f0be452ee6576658e76ef68f4ac00000000000000000000000000000000000000031fd33cb74200c5c4a0bc64e6d00000000000000000000000000000000000000000000000000000000000131a0",
          "blockHash": "0x0000000000000000000000000000000000000000000000000000000000000000",
          "blockNumber": "0x242f78a",
          "blockTimestamp": "0x69994df4",
          "transactionHash": "0xe59b6c62be9a1defbde02efc7cacfb719d3b6627002f0290c13a2630d78621e2",
          "transactionIndex": "0x7",
          "logIndex": "0x20c",
          "removed": false
        }
      ],
      "logsBloom": "0x00008000000000000000000000000000000000000000000000000000000000000200000100000000000000000000000000000000000000000000000000000000000000000000000000000000000000000000000000000000000000000000000000002000000000000000000000000000000000000000000000000000800000000000000004000008000000000000000000000001000000000000000000200000000000000000000090000000000000000000000000000000000000000004000000000000001000000000000000000000000010000000020000000000000000000000000000000000000000000000000000000000000000000000000000000000",
      "type": "0x2",
      "transactionHash": "0xe59b6c62be9a1defbde02efc7cacfb719d3b6627002f0290c13a2630d78621e2",
      "transactionIndex": "0x7",
      "blockHash": "0x0000000000000000000000000000000000000000000000000000000000000000",
      "blockNumber": "0x242f78a",
      "gasUsed": "0xcb7a",
      "effectiveGasPrice": "0x5b8d80",
      "blobGasUsed": "0x51fd",
      "from": "0x07425a37236a384917015f4f3e570250b9b23223",
      "to": "0x05e73354cfdd6745c338b50bcfdfa3aa6fa03408",
      "contractAddress": null,
      "daFootprintGasScalar": "0x8b",
      "l1BaseFeeScalar": "0x44d",
      "l1BlobBaseFee": "0xb",
      "l1BlobBaseFeeScalar": "0xa118b",
      "l1Fee": "0x67b",
      "l1GasPrice": "0xd2",
      "l1GasUsed": "0x977"
    },
    {
      "status": "0x1",
      "cumulativeGasUsed": "0xed2b00",
      "logs": [
        {
          "address": "0xb755edd638c87a2aa9691bcb6e8fea14f07ee9bf",
          "topics": [
            "0x8c5be1e5ebec7d5bd14f71427d1e84f3dd0314c0f7b2291e5b200ac8c7c3b925",
            "0x0000000000000000000000005a8bd49cb9d90cc66d43c597a31837761bac6b43",
            "0x000000000000000000000000000000000022d473030f116ddee9f6b43ac78ba3"
          ],
          "data": "0xffffffffffffffffffffffffffffffffffffffffffffffffffffffffffffffff",
          "blockHash": "0x0000000000000000000000000000000000000000000000000000000000000000",
          "blockNumber": "0x242f78a",
          "blockTimestamp": "0x69994df4",
          "transactionHash": "0x72797c95c11340860650d3710a90f6b4cbc6173347e6865122291fe548c31fe7",
          "transactionIndex": "0x10",
          "logIndex": "0x245",
          "removed": false
        }
      ],
      "logsBloom": "0x00000000000000000000000000000000000000000000000000000000010000000000000000000000000000000000000000000000800000000000000000200000000000000040000000004000000000000000000000000800000000000000000000000000000000000000000000000000000000000000000004000000000000000000000000000000000000000000000000000000000000000020000000000000020001000000000000000000000000000000000000000000000000000000000000000000000000000000000000000000000000000000000000000000000000000010000000000800000000000000000000000000000000000000000000000000",
      "type": "0x2",
      "transactionHash": "0x72797c95c11340860650d3710a90f6b4cbc6173347e6865122291fe548c31fe7",
      "transactionIndex": "0x10",
      "blockHash": "0x0000000000000000000000000000000000000000000000000000000000000000",
      "blockNumber": "0x242f78a",
      "gasUsed": "0xb442",
      "effectiveGasPrice": "0x5b8d80",
      "blobGasUsed": "0x364c",
      "from": "0x5a8bd49cb9d90cc66d43c597a31837761bac6b43",
      "to": "0xb755edd638c87a2aa9691bcb6e8fea14f07ee9bf",
      "contractAddress": null,
      "daFootprintGasScalar": "0x8b",
      "l1BaseFeeScalar": "0x44d",
      "l1BlobBaseFee": "0xb",
      "l1BlobBaseFeeScalar": "0xa118b",
      "l1Fee": "0xb2c",
      "l1GasPrice": "0xd2",
      "l1GasUsed": "0x640"
    },
    {
      "status": "0x1",
      "cumulativeGasUsed": "0x40ccb",
      "logs": [
        {
          "address": "0xcead52cc1423d5dec86920cf618dfa67f0aacb01",
          "topics": [
            "0x8c5be1e5ebec7d5bd14f71427d1e84f3dd0314c0f7b2291e5b200ac8c7c3b925",
            "0x0000000000000000000000005a8bd49cb9d90cc66d43c597a31837761bac6b43",
            "0x000000000000000000000000000000000022d473030f116ddee9f6b43ac78ba3"
          ],
          "data": "0xffffffffffffffffffffffffffffffffffffffffffffffffffffffffffffffff",
          "blockHash": "0x0000000000000000000000000000000000000000000000000000000000000000",
          "blockNumber": "0x242f78b",
          "blockTimestamp": "0x69994df6",
          "transactionHash": "0x230f8387986b59d48554109939863763d5976c3a4cc882babaa606c2073ffa98",
          "transactionIndex": "0x5",
          "logIndex": "0x5",
          "removed": false
        }
      ],
      "logsBloom": "0x00000000000000000000000000000000000000000000000000000000000000000000000000000000000000000000000000000000800000000000000000200000000000000040000000004000000000000000000000000800000000000000000000000000000000000000000000000000000000000000000004000000000000000000000000000000000000000000000000000000000000000020000000000000020020000000000000000000000000000000000000002000000000000000000000000000000000000000000000000000000000000000000000000000000000000010000000000000000000000000000000008000000000000000000000000000",
      "type": "0x2",
      "transactionHash": "0x230f8387986b59d48554109939863763d5976c3a4cc882babaa606c2073ffa98",
      "transactionIndex": "0x5",
      "blockHash": "0x0000000000000000000000000000000000000000000000000000000000000000",
      "blockNumber": "0x242f78b",
      "gasUsed": "0xb442",
      "effectiveGasPrice": "0x5b8d80",
      "blobGasUsed": "0x364c",
      "from": "0x5a8bd49cb9d90cc66d43c597a31837761bac6b43",
      "to": "0xcead52cc1423d5dec86920cf618dfa67f0aacb01",
      "contractAddress": null,
      "daFootprintGasScalar": "0x8b",
      "l1BaseFeeScalar": "0x44d",
      "l1BlobBaseFee": "0xb",
      "l1BlobBaseFeeScalar": "0xa118b",
      "l1Fee": "0x447",
      "l1GasPrice": "0xd2",
      "l1GasUsed": "0x640"
    },
    {
      "status": "0x1",
      "cumulativeGasUsed": "0x27ec94",
      "logs": [
        {
          "address": "0xb755edd638c87a2aa9691bcb6e8fea14f07ee9bf",
          "topics": [
            "0x8c5be1e5ebec7d5bd14f71427d1e84f3dd0314c0f7b2291e5b200ac8c7c3b925",
            "0x0000000000000000000000005a8bd49cb9d90cc66d43c597a31837761bac6b43",
            "0x0000000000000000000000004b2c77d209d3405f41a037ec6c77f7f5b8e2ca80"
          ],
          "data": "0xffffffffffffffffffffffffffffffffffffffffffffffffffffffffffffffff",
          "blockHash": "0x0000000000000000000000000000000000000000000000000000000000000000",
          "blockNumber": "0x242f78c",
          "blockTimestamp": "0x69994df8",
          "transactionHash": "0x174641763931286bfe5fd4cc6396caa05a54c279ceb93ced13f2a065d6fd3c73",
          "transactionIndex": "0x5",
          "logIndex": "0x1e",
          "removed": false
        }
      ],
      "logsBloom": "0x00000000000000010000000000000000000000000000000000000000010000000000000000000000000000000000000000000000000000000008000010200000000000000040000000000000000000000000000000000000000000000000000000000000000000000000000000000000000000000000000004000000000000000000000000000000000000000000000000000000000000000020000000000000020001000000000000000000000000000000000000000000000000000000000000000000000000000000000000000000000000000000000000000000000000000010000000000800000000000000000000000000000000000000000000000000",
      "type": "0x2",
      "transactionHash": "0x174641763931286bfe5fd4cc6396caa05a54c279ceb93ced13f2a065d6fd3c73",
      "transactionIndex": "0x5",
      "blockHash": "0x0000000000000000000000000000000000000000000000000000000000000000",
      "blockNumber": "0x242f78c",
      "gasUsed": "0xb47e",
      "effectiveGasPrice": "0x5b8d80",
      "blobGasUsed": "0x364c",
      "from": "0x5a8bd49cb9d90cc66d43c597a31837761bac6b43",
      "to": "0xb755edd638c87a2aa9691bcb6e8fea14f07ee9bf",
      "contractAddress": null,
      "daFootprintGasScalar": "0x8b",
      "l1BaseFeeScalar": "0x44d",
      "l1BlobBaseFee": "0xb",
      "l1BlobBaseFeeScalar": "0xa118b",
      "l1Fee": "0x447",
      "l1GasPrice": "0xd2",
      "l1GasUsed": "0x640"
    },
    {
      "status": "0x1",
      "cumulativeGasUsed": "0x25e9c8",
      "logs": [
        {
          "address": "0xcead52cc1423d5dec86920cf618dfa67f0aacb01",
          "topics": [
            "0x8c5be1e5ebec7d5bd14f71427d1e84f3dd0314c0f7b2291e5b200ac8c7c3b925",
            "0x0000000000000000000000005a8bd49cb9d90cc66d43c597a31837761bac6b43",
            "0x0000000000000000000000004b2c77d209d3405f41a037ec6c77f7f5b8e2ca80"
          ],
          "data": "0xffffffffffffffffffffffffffffffffffffffffffffffffffffffffffffffff",
          "blockHash": "0x0000000000000000000000000000000000000000000000000000000000000000",
          "blockNumber": "0x242f78d",
          "blockTimestamp": "0x69994dfa",
          "transactionHash": "0xd753ee65463ac33721fef0e79a97eb5a89e4c5c6a8fd7defcca90862fa4fbe2a",
          "transactionIndex": "0x10",
          "logIndex": "0x67",
          "removed": false
        }
      ],
      "logsBloom": "0x00000000000000010000000000000000000000000000000000000000000000000000000000000000000000000000000000000000000000000008000010200000000000000040000000000000000000000000000000000000000000000000000000000000000000000000000000000000000000000000000004000000000000000000000000000000000000000000000000000000000000000020000000000000020020000000000000000000000000000000000000002000000000000000000000000000000000000000000000000000000000000000000000000000000000000010000000000000000000000000000000008000000000000000000000000000",
      "type": "0x2",
      "transactionHash": "0xd753ee65463ac33721fef0e79a97eb5a89e4c5c6a8fd7defcca90862fa4fbe2a",
      "transactionIndex": "0x10",
      "blockHash": "0x0000000000000000000000000000000000000000000000000000000000000000",
      "blockNumber": "0x242f78d",
      "gasUsed": "0xb47e",
      "effectiveGasPrice": "0x5b8d80",
      "blobGasUsed": "0x364c",
      "from": "0x5a8bd49cb9d90cc66d43c597a31837761bac6b43",
      "to": "0xcead52cc1423d5dec86920cf618dfa67f0aacb01",
      "contractAddress": null,
      "daFootprintGasScalar": "0x8b",
      "l1BaseFeeScalar": "0x44d",
      "l1BlobBaseFee": "0xc",
      "l1BlobBaseFeeScalar": "0xa118b",
      "l1Fee": "0x472",
      "l1GasPrice": "0xc5",
      "l1GasUsed": "0x640"
    },
    {
      "status": "0x1",
      "cumulativeGasUsed": "0x657519",
      "logs": [
        {
          "address": "0xb755edd638c87a2aa9691bcb6e8fea14f07ee9bf",
          "topics": [
            "0x8c5be1e5ebec7d5bd14f71427d1e84f3dd0314c0f7b2291e5b200ac8c7c3b925",
            "0x0000000000000000000000005a8bd49cb9d90cc66d43c597a31837761bac6b43",
            "0x00000000000000000000000071cd4ea054f9cb3d3bf6251a00673303411a7dd9"
          ],
          "data": "0xffffffffffffffffffffffffffffffffffffffffffffffffffffffffffffffff",
          "blockHash": "0x0000000000000000000000000000000000000000000000000000000000000000",
          "blockNumber": "0x242f78e",
          "blockTimestamp": "0x69994dfc",
          "transactionHash": "0xf5f76a3ecf4571d62677d9b0154422a17cd8103db2f689ecb7d9f64f2b635d2d",
          "transactionIndex": "0xe",
          "logIndex": "0xac",
          "removed": false
        }
      ],
      "logsBloom": "0x00000000000000000000000000000000000000000000000000000000010000000000000000000000000000000000000000000000000000000000000000200000000000000040000000000000000000000000000000000000000000000000000000000000000000000000000000000000000000000000000004000000000000000000000000000000000000000000000000000000000000000020000000000000020001000000000000000000000000000000000000002000004000000000000000000000000000000000020000000000000000000000000000000000000000000010000000000800000000000000000000000000000000000000000000000000",
      "type": "0x2",
      "transactionHash": "0xf5f76a3ecf4571d62677d9b0154422a17cd8103db2f689ecb7d9f64f2b635d2d",
      "transactionIndex": "0xe",
      "blockHash": "0x0000000000000000000000000000000000000000000000000000000000000000",
      "blockNumber": "0x242f78e",
      "gasUsed": "0xb472",
      "effectiveGasPrice": "0x5b8d80",
      "blobGasUsed": "0x364c",
      "from": "0x5a8bd49cb9d90cc66d43c597a31837761bac6b43",
      "to": "0xb755edd638c87a2aa9691bcb6e8fea14f07ee9bf",
      "contractAddress": null,
      "daFootprintGasScalar": "0x8b",
      "l1BaseFeeScalar": "0x44d",
      "l1BlobBaseFee": "0xc",
      "l1BlobBaseFeeScalar": "0xa118b",
      "l1Fee": "0x472",
      "l1GasPrice": "0xc5",
      "l1GasUsed": "0x640"
    },
    {
      "status": "0x1",
      "cumulativeGasUsed": "0x3ee528",
      "logs": [
        {
          "address": "0xcead52cc1423d5dec86920cf618dfa67f0aacb01",
          "topics": [
            "0x8c5be1e5ebec7d5bd14f71427d1e84f3dd0314c0f7b2291e5b200ac8c7c3b925",
            "0x0000000000000000000000005a8bd49cb9d90cc66d43c597a31837761bac6b43",
            "0x00000000000000000000000071cd4ea054f9cb3d3bf6251a00673303411a7dd9"
          ],
          "data": "0xffffffffffffffffffffffffffffffffffffffffffffffffffffffffffffffff",
          "blockHash": "0x0000000000000000000000000000000000000000000000000000000000000000",
          "blockNumber": "0x242f78f",
          "blockTimestamp": "0x69994dfe",
          "transactionHash": "0x60b5960d83ae86fb4cd9cc65b8df77b99cf4e292a38abccbafd33c43d8548576",
          "transactionIndex": "0x11",
          "logIndex": "0xc5",
          "removed": false
        }
      ],
      "logsBloom": "0x00000000000000000000000000000000000000000000000000000000000000000000000000000000000000000000000000000000000000000000000000200000000000000040000000000000000000000000000000000000000000000000000000000000000000000000000000000000000000000000000004000000000000000000000000000000000000000000000000000000000000000020000000000000020020000000000000000000000000000000000000002000004000000000000000000000000000000000020000000000000000000000000000000000000000000010000000000000000000000000000000008000000000000000000000000000",
      "type": "0x2",
      "transactionHash": "0x60b5960d83ae86fb4cd9cc65b8df77b99cf4e292a38abccbafd33c43d8548576",
      "transactionIndex": "0x11",
      "blockHash": "0x0000000000000000000000000000000000000000000000000000000000000000",
      "blockNumber": "0x242f78f",
      "gasUsed": "0xb472",
      "effectiveGasPrice": "0x5b8d80",
      "blobGasUsed": "0x364c",
      "from": "0x5a8bd49cb9d90cc66d43c597a31837761bac6b43",
      "to": "0xcead52cc1423d5dec86920cf618dfa67f0aacb01",
      "contractAddress": null,
      "daFootprintGasScalar": "0x8b",
      "l1BaseFeeScalar": "0x44d",
      "l1BlobBaseFee": "0xc",
      "l1BlobBaseFeeScalar": "0xa118b",
      "l1Fee": "0x472",
      "l1GasPrice": "0xc5",
      "l1GasUsed": "0x640"
    },
    {
      "status": "0x1",
      "cumulativeGasUsed": "0x1469e3",
      "logs": [
        {
          "address": "0x000000000022d473030f116ddee9f6b43ac78ba3",
          "topics": [
            "0xda9fa7c1b00402c17d0161b249b1ab8bbec047c5a52207b9c112deffd817036b",
            "0x0000000000000000000000005a8bd49cb9d90cc66d43c597a31837761bac6b43",
            "0x000000000000000000000000b755edd638c87a2aa9691bcb6e8fea14f07ee9bf",
            "0x0000000000000000000000004b2c77d209d3405f41a037ec6c77f7f5b8e2ca80"
          ],
          "data": "0x000000000000000000000000ffffffffffffffffffffffffffffffffffffffff0000000000000000000000000000000000000000000000000000ffffffffffff",
          "blockHash": "0x0000000000000000000000000000000000000000000000000000000000000000",
          "blockNumber": "0x242f790",
          "blockTimestamp": "0x69994e00",
          "transactionHash": "0xe4c53c3c4a12a5dc57c17e0941e7198b65a40900c1fe8a8381a0268fa33f7a1d",
          "transactionIndex": "0x5",
          "logIndex": "0x5",
          "removed": false
        }
      ],
      "logsBloom": "0x00010000000000010000000000000000000000000000000000000000000000000000000000000000000000000000000000000000000000000008000010080000000000000040000000000000000000000000000000000000000000000000000000002000000000000000000000000000000000000000000004000000000000000020000000000000000000000000000000000000000000000020000000000000000000000000000080000000000000000000000000000000000000080004000000000000000000000000000000000000000000000000000040000000000000000000000000000000000000000000000000000000000000000000000000000400",
      "type": "0x2",
      "transactionHash": "0xe4c53c3c4a12a5dc57c17e0941e7198b65a40900c1fe8a8381a0268fa33f7a1d",
      "transactionIndex": "0x5",
      "blockHash": "0x0000000000000000000000000000000000000000000000000000000000000000",
      "blockNumber": "0x242f790",
      "gasUsed": "0xbaca",
      "effectiveGasPrice": "0x5b8d80",
      "blobGasUsed": "0x3d5b",
      "from": "0x5a8bd49cb9d90cc66d43c597a31837761bac6b43",
      "to": "0x000000000022d473030f116ddee9f6b43ac78ba3",
      "contractAddress": null,
      "daFootprintGasScalar": "0x8b",
      "l1BaseFeeScalar": "0x44d",
      "l1BlobBaseFee": "0xc",
      "l1BlobBaseFeeScalar": "0xa118b",
      "l1Fee": "0x510",
      "l1GasPrice": "0xc5",
      "l1GasUsed": "0x71d"
    },
    {
      "status": "0x1",
      "cumulativeGasUsed": "0xaaaea",
      "logs": [
        {
          "address": "0x000000000022d473030f116ddee9f6b43ac78ba3",
          "topics": [
            "0xda9fa7c1b00402c17d0161b249b1ab8bbec047c5a52207b9c112deffd817036b",
            "0x0000000000000000000000005a8bd49cb9d90cc66d43c597a31837761bac6b43",
            "0x000000000000000000000000cead52cc1423d5dec86920cf618dfa67f0aacb01",
            "0x0000000000000000000000004b2c77d209d3405f41a037ec6c77f7f5b8e2ca80"
          ],
          "data": "0x000000000000000000000000ffffffffffffffffffffffffffffffffffffffff0000000000000000000000000000000000000000000000000000ffffffffffff",
          "blockHash": "0x0000000000000000000000000000000000000000000000000000000000000000",
          "blockNumber": "0x242f791",
          "blockTimestamp": "0x69994e02",
          "transactionHash": "0x5e8f1a1f5a82763d155b779d2f250be28e2826b7b4c7d94b8ace05e7d4a425cd",
          "transactionIndex": "0x8",
          "logIndex": "0xd",
          "removed": false
        }
      ],
      "logsBloom": "0x00010000000000010000000000000000000000000000000000000000000000000000000000000000000000000000000000000000000000000008000010080000000000000040000000000000000000000000000000000000000000000000000000000000000000000000000000000000000000000000000004000000800000000020000000000000000000000000000000000000000000000020000000000000000000000000000000000000000000000000000000000000000000080000000000000000000000000000000000000000000010000000020040000000000000000000000000000000000000000000000000000000000000000000000000000400",
      "type": "0x2",
      "transactionHash": "0x5e8f1a1f5a82763d155b779d2f250be28e2826b7b4c7d94b8ace05e7d4a425cd",
      "transactionIndex": "0x8",
      "blockHash": "0x0000000000000000000000000000000000000000000000000000000000000000",
      "blockNumber": "0x242f791",
      "gasUsed": "0xbaca",
      "effectiveGasPrice": "0x5b8d80",
      "blobGasUsed": "0x3d5b",
      "from": "0x5a8bd49cb9d90cc66d43c597a31837761bac6b43",
      "to": "0x000000000022d473030f116ddee9f6b43ac78ba3",
      "contractAddress": null,
      "daFootprintGasScalar": "0x8b",
      "l1BaseFeeScalar": "0x44d",
      "l1BlobBaseFee": "0xc",
      "l1BlobBaseFeeScalar": "0xa118b",
      "l1Fee": "0x472",
      "l1GasPrice": "0xc5",
      "l1GasUsed": "0x71d"
    },
    {
      "status": "0x1",
      "cumulativeGasUsed": "0x90d153",
      "logs": [
        {
          "address": "0x000000000022d473030f116ddee9f6b43ac78ba3",
          "topics": [
            "0xda9fa7c1b00402c17d0161b249b1ab8bbec047c5a52207b9c112deffd817036b",
            "0x0000000000000000000000005a8bd49cb9d90cc66d43c597a31837761bac6b43",
            "0x000000000000000000000000b755edd638c87a2aa9691bcb6e8fea14f07ee9bf",
            "0x00000000000000000000000071cd4ea054f9cb3d3bf6251a00673303411a7dd9"
          ],
          "data": "0x000000000000000000000000ffffffffffffffffffffffffffffffffffffffff0000000000000000000000000000000000000000000000000000ffffffffffff",
          "blockHash": "0x0000000000000000000000000000000000000000000000000000000000000000",
          "blockNumber": "0x242f792",
          "blockTimestamp": "0x69994e04",
          "transactionHash": "0xc989fc7803c9d73f5e81cbccfd3b1525b22c89cb8e5c66e552686b30d4d6dc51",
          "transactionIndex": "0x11",
          "logIndex": "0x85",
          "removed": false
        }
      ],
      "logsBloom": "0x00010000000000000000000000000000000000000000000000000000000000000000000000000000000000000000000000000000000000000000000000080000000000000040000000000000000000000000000000000000000000000000000000002000000000000000000000000000000000000000000004000000000000000020000000000000000000000000000000000000000000000020000000000000000000000000000080000000000000000000000000002000004000080004000000000000000000000000020000000000000000000000000040000000000000000000000000000000000000000000000000000000000000000000000000000400",
      "type": "0x2",
      "transactionHash": "0xc989fc7803c9d73f5e81cbccfd3b1525b22c89cb8e5c66e552686b30d4d6dc51",
      "transactionIndex": "0x11",
      "blockHash": "0x0000000000000000000000000000000000000000000000000000000000000000",
      "blockNumber": "0x242f792",
      "gasUsed": "0xbabe",
      "effectiveGasPrice": "0x5b8d80",
      "blobGasUsed": "0x3d5b",
      "from": "0x5a8bd49cb9d90cc66d43c597a31837761bac6b43",
      "to": "0x000000000022d473030f116ddee9f6b43ac78ba3",
      "contractAddress": null,
      "daFootprintGasScalar": "0x8b",
      "l1BaseFeeScalar": "0x44d",
      "l1BlobBaseFee": "0xc",
      "l1BlobBaseFeeScalar": "0xa118b",
      "l1Fee": "0x510",
      "l1GasPrice": "0xc5",
      "l1GasUsed": "0x71d"
    },
    {
      "status": "0x1",
      "cumulativeGasUsed": "0x4f19d4",
      "logs": [
        {
          "address": "0x000000000022d473030f116ddee9f6b43ac78ba3",
          "topics": [
            "0xda9fa7c1b00402c17d0161b249b1ab8bbec047c5a52207b9c112deffd817036b",
            "0x0000000000000000000000005a8bd49cb9d90cc66d43c597a31837761bac6b43",
            "0x000000000000000000000000cead52cc1423d5dec86920cf618dfa67f0aacb01",
            "0x00000000000000000000000071cd4ea054f9cb3d3bf6251a00673303411a7dd9"
          ],
          "data": "0x000000000000000000000000ffffffffffffffffffffffffffffffffffffffff0000000000000000000000000000000000000000000000000000ffffffffffff",
          "blockHash": "0x0000000000000000000000000000000000000000000000000000000000000000",
          "blockNumber": "0x242f793",
          "blockTimestamp": "0x69994e06",
          "transactionHash": "0x02a98374188d136d6d3387beb4eec6b076689714502c997a03980588ebefa670",
          "transactionIndex": "0xf",
          "logIndex": "0x3d",
          "removed": false
        }
      ],
      "logsBloom": "0x00010000000000000000000000000000000000000000000000000000000000000000000000000000000000000000000000000000000000000000000000080000000000000040000000000000000000000000000000000000000000000000000000000000000000000000000000000000000000000000000004000000800000000020000000000000000000000000000000000000000000000020000000000000000000000000000000000000000000000000000000002000004000080000000000000000000000000000020000000000000010000000020040000000000000000000000000000000000000000000000000000000000000000000000000000400",
      "type": "0x2",
      "transactionHash": "0x02a98374188d136d6d3387beb4eec6b076689714502c997a03980588ebefa670",
      "transactionIndex": "0xf",
      "blockHash": "0x0000000000000000000000000000000000000000000000000000000000000000",
      "blockNumber": "0x242f793",
      "gasUsed": "0xbabe",
      "effectiveGasPrice": "0x5b8d80",
      "blobGasUsed": "0x3d5b",
      "from": "0x5a8bd49cb9d90cc66d43c597a31837761bac6b43",
      "to": "0x000000000022d473030f116ddee9f6b43ac78ba3",
      "contractAddress": null,
      "daFootprintGasScalar": "0x8b",
      "l1BaseFeeScalar": "0x44d",
      "l1BlobBaseFee": "0xc",
      "l1BlobBaseFeeScalar": "0xa118b",
      "l1Fee": "0x51a",
      "l1GasPrice": "0xca",
      "l1GasUsed": "0x71d"
    },
    {
      "status": "0x1",
      "cumulativeGasUsed": "0x1044cc",
      "logs": [
        {
          "address": "0x4b2c77d209d3405f41a037ec6c77f7f5b8e2ca80",
          "topics": [
            "0xddf252ad1be2c89b69c2b068fc378daa952ba7f163c4a11628f55a4df523b3ef",
            "0x0000000000000000000000000000000000000000000000000000000000000000",
            "0x0000000000000000000000005a8bd49cb9d90cc66d43c597a31837761bac6b43",
            "0x00000000000000000000000000000000000000000000000000000000000044cb"
          ],
          "data": "0x",
          "blockHash": "0x0000000000000000000000000000000000000000000000000000000000000000",
          "blockNumber": "0x242f794",
          "blockTimestamp": "0x69994e08",
          "transactionHash": "0xcce5c78c1b682923cfef21a1dce3cceca9dcc1ab3d690ddbc12615bbebd96ed9",
          "transactionIndex": "0x7",
          "logIndex": "0x7",
          "removed": false
        },
        {
          "address": "0x05e73354cfdd6745c338b50bcfdfa3aa6fa03408",
          "topics": [
            "0xf208f4912782fd25c7f114ca3723a2d5dd6f3bcc3ac8db5af63baa85f711d5ec",
            "0x94daa3fb000f6456e186a7cfcf9539770624b48e2ab377c39f13a7c6d023924f",
            "0x0000000000000000000000004b2c77d209d3405f41a037ec6c77f7f5b8e2ca80"
          ],
          "data": "0x00000000000000000000000000000000000000000000000000000000000129a8000000000000000000000000000000000000000000000000000000000001395c00000000000000000000000000000000000000000000003635c9adc5dea0000000000000000000000000000000000000000000000000000000000000000044cb",
          "blockHash": "0x0000000000000000000000000000000000000000000000000000000000000000",
          "blockNumber": "0x242f794",
          "blockTimestamp": "0x69994e08",
          "transactionHash": "0xcce5c78c1b682923cfef21a1dce3cceca9dcc1ab3d690ddbc12615bbebd96ed9",
          "transactionIndex": "0x7",
          "logIndex": "0x8",
          "removed": false
        },
        {
          "address": "0xb755edd638c87a2aa9691bcb6e8fea14f07ee9bf",
          "topics": [
            "0xddf252ad1be2c89b69c2b068fc378daa952ba7f163c4a11628f55a4df523b3ef",
            "0x0000000000000000000000005a8bd49cb9d90cc66d43c597a31837761bac6b43",
            "0x00000000000000000000000005e73354cfdd6745c338b50bcfdfa3aa6fa03408"
          ],
          "data": "0x0000000000000000000000000000000000000000000000001a2a87696426ccc1",
          "blockHash": "0x0000000000000000000000000000000000000000000000000000000000000000",
          "blockNumber": "0x242f794",
          "blockTimestamp": "0x69994e08",
          "transactionHash": "0xcce5c78c1b682923cfef21a1dce3cceca9dcc1ab3d690ddbc12615bbebd96ed9",
          "transactionIndex": "0x7",
          "logIndex": "0x9",
          "removed": false
        },
        {
          "address": "0xcead52cc1423d5dec86920cf618dfa67f0aacb01",
          "topics": [
            "0xddf252ad1be2c89b69c2b068fc378daa952ba7f163c4a11628f55a4df523b3ef",
            "0x0000000000000000000000005a8bd49cb9d90cc66d43c597a31837761bac6b43",
            "0x00000000000000000000000005e73354cfdd6745c338b50bcfdfa3aa6fa03408"
          ],
          "data": "0x000000000000000000000000000000000000000000000106c4dd1e21374113ca",
          "blockHash": "0x0000000000000000000000000000000000000000000000000000000000000000",
          "blockNumber": "0x242f794",
          "blockTimestamp": "0x69994e08",
          "transactionHash": "0xcce5c78c1b682923cfef21a1dce3cceca9dcc1ab3d690ddbc12615bbebd96ed9",
          "transactionIndex": "0x7",
          "logIndex": "0xa",
          "removed": false
        }
      ],
      "logsBloom": "0x0000800000000001000000008000000000000000000000000000000001000000030000010000000000000000000000000000000000000000000800001000080000000000005000000000000c000000000000000000100000000000008000000000000000020000000000000000000800000000000000000004000010000000000000000005000000000000000000000000000000000000000020000000000000000025000000000010000000000000000000000000002000000000000000000000000002001000000000000000000000000000000000000004000000000020000000000000000800000000000800000004008000000000000000000000000000",
      "type": "0x2",
      "transactionHash": "0xcce5c78c1b682923cfef21a1dce3cceca9dcc1ab3d690ddbc12615bbebd96ed9",
      "transactionIndex": "0x7",
      "blockHash": "0x0000000000000000000000000000000000000000000000000000000000000000",
      "blockNumber": "0x242f794",
      "gasUsed": "0x7013a",
      "effectiveGasPrice": "0x5b8d80",
      "blobGasUsed": "0xa3fa",
      "from": "0x5a8bd49cb9d90cc66d43c597a31837761bac6b43",
      "to": "0x4b2c77d209d3405f41a037ec6c77f7f5b8e2ca80",
      "contractAddress": null,
      "daFootprintGasScalar": "0x8b",
      "l1BaseFeeScalar": "0x44d",
      "l1BlobBaseFee": "0xc",
      "l1BlobBaseFeeScalar": "0xa118b",
      "l1Fee": "0x47b",
      "l1GasPrice": "0xca",
      "l1GasUsed": "0x12ee"
    }
  ],
  "libraries": [],
  "pending": [],
  "returns": {},
  "timestamp": 1771654731051,
  "chain": 84532,
  "commit": "1cf1162"
}