{
  "transactions": [
    {
      "hash": "0x2e8cf7e39edeb559e483307364340b09d4bcadf6dc03aaad8cdd107f18e81cfa",
      "transactionType": "CREATE",
      "contractName": "MockERC20",
      "contractAddress": "0xd0cd1b2509975b5ed5b1e2c6d574751f952e1096",
      "function": null,
      "arguments": [
        "Test Token 0",
        "TEST0",
        "18"
      ],
      "transaction": {
        "from": "0x07425a37236a384917015f4f3e570250b9b23223",
        "gas": "0x103731",
        "value": "0x0",
        "input": "0x60e0806040523461040657611181803803809161001c828561040a565b83398101906060818303126104065780516001600160401b038111610406578261004791830161042d565b60208201519092906001600160401b0381116104065760409161006b91840161042d565b91015160ff811681036104065782516001600160401b038111610337576100925f54610482565b601f81116103b7575b506020601f821160011461035657819293945f9261034b575b50508160011b915f199060031b1c1916175f555b81516001600160401b038111610337576100e3600154610482565b601f81116102d4575b50602092601f821160011461027357928192935f92610268575b50508160011b915f199060031b1c1916176001555b6080524660a0526040515f905f54918161013484610482565b9182825260208201946001811690815f1461024c5750600114610202575b61015e9250038261040a565b51902060405160208101917f8b73c3c69bb8fe3d512ecc4cf759cc79239f7b179b0ffacaa9a75d522b39400f835260408201527fc89efdaa54c0f20c7adf612882df0950f5a951637e0307cdcb4c672f298b8bc660608201524660808201523060a082015260a081526101d260c08261040a565b51902060c052604051610ca690816104bb823960805181610739015260a05181610b04015260c05181610b2a0152f35b505f80805290915f805160206111618339815191525b81831061023057505090602061015e92820101610152565b6020919350806001915483858801015201910190918392610218565b60ff191686525061015e92151560051b82016020019050610152565b015190505f80610106565b601f1982169360015f52805f20915f5b8681106102bc57508360019596106102a4575b505050811b0160015561011b565b01515f1960f88460031b161c191690555f8080610296565b91926020600181928685015181550194019201610283565b60015f527fb10e2d527612073b26eecdfd717e6a320cf44b4afac2b0732d9fcbe2b7fa0cf6601f830160051c8101916020841061032d575b601f0160051c01905b81811061032257506100ec565b5f8155600101610315565b909150819061030c565b634e487b7160e01b5f52604160045260245ffd5b015190505f806100b4565b601f198216905f8052805f20915f5b81811061039f57509583600195969710610387575b505050811b015f556100c8565b01515f1960f88460031b161c191690555f808061037a565b9192602060018192868b015181550194019201610365565b5f80525f80516020611161833981519152601f830160051c810191602084106103fc575b601f0160051c01905b8181106103f1575061009b565b5f81556001016103e4565b90915081906103db565b5f80fd5b601f909101601f19168101906001600160401b0382119082101761033757604052565b81601f82011215610406578051906001600160401b0382116103375760405192610461601f8401601f19166020018561040a565b8284526020838301011161040657815f9260208093018386015e8301015290565b90600182811c921680156104b0575b602083101461049c57565b634e487b7160e01b5f52602260045260245ffd5b91607f169161049156fe60806040526004361015610011575f80fd5b5f3560e01c806306fdde0314610905578063095ea7b31461088057806318160ddd1461086357806323b872dd1461075d578063313ce567146107205780633644e515146106fe57806340c10f191461064d57806370a08231146106085780637ecebe00146105c357806395d89b41146104cb5780639dc29fac1461044a578063a9059cbb146103b4578063d505accf146101255763dd62ed3e146100b3575f80fd5b34610121576040600319360112610121576100cc610aae565b73ffffffffffffffffffffffffffffffffffffffff6100e9610ad1565b91165f52600460205273ffffffffffffffffffffffffffffffffffffffff60405f2091165f52602052602060405f2054604051908152f35b5f80fd5b346101215760e06003193601126101215761013e610aae565b610146610ad1565b6044356064359260843560ff8116809103610121574285106103565760805f9160209373ffffffffffffffffffffffffffffffffffffffff610186610b01565b91169687855260058652604085209889549960018b0190556040519073ffffffffffffffffffffffffffffffffffffffff888301937f6e71edae12b1b97f4d1f60370fef10105fa2faae0126114a169c64845d6126c985528b6040850152169a8b6060840152898784015260a083015260c082015260c0815261020a60e0826109f8565b51902060405190868201927f1901000000000000000000000000000000000000000000000000000000000000845260228301526042820152604281526102516062826109f8565b519020906040519182528482015260a435604082015260c435606082015282805260015afa1561034b5773ffffffffffffffffffffffffffffffffffffffff5f511680151580610342575b156102e4577f8c5be1e5ebec7d5bd14f71427d1e84f3dd0314c0f7b2291e5b200ac8c7c3b925916020915f526004825260405f20855f5282528060405f2055604051908152a3005b60646040517f08c379a000000000000000000000000000000000000000000000000000000000815260206004820152600e60248201527f494e56414c49445f5349474e45520000000000000000000000000000000000006044820152fd5b5082811461029c565b6040513d5f823e3d90fd5b60646040517f08c379a000000000000000000000000000000000000000000000000000000000815260206004820152601760248201527f5045524d49545f444541444c494e455f455850495245440000000000000000006044820152fd5b34610121576040600319360112610121576103cd610aae565b73ffffffffffffffffffffffffffffffffffffffff60243591335f52600360205260405f206103fd848254610af4565b90551690815f52600360205260405f208181540190556040519081527fddf252ad1be2c89b69c2b068fc378daa952ba7f163c4a11628f55a4df523b3ef60203392a3602060405160018152f35b34610121576040600319360112610121575f610464610aae565b7fddf252ad1be2c89b69c2b068fc378daa952ba7f163c4a11628f55a4df523b3ef602073ffffffffffffffffffffffffffffffffffffffff60243593169283855260038252604085206104b8828254610af4565b90558060025403600255604051908152a3005b34610121575f600319360112610121576040515f6001546104eb816109a7565b80845290600181169081156105815750600114610523575b61051f83610513818503826109f8565b60405191829182610a66565b0390f35b60015f9081527fb10e2d527612073b26eecdfd717e6a320cf44b4afac2b0732d9fcbe2b7fa0cf6939250905b80821061056757509091508101602001610513610503565b91926001816020925483858801015201910190929161054f565b7fffffffffffffffffffffffffffffffffffffffffffffffffffffffffffffff001660208086019190915291151560051b840190910191506105139050610503565b346101215760206003193601126101215773ffffffffffffffffffffffffffffffffffffffff6105f1610aae565b165f526005602052602060405f2054604051908152f35b346101215760206003193601126101215773ffffffffffffffffffffffffffffffffffffffff610636610aae565b165f526003602052602060405f2054604051908152f35b3461012157604060031936011261012157610666610aae565b602435906002548281018091116106d157602073ffffffffffffffffffffffffffffffffffffffff5f937fddf252ad1be2c89b69c2b068fc378daa952ba7f163c4a11628f55a4df523b3ef9360025516938484526003825260408420818154019055604051908152a3005b7f4e487b71000000000000000000000000000000000000000000000000000000005f52601160045260245ffd5b34610121575f600319360112610121576020610718610b01565b604051908152f35b34610121575f60031936011261012157602060405160ff7f0000000000000000000000000000000000000000000000000000000000000000168152f35b3461012157606060031936011261012157610776610aae565b61077e610ad1565b7fddf252ad1be2c89b69c2b068fc378daa952ba7f163c4a11628f55a4df523b3ef602073ffffffffffffffffffffffffffffffffffffffff80604435951693845f526004835260405f208233165f52835260405f2054867fffffffffffffffffffffffffffffffffffffffffffffffffffffffffffffffff820361083c575b5050845f526003835260405f20610815878254610af4565b90551693845f526003825260405f20818154019055604051908152a3602060405160018152f35b61084591610af4565b855f526004845260405f208333165f52845260405f205586866107fd565b34610121575f600319360112610121576020600254604051908152f35b3461012157604060031936011261012157610899610aae565b73ffffffffffffffffffffffffffffffffffffffff60243591335f52600460205260405f208282165f526020528260405f205560405192835216907f8c5be1e5ebec7d5bd14f71427d1e84f3dd0314c0f7b2291e5b200ac8c7c3b92560203392a3602060405160018152f35b34610121575f600319360112610121576040515f8054610924816109a7565b8084529060018116908115610581575060011461094b5761051f83610513818503826109f8565b5f8080527f290decd9548b62a8d60345a988386fc84ba6bc95484008f6362f93160ef3e563939250905b80821061098d57509091508101602001610513610503565b919260018160209254838588010152019101909291610975565b90600182811c921680156109ee575b60208310146109c157565b7f4e487b71000000000000000000000000000000000000000000000000000000005f52602260045260245ffd5b91607f16916109b6565b90601f7fffffffffffffffffffffffffffffffffffffffffffffffffffffffffffffffe0910116810190811067ffffffffffffffff821117610a3957604052565b7f4e487b71000000000000000000000000000000000000000000000000000000005f52604160045260245ffd5b7fffffffffffffffffffffffffffffffffffffffffffffffffffffffffffffffe0601f602060409481855280519182918282880152018686015e5f8582860101520116010190565b6004359073ffffffffffffffffffffffffffffffffffffffff8216820361012157565b6024359073ffffffffffffffffffffffffffffffffffffffff8216820361012157565b919082039182116106d157565b467f000000000000000000000000000000000000000000000000000000000000000003610b4c577f000000000000000000000000000000000000000000000000000000000000000090565b6040515f905f549181610b5e846109a7565b9182825260208201946001811690815f14610c5f5750600114610c02575b610b88925003826109f8565b51902060405160208101917f8b73c3c69bb8fe3d512ecc4cf759cc79239f7b179b0ffacaa9a75d522b39400f835260408201527fc89efdaa54c0f20c7adf612882df0950f5a951637e0307cdcb4c672f298b8bc660608201524660808201523060a082015260a08152610bfc60c0826109f8565b51902090565b505f80805290917f290decd9548b62a8d60345a988386fc84ba6bc95484008f6362f93160ef3e5635b818310610c43575050906020610b8892820101610b7c565b6020919350806001915483858801015201910190918392610c2b565b7fffffffffffffffffffffffffffffffffffffffffffffffffffffffffffffff0016865250610b8892151560051b82016020019050610b7c56fea164736f6c634300081a000a290decd9548b62a8d60345a988386fc84ba6bc95484008f6362f93160ef3e563000000000000000000000000000000000000000000000000000000000000006000000000000000000000000000000000000000000000000000000000000000a00000000000000000000000000000000000000000000000000000000000000012000000000000000000000000000000000000000000000000000000000000000c5465737420546f6b656e2030000000000000000000000000000000000000000000000000000000000000000000000000000000000000000000000000000000055445535430000000000000000000000000000000000000000000000000000000",
        "nonce": "0x1c9",
        "chainId": "0x14a34"
      },
      "additionalContracts": [],
      "isFixedGasLimit": false
    },
    {
      "hash": "0x0d3cd4ded36df7b254649b41b11007f45e6f8dd6f03a146c36ddd8e89bd6c123",
      "transactionType": "CREATE",
      "contractName": "MockERC20",
      "contractAddress": "0xea79f41572c1517a969cf159fbd5f134e1283571",
      "function": null,
      "arguments": [
        "Test Token 1",
        "TEST1",
        "18"
      ],
      "transaction": {
        "from": "0x07425a37236a384917015f4f3e570250b9b23223",
        "gas": "0x103731",
        "value": "0x0",
        "input": "0x60e0806040523461040657611181803803809161001c828561040a565b83398101906060818303126104065780516001600160401b038111610406578261004791830161042d565b60208201519092906001600160401b0381116104065760409161006b91840161042d565b91015160ff811681036104065782516001600160401b038111610337576100925f54610482565b601f81116103b7575b506020601f821160011461035657819293945f9261034b575b50508160011b915f199060031b1c1916175f555b81516001600160401b038111610337576100e3600154610482565b601f81116102d4575b50602092601f821160011461027357928192935f92610268575b50508160011b915f199060031b1c1916176001555b6080524660a0526040515f905f54918161013484610482565b9182825260208201946001811690815f1461024c5750600114610202575b61015e9250038261040a565b51902060405160208101917f8b73c3c69bb8fe3d512ecc4cf759cc79239f7b179b0ffacaa9a75d522b39400f835260408201527fc89efdaa54c0f20c7adf612882df0950f5a951637e0307cdcb4c672f298b8bc660608201524660808201523060a082015260a081526101d260c08261040a565b51902060c052604051610ca690816104bb823960805181610739015260a05181610b04015260c05181610b2a0152f35b505f80805290915f805160206111618339815191525b81831061023057505090602061015e92820101610152565b6020919350806001915483858801015201910190918392610218565b60ff191686525061015e92151560051b82016020019050610152565b015190505f80610106565b601f1982169360015f52805f20915f5b8681106102bc57508360019596106102a4575b505050811b0160015561011b565b01515f1960f88460031b161c191690555f8080610296565b91926020600181928685015181550194019201610283565b60015f527fb10e2d527612073b26eecdfd717e6a320cf44b4afac2b0732d9fcbe2b7fa0cf6601f830160051c8101916020841061032d575b601f0160051c01905b81811061032257506100ec565b5f8155600101610315565b909150819061030c565b634e487b7160e01b5f52604160045260245ffd5b015190505f806100b4565b601f198216905f8052805f20915f5b81811061039f57509583600195969710610387575b505050811b015f556100c8565b01515f1960f88460031b161c191690555f808061037a565b9192602060018192868b015181550194019201610365565b5f80525f80516020611161833981519152601f830160051c810191602084106103fc575b601f0160051c01905b8181106103f1575061009b565b5f81556001016103e4565b90915081906103db565b5f80fd5b601f909101601f19168101906001600160401b0382119082101761033757604052565b81601f82011215610406578051906001600160401b0382116103375760405192610461601f8401601f19166020018561040a565b8284526020838301011161040657815f9260208093018386015e8301015290565b90600182811c921680156104b0575b602083101461049c57565b634e487b7160e01b5f52602260045260245ffd5b91607f169161049156fe60806040526004361015610011575f80fd5b5f3560e01c806306fdde0314610905578063095ea7b31461088057806318160ddd1461086357806323b872dd1461075d578063313ce567146107205780633644e515146106fe57806340c10f191461064d57806370a08231146106085780637ecebe00146105c357806395d89b41146104cb5780639dc29fac1461044a578063a9059cbb146103b4578063d505accf146101255763dd62ed3e146100b3575f80fd5b34610121576040600319360112610121576100cc610aae565b73ffffffffffffffffffffffffffffffffffffffff6100e9610ad1565b91165f52600460205273ffffffffffffffffffffffffffffffffffffffff60405f2091165f52602052602060405f2054604051908152f35b5f80fd5b346101215760e06003193601126101215761013e610aae565b610146610ad1565b6044356064359260843560ff8116809103610121574285106103565760805f9160209373ffffffffffffffffffffffffffffffffffffffff610186610b01565b91169687855260058652604085209889549960018b0190556040519073ffffffffffffffffffffffffffffffffffffffff888301937f6e71edae12b1b97f4d1f60370fef10105fa2faae0126114a169c64845d6126c985528b6040850152169a8b6060840152898784015260a083015260c082015260c0815261020a60e0826109f8565b51902060405190868201927f1901000000000000000000000000000000000000000000000000000000000000845260228301526042820152604281526102516062826109f8565b519020906040519182528482015260a435604082015260c435606082015282805260015afa1561034b5773ffffffffffffffffffffffffffffffffffffffff5f511680151580610342575b156102e4577f8c5be1e5ebec7d5bd14f71427d1e84f3dd0314c0f7b2291e5b200ac8c7c3b925916020915f526004825260405f20855f5282528060405f2055604051908152a3005b60646040517f08c379a000000000000000000000000000000000000000000000000000000000815260206004820152600e60248201527f494e56414c49445f5349474e45520000000000000000000000000000000000006044820152fd5b5082811461029c565b6040513d5f823e3d90fd5b60646040517f08c379a000000000000000000000000000000000000000000000000000000000815260206004820152601760248201527f5045524d49545f444541444c494e455f455850495245440000000000000000006044820152fd5b34610121576040600319360112610121576103cd610aae565b73ffffffffffffffffffffffffffffffffffffffff60243591335f52600360205260405f206103fd848254610af4565b90551690815f52600360205260405f208181540190556040519081527fddf252ad1be2c89b69c2b068fc378daa952ba7f163c4a11628f55a4df523b3ef60203392a3602060405160018152f35b34610121576040600319360112610121575f610464610aae565b7fddf252ad1be2c89b69c2b068fc378daa952ba7f163c4a11628f55a4df523b3ef602073ffffffffffffffffffffffffffffffffffffffff60243593169283855260038252604085206104b8828254610af4565b90558060025403600255604051908152a3005b34610121575f600319360112610121576040515f6001546104eb816109a7565b80845290600181169081156105815750600114610523575b61051f83610513818503826109f8565b60405191829182610a66565b0390f35b60015f9081527fb10e2d527612073b26eecdfd717e6a320cf44b4afac2b0732d9fcbe2b7fa0cf6939250905b80821061056757509091508101602001610513610503565b91926001816020925483858801015201910190929161054f565b7fffffffffffffffffffffffffffffffffffffffffffffffffffffffffffffff001660208086019190915291151560051b840190910191506105139050610503565b346101215760206003193601126101215773ffffffffffffffffffffffffffffffffffffffff6105f1610aae565b165f526005602052602060405f2054604051908152f35b346101215760206003193601126101215773ffffffffffffffffffffffffffffffffffffffff610636610aae565b165f526003602052602060405f2054604051908152f35b3461012157604060031936011261012157610666610aae565b602435906002548281018091116106d157602073ffffffffffffffffffffffffffffffffffffffff5f937fddf252ad1be2c89b69c2b068fc378daa952ba7f163c4a11628f55a4df523b3ef9360025516938484526003825260408420818154019055604051908152a3005b7f4e487b71000000000000000000000000000000000000000000000000000000005f52601160045260245ffd5b34610121575f600319360112610121576020610718610b01565b604051908152f35b34610121575f60031936011261012157602060405160ff7f0000000000000000000000000000000000000000000000000000000000000000168152f35b3461012157606060031936011261012157610776610aae565b61077e610ad1565b7fddf252ad1be2c89b69c2b068fc378daa952ba7f163c4a11628f55a4df523b3ef602073ffffffffffffffffffffffffffffffffffffffff80604435951693845f526004835260405f208233165f52835260405f2054867fffffffffffffffffffffffffffffffffffffffffffffffffffffffffffffffff820361083c575b5050845f526003835260405f20610815878254610af4565b90551693845f526003825260405f20818154019055604051908152a3602060405160018152f35b61084591610af4565b855f526004845260405f208333165f52845260405f205586866107fd565b34610121575f600319360112610121576020600254604051908152f35b3461012157604060031936011261012157610899610aae565b73ffffffffffffffffffffffffffffffffffffffff60243591335f52600460205260405f208282165f526020528260405f205560405192835216907f8c5be1e5ebec7d5bd14f71427d1e84f3dd0314c0f7b2291e5b200ac8c7c3b92560203392a3602060405160018152f35b34610121575f600319360112610121576040515f8054610924816109a7565b8084529060018116908115610581575060011461094b5761051f83610513818503826109f8565b5f8080527f290decd9548b62a8d60345a988386fc84ba6bc95484008f6362f93160ef3e563939250905b80821061098d57509091508101602001610513610503565b919260018160209254838588010152019101909291610975565b90600182811c921680156109ee575b60208310146109c157565b7f4e487b71000000000000000000000000000000000000000000000000000000005f52602260045260245ffd5b91607f16916109b6565b90601f7fffffffffffffffffffffffffffffffffffffffffffffffffffffffffffffffe0910116810190811067ffffffffffffffff821117610a3957604052565b7f4e487b71000000000000000000000000000000000000000000000000000000005f52604160045260245ffd5b7fffffffffffffffffffffffffffffffffffffffffffffffffffffffffffffffe0601f602060409481855280519182918282880152018686015e5f8582860101520116010190565b6004359073ffffffffffffffffffffffffffffffffffffffff8216820361012157565b6024359073ffffffffffffffffffffffffffffffffffffffff8216820361012157565b919082039182116106d157565b467f000000000000000000000000000000000000000000000000000000000000000003610b4c577f000000000000000000000000000000000000000000000000000000000000000090565b6040515f905f549181610b5e846109a7565b9182825260208201946001811690815f14610c5f5750600114610c02575b610b88925003826109f8565b51902060405160208101917f8b73c3c69bb8fe3d512ecc4cf759cc79239f7b179b0ffacaa9a75d522b39400f835260408201527fc89efdaa54c0f20c7adf612882df0950f5a951637e0307cdcb4c672f298b8bc660608201524660808201523060a082015260a08152610bfc60c0826109f8565b51902090565b505f80805290917f290decd9548b62a8d60345a988386fc84ba6bc95484008f6362f93160ef3e5635b818310610c43575050906020610b8892820101610b7c565b6020919350806001915483858801015201910190918392610c2b565b7fffffffffffffffffffffffffffffffffffffffffffffffffffffffffffffff0016865250610b8892151560051b82016020019050610b7c56fea164736f6c634300081a000a290decd9548b62a8d60345a988386fc84ba6bc95484008f6362f93160ef3e563000000000000000000000000000000000000000000000000000000000000006000000000000000000000000000000000000000000000000000000000000000a00000000000000000000000000000000000000000000000000000000000000012000000000000000000000000000000000000000000000000000000000000000c5465737420546f6b656e2031000000000000000000000000000000000000000000000000000000000000000000000000000000000000000000000000000000055445535431000000000000000000000000000000000000000000000000000000",
        "nonce": "0x1ca",
        "chainId": "0x14a34"
      },
      "additionalContracts": [],
      "isFixedGasLimit": false
    },
    {
      "hash": "0x726a908520b38d3043ef2c87c97f6b01f19f938708820f8ccb41e18443878a9b",
      "transactionType": "CALL",
      "contractName": "MockERC20",
      "contractAddress": "0xd0cd1b2509975b5ed5b1e2c6d574751f952e1096",
      "function": "mint(address,uint256)",
      "arguments": [
        "0x5a8BD49cb9D90CC66d43c597A31837761BaC6b43",
        "10000000000000000000000"
      ],
      "transaction": {
        "from": "0x07425a37236a384917015f4f3e570250b9b23223",
        "to": "0xd0cd1b2509975b5ed5b1e2c6d574751f952e1096",
        "gas": "0x16f67",
        "value": "0x0",
        "input": "0x40c10f190000000000000000000000005a8bd49cb9d90cc66d43c597a31837761bac6b4300000000000000000000000000000000000000000000021e19e0c9bab2400000",
        "nonce": "0x1cb",
        "chainId": "0x14a34"
      },
      "additionalContracts": [],
      "isFixedGasLimit": false
    },
    {
      "hash": "0x9c76f015bdc189f319ecc00fd633a32c0ed22556144f9506b1e0803779066e00",
      "transactionType": "CALL",
      "contractName": "MockERC20",
      "contractAddress": "0xea79f41572c1517a969cf159fbd5f134e1283571",
      "function": "mint(address,uint256)",
      "arguments": [
        "0x5a8BD49cb9D90CC66d43c597A31837761BaC6b43",
        "10000000000000000000000"
      ],
      "transaction": {
        "from": "0x07425a37236a384917015f4f3e570250b9b23223",
        "to": "0xea79f41572c1517a969cf159fbd5f134e1283571",
        "gas": "0x16f67",
        "value": "0x0",
        "input": "0x40c10f190000000000000000000000005a8bd49cb9d90cc66d43c597a31837761bac6b4300000000000000000000000000000000000000000000021e19e0c9bab2400000",
        "nonce": "0x1cc",
        "chainId": "0x14a34"
      },
      "additionalContracts": [],
      "isFixedGasLimit": false
    },
    {
      "hash": "0xc3da385a5548cf90f9ddd6ea396fadd7b6e701dbdb26d83b13488d693799d5f6",
      "transactionType": "CREATE2",
      "contractName": "Counter",
      "contractAddress": "0x3df218646c57717f595bff92a5edaf8344c68ac0",
      "function": null,
      "arguments": [
        "0x05E73354cFDd6745C338b50BcFDfA3Aa6fA03408"
      ],
      "transaction": {
        "from": "0x07425a37236a384917015f4f3e570250b9b23223",
        "to": "0x4e59b44847b379578588920ca78fbf26c0b4956c",
        "gas": "0xfe916",
        "value": "0x0",
        "input": "0x000000000000000000000000000000000000000000000000000000000002089d60a06040523461028a57604051601f610f4938819003918201601f19168301916001600160401b0383118484101761028e5780849260209460405283398101031261028a57516001600160a01b038116810361028a576080525f6101a06100646102a2565b8281528260208201528260408201528260608201528260808201528260a08201528260c08201528260e0820152826101008201528261012082015282610140820152826101608201528261018082015201525f6101a06100c26102a2565b82815282602082015260016040820152826060820152600160808201528260a0820152600160c0820152600160e08201528261010082015282610120820152826101408201528261016082015282610180820152015261200030161580159061027d575b801561026c575b801561025f575b801561024e575b8015610241575b8015610231575b8015610221575b8015610215575b8015610209575b80156101fd575b80156101f1575b80156101e5575b80156101d9575b6101c657604051610c8690816102c3823960805181818160f4015281816101b40152818161022e015281816104bb0152818161055f015281816106990152818161074101526107e00152f35b630732d7b560e51b5f523060045260245ffd5b5060013016151561017a565b50600230161515610173565b5060043016151561016c565b50600830161515610165565b5060103016151561015e565b50602030161515610157565b5060403016151560011415610150565b5060803016151560011415610149565b5061010030161515610142565b50610200301615156001141561013b565b5061040030161515610134565b50610800301615156001141561012d565b5061100030161515610126565b5f80fd5b634e487b7160e01b5f52604160045260245ffd5b604051906101c082016001600160401b0381118382101761028e5760405256fe60806040526004361015610011575f80fd5b5f3560e01c806321d0ee70146107b6578063259982e514610717578063575e24b41461060e5780635c338d32146105e55780636c2bbe7e146105335780636fe7e6eb146105ad5780639f063efc14610533578063b47b2fb114610430578063b6a8b0fa146100c9578063c4e833ce146102d0578063c6939957146102a6578063dacdbe771461027c578063db6a945114610252578063dc4c90d314610202578063dc98354e1461016e5763e1b4af69146100c9575f80fd5b3461016a576100d736610a1e565b50505050505073ffffffffffffffffffffffffffffffffffffffff7f0000000000000000000000000000000000000000000000000000000000000000163303610142577f0a85dc29000000000000000000000000000000000000000000000000000000005f5260045ffd5b7fae18210a000000000000000000000000000000000000000000000000000000005f5260045ffd5b5f80fd5b3461016a5760e060031936011261016a57610187610855565b5060a060231936011261016a5761019c6109eb565b5073ffffffffffffffffffffffffffffffffffffffff7f0000000000000000000000000000000000000000000000000000000000000000163303610142577f0a85dc29000000000000000000000000000000000000000000000000000000005f5260045ffd5b3461016a575f60031936011261016a57602060405173ffffffffffffffffffffffffffffffffffffffff7f0000000000000000000000000000000000000000000000000000000000000000168152f35b3461016a57602060031936011261016a576004355f526003602052602060405f2054604051908152f35b3461016a57602060031936011261016a576004355f526001602052602060405f2054604051908152f35b3461016a57602060031936011261016a576004355f526002602052602060405f2054604051908152f35b3461016a575f60031936011261016a575f6101a06102ec610a83565b8281528260208201528260408201528260608201528260808201528260a08201528260c08201528260e0820152826101008201528261012082015282610140820152826101608201528261018082015201526101c0602061034b610a83565b5f8152818101905f82526040810160018152606082015f8152608083016001815260a084015f815260c085016001815260e0860190600182526101008701925f84526101208801945f86526101408901965f88526101608a01985f8a526101a06101808c019b5f8d52019b5f8d526040519d8e915f835251151591015251151560408d015251151560608c015251151560808b015251151560a08a015251151560c089015251151560e08801525115156101008701525115156101208601525115156101408501525115156101608401525115156101808301525115156101a0820152f35b3461016a5761016060031936011261016a5761044a610855565b5060a060231936011261016a5760607fffffffffffffffffffffffffffffffffffffffffffffffffffffffffffffff3c36011261016a576101443567ffffffffffffffff811161016a576104a2903690600401610899565b505073ffffffffffffffffffffffffffffffffffffffff7f00000000000000000000000000000000000000000000000000000000000000001633036101425760a06104ec36610af1565b205f52600160205260405f206105028154610c1f565b9055604080517fb47b2fb10000000000000000000000000000000000000000000000000000000081525f6020820152f35b3461016a5761054136610956565b5050505050505073ffffffffffffffffffffffffffffffffffffffff7f0000000000000000000000000000000000000000000000000000000000000000163303610142577f0a85dc29000000000000000000000000000000000000000000000000000000005f5260045ffd5b3461016a5761010060031936011261016a576105c7610855565b5060a060231936011261016a576105dc6109eb565b5061019c610a0e565b3461016a57602060031936011261016a576004355f525f602052602060405f2054604051908152f35b3461016a5761014060031936011261016a57610628610855565b5060a060231936011261016a5760607fffffffffffffffffffffffffffffffffffffffffffffffffffffffffffffff3c36011261016a576101243567ffffffffffffffff811161016a57610680903690600401610899565b505073ffffffffffffffffffffffffffffffffffffffff7f00000000000000000000000000000000000000000000000000000000000000001633036101425760a06106ca36610af1565b205f525f60205260405f206106df8154610c1f565b905560606040517f575e24b40000000000000000000000000000000000000000000000000000000081525f60208201525f6040820152f35b3461016a57610725366108c7565b505050905073ffffffffffffffffffffffffffffffffffffffff7f00000000000000000000000000000000000000000000000000000000000000001633036101425761077460a0913690610b9a565b205f52600260205260405f2061078a8154610c1f565b905560206040517f259982e5000000000000000000000000000000000000000000000000000000008152f35b3461016a576107c4366108c7565b505050905073ffffffffffffffffffffffffffffffffffffffff7f00000000000000000000000000000000000000000000000000000000000000001633036101425761081360a0913690610b9a565b205f52600360205260405f206108298154610c1f565b905560206040517f21d0ee70000000000000000000000000000000000000000000000000000000008152f35b6004359073ffffffffffffffffffffffffffffffffffffffff8216820361016a57565b359073ffffffffffffffffffffffffffffffffffffffff8216820361016a57565b9181601f8401121561016a5782359167ffffffffffffffff831161016a576020838186019501011161016a57565b9061016060031983011261016a5760043573ffffffffffffffffffffffffffffffffffffffff8116810361016a579160a060231982011261016a5760249160807fffffffffffffffffffffffffffffffffffffffffffffffffffffffffffffff3c83011261016a5760c491610144359067ffffffffffffffff821161016a5761095291600401610899565b9091565b906101a060031983011261016a5760043573ffffffffffffffffffffffffffffffffffffffff8116810361016a579160a060231982011261016a5760249160807fffffffffffffffffffffffffffffffffffffffffffffffffffffffffffffff3c83011261016a5760c49161014435916101643591610184359067ffffffffffffffff821161016a5761095291600401610899565b60c4359073ffffffffffffffffffffffffffffffffffffffff8216820361016a57565b60e435908160020b820361016a57565b61012060031982011261016a5760043573ffffffffffffffffffffffffffffffffffffffff8116810361016a579160a060231983011261016a5760249160c4359160e43591610104359067ffffffffffffffff821161016a5761095291600401610899565b604051906101c0820182811067ffffffffffffffff821117610aa457604052565b7f4e487b71000000000000000000000000000000000000000000000000000000005f52604160045260245ffd5b6040519060a0820182811067ffffffffffffffff821117610aa457604052565b60231960a091011261016a57610b05610ad1565b9060243573ffffffffffffffffffffffffffffffffffffffff8116810361016a57825260443573ffffffffffffffffffffffffffffffffffffffff8116810361016a57602083015260643562ffffff8116810361016a5760408301526084358060020b810361016a57606083015260a43573ffffffffffffffffffffffffffffffffffffffff8116810361016a576080830152565b91908260a091031261016a57610bae610ad1565b91610bb881610878565b8352610bc660208201610878565b6020840152604081013562ffffff8116810361016a5760408401526060810135908160020b820361016a576080916060850152013573ffffffffffffffffffffffffffffffffffffffff8116810361016a576080830152565b7fffffffffffffffffffffffffffffffffffffffffffffffffffffffffffffffff8114610c4c5760010190565b7f4e487b71000000000000000000000000000000000000000000000000000000005f52601160045260245ffdfea164736f6c634300081a000a00000000000000000000000005e73354cfdd6745c338b50bcfdfa3aa6fa03408",
        "nonce": "0x1cd",
        "chainId": "0x14a34"
      },
      "additionalContracts": [],
      "isFixedGasLimit": false
    },
    {
      "hash": "0xe969312f85791dd4e23b16782fe749a53e65dc93021ae216d4c7b9fcb78de9b8",
      "transactionType": "CREATE",
      "contractName": "MockV3Aggregator",
      "contractAddress": "0xfda5b82a3a71f68f23c8d43966f9e70bf15b865b",
      "function": null,
      "arguments": [
        "8",
        "250000000000"
      ],
      "transaction": {
        "from": "0x07425a37236a384917015f4f3e570250b9b23223",
        "gas": "0xbe47f",
        "value": "0x0",
        "input": "0x60803461010757601f6107b138819003918201601f19168301916001600160401b0383118484101761010b5780849260409485528339810103126101075780519060ff821680920361010757602001515f805460ff1916909217909155600480546001600160a01b031916331790556001819055426002556003545f1981146100f357600101806003555f5260056020528060405f20556003545f5260066020524260405f20556003545f5260076020524260405f2055600354907f0559884fd3a460db3073b7fc896cc77986f16e378210ded43186175bf646fc5f6020604051428152a360405161069190816101208239f35b634e487b7160e01b5f52601160045260245ffd5b5f80fd5b634e487b7160e01b5f52604160045260245ffdfe6080806040526004361015610012575f80fd5b5f3560e01c908163313ce567146106685750806350d25bcd1461064b57806354fd4d5014610630578063668a0f02146106135780637284e416146105425780638205bf6a146105255780638da5cb5b146104f25780639a6fc8f514610470578063a87a20ce146103a7578063b5ab58dc1461037d578063b633620c14610353578063bac01e9c146101e2578063f2fde38b146101185763feaf968c146100b6575f80fd5b34610114575f600319360112610114576003546001545f8281526007602090815260409182902054600254835169ffffffffffffffffffff90961680875292860194909452918401919091526060830191909152608082015260a090f35b5f80fd5b346101145760206003193601126101145760043573ffffffffffffffffffffffffffffffffffffffff81168091036101145760045473ffffffffffffffffffffffffffffffffffffffff8116908133036101ba57827fffffffffffffffffffffffff0000000000000000000000000000000000000000927f8be0079c531659141344cd1fd0a4f28419497f9722a3daafe3b4186f6b6457e05f80a31617600455005b7f5fc483c5000000000000000000000000000000000000000000000000000000005f5260045ffd5b346101145760206003193601126101145760043567ffffffffffffffff811161011457366023820112156101145780600401359067ffffffffffffffff8211610114573660248360051b830101116101145773ffffffffffffffffffffffffffffffffffffffff6004541633036101ba575f5b828110156103515760248160051b830101359073ffffffffffffffffffffffffffffffffffffffff6004541633036101ba578160015542600255600354917fffffffffffffffffffffffffffffffffffffffffffffffffffffffffffffffff8314610324576001809301806003555f5260056020528060405f20556003545f5260066020524260405f20556003545f5260076020524260405f2055600354907f0559884fd3a460db3073b7fc896cc77986f16e378210ded43186175bf646fc5f6020604051428152a301610255565b7f4e487b71000000000000000000000000000000000000000000000000000000005f52601160045260245ffd5b005b34610114576020600319360112610114576004355f526006602052602060405f2054604051908152f35b34610114576020600319360112610114576004355f526005602052602060405f2054604051908152f35b346101145760206003193601126101145760043573ffffffffffffffffffffffffffffffffffffffff6004541633036101ba5780600155426002556003547fffffffffffffffffffffffffffffffffffffffffffffffffffffffffffffffff811461032457600101806003555f5260056020528060405f20556003545f5260066020524260405f20556003545f5260076020524260405f2055600354907f0559884fd3a460db3073b7fc896cc77986f16e378210ded43186175bf646fc5f6020604051428152a3005b346101145760206003193601126101145760043569ffffffffffffffffffff811690818103610114575f918252600560209081526040808420546007835281852054600684529482902054825169ffffffffffffffffffff9590951680865293850191909152908301939093526060820192909252608081019190915260a090f35b34610114575f60031936011261011457602073ffffffffffffffffffffffffffffffffffffffff60045416604051908152f35b34610114575f600319360112610114576020600254604051908152f35b34610114575f600319360112610114576040516040810181811067ffffffffffffffff8211176105e657604052601c8152604060208201917f4d6f636b563341676772656761746f72202d20455448202f205553440000000083527fffffffffffffffffffffffffffffffffffffffffffffffffffffffffffffffe0601f8351948593602085525180918160208701528686015e5f85828601015201168101030190f35b7f4e487b71000000000000000000000000000000000000000000000000000000005f52604160045260245ffd5b34610114575f600319360112610114576020600354604051908152f35b34610114575f60031936011261011457602060405160048152f35b34610114575f600319360112610114576020600154604051908152f35b34610114575f6003193601126101145760209060ff5f54168152f3fea164736f6c634300081a000a00000000000000000000000000000000000000000000000000000000000000080000000000000000000000000000000000000000000000000000003a35294400",
        "nonce": "0x1ce",
        "chainId": "0x14a34"
      },
      "additionalContracts": [],
      "isFixedGasLimit": false
    },
    {
      "hash": "0xb4c8433d57531b40f6573e707ca8bd75db91bab6597c98f1c3feea5d8badfe6b",
      "transactionType": "CALL",
      "contractName": null,
      "contractAddress": "0x05e73354cfdd6745c338b50bcfdfa3aa6fa03408",
      "function": "initialize((address,address,uint24,int24,address),uint160)",
      "arguments": [
        "(0xD0cD1b2509975b5eD5B1e2C6d574751f952e1096, 0xEA79F41572c1517a969cF159fbd5F134e1283571, 3000, 60, 0x3dF218646c57717F595bfF92A5edaf8344C68AC0)",
        "3960542286683080847829248659053"
      ],
      "transaction": {
        "from": "0x07425a37236a384917015f4f3e570250b9b23223",
        "to": "0x05e73354cfdd6745c338b50bcfdfa3aa6fa03408",
        "gas": "0x12995",
        "value": "0x0",
        "input": "0x6276cbbe000000000000000000000000d0cd1b2509975b5ed5b1e2c6d574751f952e1096000000000000000000000000ea79f41572c1517a969cf159fbd5f134e12835710000000000000000000000000000000000000000000000000000000000000bb8000000000000000000000000000000000000000000000000000000000000003c0000000000000000000000003df218646c57717f595bff92a5edaf8344c68ac00000000000000000000000000000000000000031fd33cb74200c5c4a0bc64e6d",
        "nonce": "0x1cf",
        "chainId": "0x14a34"
      },
      "additionalContracts": [],
      "isFixedGasLimit": false
    },
    {
      "hash": "0x5008c6567ceb672de4c5d0bdc98c4f61d68c21942f8e3a20c9fe8cf3146b9ac3",
      "transactionType": "CALL",
      "contractName": "MockERC20",
      "contractAddress": "0xd0cd1b2509975b5ed5b1e2c6d574751f952e1096",
      "function": "approve(address,uint256)",
      "arguments": [
        "0x000000000022D473030F116dDEE9F6B43aC78BA3",
        "115792089237316195423570985008687907853269984665640564039457584007913129639935"
      ],
      "transaction": {
        "from": "0x5a8bd49cb9d90cc66d43c597a31837761bac6b43",
        "to": "0xd0cd1b2509975b5ed5b1e2c6d574751f952e1096",
        "gas": "0x107a0",
        "value": "0x0",
        "input": "0x095ea7b3000000000000000000000000000000000022d473030f116ddee9f6b43ac78ba3ffffffffffffffffffffffffffffffffffffffffffffffffffffffffffffffff",
        "nonce": "0xcf",
        "chainId": "0x14a34"
      },
      "additionalContracts": [],
      "isFixedGasLimit": false
    },
    {
      "hash": "0x98614de4ffa53f5d950c98f9804c200f4c242d4fc8241fc11139b70d11bf8dae",
      "transactionType": "CALL",
      "contractName": "MockERC20",
      "contractAddress": "0xea79f41572c1517a969cf159fbd5f134e1283571",
      "function": "approve(address,uint256)",
      "arguments": [
        "0x000000000022D473030F116dDEE9F6B43aC78BA3",
        "115792089237316195423570985008687907853269984665640564039457584007913129639935"
      ],
      "transaction": {
        "from": "0x5a8bd49cb9d90cc66d43c597a31837761bac6b43",
        "to": "0xea79f41572c1517a969cf159fbd5f134e1283571",
        "gas": "0x107a0",
        "value": "0x0",
        "input": "0x095ea7b3000000000000000000000000000000000022d473030f116ddee9f6b43ac78ba3ffffffffffffffffffffffffffffffffffffffffffffffffffffffffffffffff",
        "nonce": "0xd0",
        "chainId": "0x14a34"
      },
      "additionalContracts": [],
      "isFixedGasLimit": false
    },
    {
      "hash": "0xebf753b93dce7bcb460de202fbc09b5c958454e4a1df9f0bcc3186f938cf653d",
      "transactionType": "CALL",
      "contractName": "MockERC20",
      "contractAddress": "0xd0cd1b2509975b5ed5b1e2c6d574751f952e1096",
      "function": "approve(address,uint256)",
      "arguments": [
        "0x4B2C77d209D3405F41a037Ec6c77F7F5b8e2ca80",
        "115792089237316195423570985008687907853269984665640564039457584007913129639935"
      ],
      "transaction": {
        "from": "0x5a8bd49cb9d90cc66d43c597a31837761bac6b43",
        "to": "0xd0cd1b2509975b5ed5b1e2c6d574751f952e1096",
        "gas": "0xf94c",
        "value": "0x0",
        "input": "0x095ea7b30000000000000000000000004b2c77d209d3405f41a037ec6c77f7f5b8e2ca80ffffffffffffffffffffffffffffffffffffffffffffffffffffffffffffffff",
        "nonce": "0xd1",
        "chainId": "0x14a34"
      },
      "additionalContracts": [],
      "isFixedGasLimit": false
    },
    {
      "hash": "0x283a61bb1f3335817841399e9532d1eabac2f639887370f5b62ef70a8ab1bedb",
      "transactionType": "CALL",
      "contractName": "MockERC20",
      "contractAddress": "0xea79f41572c1517a969cf159fbd5f134e1283571",
      "function": "approve(address,uint256)",
      "arguments": [
        "0x4B2C77d209D3405F41a037Ec6c77F7F5b8e2ca80",
        "115792089237316195423570985008687907853269984665640564039457584007913129639935"
      ],
      "transaction": {
        "from": "0x5a8bd49cb9d90cc66d43c597a31837761bac6b43",
        "to": "0xea79f41572c1517a969cf159fbd5f134e1283571",
        "gas": "0xf94c",
        "value": "0x0",
        "input": "0x095ea7b30000000000000000000000004b2c77d209d3405f41a037ec6c77f7f5b8e2ca80ffffffffffffffffffffffffffffffffffffffffffffffffffffffffffffffff",
        "nonce": "0xd2",
        "chainId": "0x14a34"
      },
      "additionalContracts": [],
      "isFixedGasLimit": false
    },
    {
      "hash": "0x9bba041904729490ce506e202ba823175a7a8f5d66b382498a32707b30456005",
      "transactionType": "CALL",
      "contractName": "MockERC20",
      "contractAddress": "0xd0cd1b2509975b5ed5b1e2c6d574751f952e1096",
      "function": "approve(address,uint256)",
      "arguments": [
        "0x71cD4Ea054F9Cb3D3BF6251A00673303411A7DD9",
        "115792089237316195423570985008687907853269984665640564039457584007913129639935"
      ],
      "transaction": {
        "from": "0x5a8bd49cb9d90cc66d43c597a31837761bac6b43",
        "to": "0xd0cd1b2509975b5ed5b1e2c6d574751f952e1096",
        "gas": "0x107e6",
        "value": "0x0",
        "input": "0x095ea7b300000000000000000000000071cd4ea054f9cb3d3bf6251a00673303411a7dd9ffffffffffffffffffffffffffffffffffffffffffffffffffffffffffffffff",
        "nonce": "0xd3",
        "chainId": "0x14a34"
      },
      "additionalContracts": [],
      "isFixedGasLimit": false
    },
    {
      "hash": "0xf54025b4779b8911dc0892c601660dcd9ab424d171a9869ffb62cac2676c0484",
      "transactionType": "CALL",
      "contractName": "MockERC20",
      "contractAddress": "0xea79f41572c1517a969cf159fbd5f134e1283571",
      "function": "approve(address,uint256)",
      "arguments": [
        "0x71cD4Ea054F9Cb3D3BF6251A00673303411A7DD9",
        "115792089237316195423570985008687907853269984665640564039457584007913129639935"
      ],
      "transaction": {
        "from": "0x5a8bd49cb9d90cc66d43c597a31837761bac6b43",
        "to": "0xea79f41572c1517a969cf159fbd5f134e1283571",
        "gas": "0x107e6",
        "value": "0x0",
        "input": "0x095ea7b300000000000000000000000071cd4ea054f9cb3d3bf6251a00673303411a7dd9ffffffffffffffffffffffffffffffffffffffffffffffffffffffffffffffff",
        "nonce": "0xd4",
        "chainId": "0x14a34"
      },
      "additionalContracts": [],
      "isFixedGasLimit": false
    },
    {
      "hash": "0x02c732a6c7f708c62ab5dc075646edde325785c9678c75d608915cf5e6aec2a6",
      "transactionType": "CALL",
      "contractName": null,
      "contractAddress": "0x000000000022d473030f116ddee9f6b43ac78ba3",
      "function": "approve(address,address,uint160,uint48)",
      "arguments": [
        "0xD0cD1b2509975b5eD5B1e2C6d574751f952e1096",
        "0x4B2C77d209D3405F41a037Ec6c77F7F5b8e2ca80",
        "1461501637330902918203684832716283019655932542975",
        "281474976710655"
      ],
      "transaction": {
        "from": "0x5a8bd49cb9d90cc66d43c597a31837761bac6b43",
        "to": "0x000000000022d473030f116ddee9f6b43ac78ba3",
        "gas": "0x1112d",
        "value": "0x0",
        "input": "0x87517c45000000000000000000000000d0cd1b2509975b5ed5b1e2c6d574751f952e10960000000000000000000000004b2c77d209d3405f41a037ec6c77f7f5b8e2ca80000000000000000000000000ffffffffffffffffffffffffffffffffffffffff0000000000000000000000000000000000000000000000000000ffffffffffff",
        "nonce": "0xd5",
        "chainId": "0x14a34"
      },
      "additionalContracts": [],
      "isFixedGasLimit": false
    },
    {
      "hash": "0xf12084e6b5891f7ed38339171b0d627cd0ffc53eaa681e890b14e5cb69718dba",
      "transactionType": "CALL",
      "contractName": null,
      "contractAddress": "0x000000000022d473030f116ddee9f6b43ac78ba3",
      "function": "approve(address,address,uint160,uint48)",
      "arguments": [
        "0xEA79F41572c1517a969cF159fbd5F134e1283571",
        "0x4B2C77d209D3405F41a037Ec6c77F7F5b8e2ca80",
        "1461501637330902918203684832716283019655932542975",
        "281474976710655"
      ],
      "transaction": {
        "from": "0x5a8bd49cb9d90cc66d43c597a31837761bac6b43",
        "to": "0x000000000022d473030f116ddee9f6b43ac78ba3",
        "gas": "0x1112d",
        "value": "0x0",
        "input": "0x87517c45000000000000000000000000ea79f41572c1517a969cf159fbd5f134e12835710000000000000000000000004b2c77d209d3405f41a037ec6c77f7f5b8e2ca80000000000000000000000000ffffffffffffffffffffffffffffffffffffffff0000000000000000000000000000000000000000000000000000ffffffffffff",
        "nonce": "0xd6",
        "chainId": "0x14a34"
      },
      "additionalContracts": [],
      "isFixedGasLimit": false
    },
    {
      "hash": "0x6644c5e27f39fc21f5f916eb66e9e636913f8c48852f06ced7c58d132357ce7d",
      "transactionType": "CALL",
      "contractName": null,
      "contractAddress": "0x000000000022d473030f116ddee9f6b43ac78ba3",
      "function": "approve(address,address,uint160,uint48)",
      "arguments": [
        "0xD0cD1b2509975b5eD5B1e2C6d574751f952e1096",
        "0x71cD4Ea054F9Cb3D3BF6251A00673303411A7DD9",
        "1461501637330902918203684832716283019655932542975",
        "281474976710655"
      ],
      "transaction": {
        "from": "0x5a8bd49cb9d90cc66d43c597a31837761bac6b43",
        "to": "0x000000000022d473030f116ddee9f6b43ac78ba3",
        "gas": "0x101ee",
        "value": "0x0",
        "input": "0x87517c45000000000000000000000000d0cd1b2509975b5ed5b1e2c6d574751f952e109600000000000000000000000071cd4ea054f9cb3d3bf6251a00673303411a7dd9000000000000000000000000ffffffffffffffffffffffffffffffffffffffff0000000000000000000000000000000000000000000000000000ffffffffffff",
        "nonce": "0xd7",
        "chainId": "0x14a34"
      },
      "additionalContracts": [],
      "isFixedGasLimit": false
    },
    {
      "hash": "0x04b7abf0409f7d67d233353e4d4557d2e84ecaefbfae14c2d99f95be97098422",
      "transactionType": "CALL",
      "contractName": null,
      "contractAddress": "0x000000000022d473030f116ddee9f6b43ac78ba3",
      "function": "approve(address,address,uint160,uint48)",
      "arguments": [
        "0xEA79F41572c1517a969cF159fbd5F134e1283571",
        "0x71cD4Ea054F9Cb3D3BF6251A00673303411A7DD9",
        "1461501637330902918203684832716283019655932542975",
        "281474976710655"
      ],
      "transaction": {
        "from": "0x5a8bd49cb9d90cc66d43c597a31837761bac6b43",
        "to": "0x000000000022d473030f116ddee9f6b43ac78ba3",
        "gas": "0x101ee",
        "value": "0x0",
        "input": "0x87517c45000000000000000000000000ea79f41572c1517a969cf159fbd5f134e128357100000000000000000000000071cd4ea054f9cb3d3bf6251a00673303411a7dd9000000000000000000000000ffffffffffffffffffffffffffffffffffffffff0000000000000000000000000000000000000000000000000000ffffffffffff",
        "nonce": "0xd8",
        "chainId": "0x14a34"
      },
      "additionalContracts": [],
      "isFixedGasLimit": false
    },
    {
      "hash": "0xbfe96ce8101d1084fa0ce19dcc124d45ae2d290f269c88c7dca6c242cea8be3b",
      "transactionType": "CALL",
      "contractName": null,
      "contractAddress": "0x4b2c77d209d3405f41a037ec6c77f7f5b8e2ca80",
      "function": "modifyLiquidities(bytes,uint256)",
      "arguments": [
        "0x000000000000000000000000000000000000000000000000000000000000004000000000000000000000000000000000000000000000000000000000000000800000000000000000000000000000000000000000000000000000000000000004020d14140000000000000000000000000000000000000000000000000000000000000000000000000000000000000000000000000000000000000000000000040000000000000000000000000000000000000000000000000000000000000080000000000000000000000000000000000000000000000000000000000000024000000000000000000000000000000000000000000000000000000000000002a0000000000000000000000000000000000000000000000000000000000000030000000000000000000000000000000000000000000000000000000000000001a0000000000000000000000000d0cd1b2509975b5ed5b1e2c6d574751f952e1096000000000000000000000000ea79f41572c1517a969cf159fbd5f134e12835710000000000000000000000000000000000000000000000000000000000000bb8000000000000000000000000000000000000000000000000000000000000003c0000000000000000000000003df218646c57717f595bff92a5edaf8344c68ac000000000000000000000000000000000000000000000000000000000000129a8000000000000000000000000000000000000000000000000000000000001395c00000000000000000000000000000000000000000000003635c9adc5dea000000000000000000000000000000000000000000000000000001a2a87696426ccc1000000000000000000000000000000000000000000000106c4dd1e21374113ca0000000000000000000000005a8bd49cb9d90cc66d43c597a31837761bac6b43000000000000000000000000000000000000000000000000000000000000018000000000000000000000000000000000000000000000000000000000000000000000000000000000000000000000000000000000000000000000000000000040000000000000000000000000d0cd1b2509975b5ed5b1e2c6d574751f952e1096000000000000000000000000ea79f41572c1517a969cf159fbd5f134e12835710000000000000000000000000000000000000000000000000000000000000040000000000000000000000000d0cd1b2509975b5ed5b1e2c6d574751f952e10960000000000000000000000005a8bd49cb9d90cc66d43c597a31837761bac6b430000000000000000000000000000000000000000000000000000000000000040000000000000000000000000ea79f41572c1517a969cf159fbd5f134e12835710000000000000000000000005a8bd49cb9d90cc66d43c597a31837761bac6b43",
        "1770375756"
      ],
      "transaction": {
        "from": "0x5a8bd49cb9d90cc66d43c597a31837761bac6b43",
        "to": "0x4b2c77d209d3405f41a037ec6c77f7f5b8e2ca80",
        "gas": "0xa3e97",
        "value": "0x0",
        "input": "0xdd46508f0000000000000000000000000000000000000000000000000000000000000040000000000000000000000000000000000000000000000000000000006985ca4c0000000000000000000000000000000000000000000000000000000000000400000000000000000000000000000000000000000000000000000000000000004000000000000000000000000000000000000000000000000000000000000000800000000000000000000000000000000000000000000000000000000000000004020d14140000000000000000000000000000000000000000000000000000000000000000000000000000000000000000000000000000000000000000000000040000000000000000000000000000000000000000000000000000000000000080000000000000000000000000000000000000000000000000000000000000024000000000000000000000000000000000000000000000000000000000000002a0000000000000000000000000000000000000000000000000000000000000030000000000000000000000000000000000000000000000000000000000000001a0000000000000000000000000d0cd1b2509975b5ed5b1e2c6d574751f952e1096000000000000000000000000ea79f41572c1517a969cf159fbd5f134e12835710000000000000000000000000000000000000000000000000000000000000bb8000000000000000000000000000000000000000000000000000000000000003c0000000000000000000000003df218646c57717f595bff92a5edaf8344c68ac000000000000000000000000000000000000000000000000000000000000129a8000000000000000000000000000000000000000000000000000000000001395c00000000000000000000000000000000000000000000003635c9adc5dea000000000000000000000000000000000000000000000000000001a2a87696426ccc1000000000000000000000000000000000000000000000106c4dd1e21374113ca0000000000000000000000005a8bd49cb9d90cc66d43c597a31837761bac6b43000000000000000000000000000000000000000000000000000000000000018000000000000000000000000000000000000000000000000000000000000000000000000000000000000000000000000000000000000000000000000000000040000000000000000000000000d0cd1b2509975b5ed5b1e2c6d574751f952e1096000000000000000000000000ea79f41572c1517a969cf159fbd5f134e12835710000000000000000000000000000000000000000000000000000000000000040000000000000000000000000d0cd1b2509975b5ed5b1e2c6d574751f952e10960000000000000000000000005a8bd49cb9d90cc66d43c597a31837761bac6b430000000000000000000000000000000000000000000000000000000000000040000000000000000000000000ea79f41572c1517a969cf159fbd5f134e12835710000000000000000000000005a8bd49cb9d90cc66d43c597a31837761bac6b43",
        "nonce": "0xd9",
        "chainId": "0x14a34"
      },
      "additionalContracts": [],
      "isFixedGasLimit": false
    }
  ],
  "receipts": [
    {
      "status": "0x1",
      "cumulativeGasUsed": "0x1675d3",
      "logs": [],
      "logsBloom": "0x00000000000000000000000000000000000000000000000000000000000000000000000000000000000000000000000000000000000000000000000000000000000000000000000000000000000000000000000000000000000000000000000000000000000000000000000000000000000000000000000000000000000000000000000000000000000000000000000000000000000000000000000000000000000000000000000000000000000000000000000000000000000000000000000000000000000000000000000000000000000000000000000000000000000000000000000000000000000000000000000000000000000000000000000000000000",
      "type": "0x2",
      "transactionHash": "0x2e8cf7e39edeb559e483307364340b09d4bcadf6dc03aaad8cdd107f18e81cfa",
      "transactionIndex": "0x3",
      "blockHash": "0x0000000000000000000000000000000000000000000000000000000000000000",
      "blockNumber": "0x2392eb9",
      "gasUsed": "0xc793a",
      "effectiveGasPrice": "0x124f80",
      "blobGasUsed": "0xaed08",
      "from": "0x07425a37236a384917015f4f3e570250b9b23223",
      "to": null,
      "contractAddress": "0xd0cd1b2509975b5ed5b1e2c6d574751f952e1096",
      "daFootprintGasScalar": "0x138",
      "l1BaseFeeScalar": "0x44d",
      "l1BlobBaseFee": "0x3beccc5",
      "l1BlobBaseFeeScalar": "0xa118b",
      "l1Fee": "0x1fe6cdf3fb",
      "l1GasPrice": "0x3dad5397",
      "l1GasUsed": "0x8f76"
    },
    {
      "status": "0x1",
      "cumulativeGasUsed": "0x173652",
      "logs": [],
      "logsBloom": "0x00000000000000000000000000000000000000000000000000000000000000000000000000000000000000000000000000000000000000000000000000000000000000000000000000000000000000000000000000000000000000000000000000000000000000000000000000000000000000000000000000000000000000000000000000000000000000000000000000000000000000000000000000000000000000000000000000000000000000000000000000000000000000000000000000000000000000000000000000000000000000000000000000000000000000000000000000000000000000000000000000000000000000000000000000000000",
      "type": "0x2",
      "transactionHash": "0x0d3cd4ded36df7b254649b41b11007f45e6f8dd6f03a146c36ddd8e89bd6c123",
      "transactionIndex": "0x7",
      "blockHash": "0x0000000000000000000000000000000000000000000000000000000000000000",
      "blockNumber": "0x2392eba",
      "gasUsed": "0xc793a",
      "effectiveGasPrice": "0x124f80",
      "blobGasUsed": "0xaed08",
      "from": "0x07425a37236a384917015f4f3e570250b9b23223",
      "to": null,
      "contractAddress": "0xea79f41572c1517a969cf159fbd5f134e1283571",
      "daFootprintGasScalar": "0x138",
      "l1BaseFeeScalar": "0x44d",
      "l1BlobBaseFee": "0x3beccc5",
      "l1BlobBaseFeeScalar": "0xa118b",
      "l1Fee": "0x163c8fbcf",
      "l1GasPrice": "0x3dad5397",
      "l1GasUsed": "0x8f76"
    },
    {
      "status": "0x1",
      "cumulativeGasUsed": "0x38a0eb",
      "logs": [
        {
          "address": "0xd0cd1b2509975b5ed5b1e2c6d574751f952e1096",
          "topics": [
            "0xddf252ad1be2c89b69c2b068fc378daa952ba7f163c4a11628f55a4df523b3ef",
            "0x0000000000000000000000000000000000000000000000000000000000000000",
            "0x0000000000000000000000005a8bd49cb9d90cc66d43c597a31837761bac6b43"
          ],
          "data": "0x00000000000000000000000000000000000000000000021e19e0c9bab2400000",
          "blockHash": "0x0000000000000000000000000000000000000000000000000000000000000000",
          "blockNumber": "0x2392ebb",
          "blockTimestamp": "0x6985bc56",
          "transactionHash": "0x726a908520b38d3043ef2c87c97f6b01f19f938708820f8ccb41e18443878a9b",
          "transactionIndex": "0x5",
          "logIndex": "0xa",
          "removed": false
        }
      ],
      "logsBloom": "0x04000000000000000000000000000000000000000000000000000000000000000000000000000000000000000000000000000000000000020000000000000000000000000040000000000008000000000000000000000000000000000000000000000000020000000000000000000800000000000000000004000010000000000000000000000000000000000000000000000000400000000020000000000000000000000000000000000000000000000000000000000000000000000000000000000002000000000000000000000000000000000000000000000000000020000000000000000000000000000000000000000000000000000000000000000000",
      "type": "0x2",
      "transactionHash": "0x726a908520b38d3043ef2c87c97f6b01f19f938708820f8ccb41e18443878a9b",
      "transactionIndex": "0x5",
      "blockHash": "0x0000000000000000000000000000000000000000000000000000000000000000",
      "blockNumber": "0x2392ebb",
      "gasUsed": "0x109ff",
      "effectiveGasPrice": "0x124f80",
      "blobGasUsed": "0x79e0",
      "from": "0x07425a37236a384917015f4f3e570250b9b23223",
      "to": "0xd0cd1b2509975b5ed5b1e2c6d574751f952e1096",
      "contractAddress": null,
      "daFootprintGasScalar": "0x138",
      "l1BaseFeeScalar": "0x44d",
      "l1BlobBaseFee": "0x3beccc5",
      "l1BlobBaseFeeScalar": "0xa118b",
      "l1Fee": "0x1920c9bb6",
      "l1GasPrice": "0x3dad5397",
      "l1GasUsed": "0x640"
    },
    {
      "status": "0x1",
      "cumulativeGasUsed": "0x2709f2",
      "logs": [
        {
          "address": "0xea79f41572c1517a969cf159fbd5f134e1283571",
          "topics": [
            "0xddf252ad1be2c89b69c2b068fc378daa952ba7f163c4a11628f55a4df523b3ef",
            "0x0000000000000000000000000000000000000000000000000000000000000000",
            "0x0000000000000000000000005a8bd49cb9d90cc66d43c597a31837761bac6b43"
          ],
          "data": "0x00000000000000000000000000000000000000000000021e19e0c9bab2400000",
          "blockHash": "0x0000000000000000000000000000000000000000000000000000000000000000",
          "blockNumber": "0x2392ebc",
          "blockTimestamp": "0x6985bc58",
          "transactionHash": "0x9c76f015bdc189f319ecc00fd633a32c0ed22556144f9506b1e0803779066e00",
          "transactionIndex": "0x7",
          "logIndex": "0x51",
          "removed": false
        }
      ],
      "logsBloom": "0x00000000000000000000000000000000000000000000000000000000000000000000000000000000000000000000000000000000000000000000000000000000000000000040000800000008000000000000000000000000000000000000000000000000020000000000000000000800000000000000000004000010000000100000000000000000000000000000000000000000000000000020080000000000000000000000000000000000000000000000000000000000000000000000000000000002000000000000000000000000000000000000000000000000000020000000000000000000000000000000000000000000000000000000000000000000",
      "type": "0x2",
      "transactionHash": "0x9c76f015bdc189f319ecc00fd633a32c0ed22556144f9506b1e0803779066e00",
      "transactionIndex": "0x7",
      "blockHash": "0x0000000000000000000000000000000000000000000000000000000000000000",
      "blockNumber": "0x2392ebc",
      "gasUsed": "0x109ff",
      "effectiveGasPrice": "0x124f80",
      "blobGasUsed": "0x79e0",
      "from": "0x07425a37236a384917015f4f3e570250b9b23223",
      "to": "0xea79f41572c1517a969cf159fbd5f134e1283571",
      "contractAddress": null,
      "daFootprintGasScalar": "0x138",
      "l1BaseFeeScalar": "0x44d",
      "l1BlobBaseFee": "0x3beccc5",
      "l1BlobBaseFeeScalar": "0xa118b",
      "l1Fee": "0x2d07f191a",
      "l1GasPrice": "0x3dad5397",
      "l1GasUsed": "0x640"
    },
    {
      "status": "0x1",
      "cumulativeGasUsed": "0x2d9deb",
      "logs": [],
      "logsBloom": "0x00000000000000000000000000000000000000000000000000000000000000000000000000000000000000000000000000000000000000000000000000000000000000000000000000000000000000000000000000000000000000000000000000000000000000000000000000000000000000000000000000000000000000000000000000000000000000000000000000000000000000000000000000000000000000000000000000000000000000000000000000000000000000000000000000000000000000000000000000000000000000000000000000000000000000000000000000000000000000000000000000000000000000000000000000000000",
      "type": "0x2",
      "transactionHash": "0xc3da385a5548cf90f9ddd6ea396fadd7b6e701dbdb26d83b13488d693799d5f6",
      "transactionIndex": "0x8",
      "blockHash": "0x0000000000000000000000000000000000000000000000000000000000000000",
      "blockNumber": "0x2392ebd",
      "gasUsed": "0xb84d8",
      "effectiveGasPrice": "0x124f80",
      "blobGasUsed": "0x75af8",
      "from": "0x07425a37236a384917015f4f3e570250b9b23223",
      "to": "0x4e59b44847b379578588920ca78fbf26c0b4956c",
      "contractAddress": "0x3df218646c57717f595bff92a5edaf8344c68ac0",
      "daFootprintGasScalar": "0x138",
      "l1BaseFeeScalar": "0x44d",
      "l1BlobBaseFee": "0x3beccc5",
      "l1BlobBaseFeeScalar": "0xa118b",
      "l1Fee": "0x15793471f1",
      "l1GasPrice": "0x3dad5397",
      "l1GasUsed": "0x6091"
    },
    {
      "status": "0x1",
      "cumulativeGasUsed": "0x2898ab",
      "logs": [
        {
          "address": "0xfda5b82a3a71f68f23c8d43966f9e70bf15b865b",
          "topics": [
            "0x0559884fd3a460db3073b7fc896cc77986f16e378210ded43186175bf646fc5f",
            "0x0000000000000000000000000000000000000000000000000000003a35294400",
            "0x0000000000000000000000000000000000000000000000000000000000000001"
          ],
          "data": "0x000000000000000000000000000000000000000000000000000000006985bc5c",
          "blockHash": "0x0000000000000000000000000000000000000000000000000000000000000000",
          "blockNumber": "0x2392ebe",
          "blockTimestamp": "0x6985bc5c",
          "transactionHash": "0xe969312f85791dd4e23b16782fe749a53e65dc93021ae216d4c7b9fcb78de9b8",
          "transactionIndex": "0x7",
          "logIndex": "0x21",
          "removed": false
        }
      ],
      "logsBloom": "0x00000400000000000000000000000000000000000000000000000000000000000000000000000000000000000000000000000000000300000000000000040000000000000000000000000000000000000000000000040000000000000000000000000000000000000000000000000000000000000000000000000000000000000000000000000000000000000000000000000480000000000000000100000000000000000000000000000000000000000000000000000000000000000000000000000000000100000000000000100000000000000000000000000008000040000000000000000000000000000000000000000000000000000000000000000000",
      "type": "0x2",
      "transactionHash": "0xe969312f85791dd4e23b16782fe749a53e65dc93021ae216d4c7b9fcb78de9b8",
      "transactionIndex": "0x7",
      "blockHash": "0x0000000000000000000000000000000000000000000000000000000000000000",
      "blockNumber": "0x2392ebe",
      "gasUsed": "0x925ec",
      "effectiveGasPrice": "0x1262ff",
      "blobGasUsed": "0x490c8",
      "from": "0x07425a37236a384917015f4f3e570250b9b23223",
      "to": null,
      "contractAddress": "0xfda5b82a3a71f68f23c8d43966f9e70bf15b865b",
      "daFootprintGasScalar": "0x138",
      "l1BaseFeeScalar": "0x44d",
      "l1BlobBaseFee": "0x3beccc5",
      "l1BlobBaseFeeScalar": "0xa118b",
      "l1Fee": "0x4d95245e1",
      "l1GasPrice": "0x3dad5397",
      "l1GasUsed": "0x3bf8"
    },
    {
      "status": "0x1",
      "cumulativeGasUsed": "0x13ad3b",
      "logs": [
        {
          "address": "0x05e73354cfdd6745c338b50bcfdfa3aa6fa03408",
          "topics": [
            "0xdd466e674ea557f56295e2d0218a125ea4b4f0f6f3307b95f85e6110838d6438",
            "0xa342eb99ad56dc25f2084869af20dd2351089f51fef468c4c6df81281bfea39e",
            "0x000000000000000000000000d0cd1b2509975b5ed5b1e2c6d574751f952e1096",
            "0x000000000000000000000000ea79f41572c1517a969cf159fbd5f134e1283571"
          ],
          "data": "0x0000000000000000000000000000000000000000000000000000000000000bb8000000000000000000000000000000000000000000000000000000000000003c0000000000000000000000003df218646c57717f595bff92a5edaf8344c68ac00000000000000000000000000000000000000031fd33cb74200c5c4a0bc64e6d00000000000000000000000000000000000000000000000000000000000131a0",
          "blockHash": "0x0000000000000000000000000000000000000000000000000000000000000000",
          "blockNumber": "0x2392ebf",
          "blockTimestamp": "0x6985bc5e",
          "transactionHash": "0xb4c8433d57531b40f6573e707ca8bd75db91bab6597c98f1c3feea5d8badfe6b",
          "transactionIndex": "0x9",
          "logIndex": "0x1d",
          "removed": false
        }
      ],
      "logsBloom": "0x00000000000000000000000000080000000000000000000000000000000000000000000100000000000000000000000000000000000000000000000000000000000000000000000000000000010000000000000000000000000000000000000000000000000000000000000000000000000000000008000000000000800000000000000004000008000000000000000000100001000000000000000000200000000000000000000000800000000000000000000000000400200000000000000000000000001000000000000000000000000000000000000000000000000080000000000000000000000000000000000000000000000000000000000000000000",
      "type": "0x2",
      "transactionHash": "0xb4c8433d57531b40f6573e707ca8bd75db91bab6597c98f1c3feea5d8badfe6b",
      "transactionIndex": "0x9",
      "blockHash": "0x0000000000000000000000000000000000000000000000000000000000000000",
      "blockNumber": "0x2392ebf",
      "gasUsed": "0xcb7a",
      "effectiveGasPrice": "0x12570e",
      "blobGasUsed": "0xb808",
      "from": "0x07425a37236a384917015f4f3e570250b9b23223",
      "to": "0x05e73354cfdd6745c338b50bcfdfa3aa6fa03408",
      "contractAddress": null,
      "daFootprintGasScalar": "0x138",
      "l1BaseFeeScalar": "0x44d",
      "l1BlobBaseFee": "0x3dbe9f2",
      "l1BlobBaseFeeScalar": "0xa118b",
      "l1Fee": "0x21a73ca89",
      "l1GasPrice": "0x393adf7d",
      "l1GasUsed": "0x977"
    },
    {
      "status": "0x1",
      "cumulativeGasUsed": "0x167d4e",
      "logs": [
        {
          "address": "0xd0cd1b2509975b5ed5b1e2c6d574751f952e1096",
          "topics": [
            "0x8c5be1e5ebec7d5bd14f71427d1e84f3dd0314c0f7b2291e5b200ac8c7c3b925",
            "0x0000000000000000000000005a8bd49cb9d90cc66d43c597a31837761bac6b43",
            "0x000000000000000000000000000000000022d473030f116ddee9f6b43ac78ba3"
          ],
          "data": "0xffffffffffffffffffffffffffffffffffffffffffffffffffffffffffffffff",
          "blockHash": "0x0000000000000000000000000000000000000000000000000000000000000000",
          "blockNumber": "0x2392ebf",
          "blockTimestamp": "0x6985bc5e",
          "transactionHash": "0x5008c6567ceb672de4c5d0bdc98c4f61d68c21942f8e3a20c9fe8cf3146b9ac3",
          "transactionIndex": "0xb",
          "logIndex": "0x22",
          "removed": false
        }
      ],
      "logsBloom": "0x04000000000000000000000000000000000000000000000000000000000000000000000000000000000000000000000000000000800000020000000000200000000000000040000000004000000000000000000000000800000000000000000000000000000000000000000000000000000000000000000004000000000000000000000000000000000000000000000000000000400000000020000000000000020000000000000000000000000000000000000000000000000000000000000000000000000000000000000000000000000000000000000000000000000000000010000000000000000000000000000000000000000000000000000000000000",
      "type": "0x2",
      "transactionHash": "0x5008c6567ceb672de4c5d0bdc98c4f61d68c21942f8e3a20c9fe8cf3146b9ac3",
      "transactionIndex": "0xb",
      "blockHash": "0x0000000000000000000000000000000000000000000000000000000000000000",
      "blockNumber": "0x2392ebf",
      "gasUsed": "0xb442",
      "effectiveGasPrice": "0x12570e",
      "blobGasUsed": "0x79e0",
      "from": "0x5a8bd49cb9d90cc66d43c597a31837761bac6b43",
      "to": "0xd0cd1b2509975b5ed5b1e2c6d574751f952e1096",
      "contractAddress": null,
      "daFootprintGasScalar": "0x138",
      "l1BaseFeeScalar": "0x44d",
      "l1BlobBaseFee": "0x3dbe9f2",
      "l1BlobBaseFeeScalar": "0xa118b",
      "l1Fee": "0x16374926d",
      "l1GasPrice": "0x393adf7d",
      "l1GasUsed": "0x640"
    },
    {
      "status": "0x1",
      "cumulativeGasUsed": "0x4d3145",
      "logs": [
        {
          "address": "0xea79f41572c1517a969cf159fbd5f134e1283571",
          "topics": [
            "0x8c5be1e5ebec7d5bd14f71427d1e84f3dd0314c0f7b2291e5b200ac8c7c3b925",
            "0x0000000000000000000000005a8bd49cb9d90cc66d43c597a31837761bac6b43",
            "0x000000000000000000000000000000000022d473030f116ddee9f6b43ac78ba3"
          ],
          "data": "0xffffffffffffffffffffffffffffffffffffffffffffffffffffffffffffffff",
          "blockHash": "0x0000000000000000000000000000000000000000000000000000000000000000",
          "blockNumber": "0x2392ec0",
          "blockTimestamp": "0x6985bc60",
          "transactionHash": "0x98614de4ffa53f5d950c98f9804c200f4c242d4fc8241fc11139b70d11bf8dae",
          "transactionIndex": "0xd",
          "logIndex": "0x61",
          "removed": false
        }
      ],
      "logsBloom": "0x00000000000000000000000000000000000000000000000000000000000000000000000000000000000000000000000000000000800000000000000000200000000000000040000800004000000000000000000000000800000000000000000000000000000000000000000000000000000000000000000004000000000000100000000000000000000000000000000000000000000000000020080000000000020000000000000000000000000000000000000000000000000000000000000000000000000000000000000000000000000000000000000000000000000000000010000000000000000000000000000000000000000000000000000000000000",
      "type": "0x2",
      "transactionHash": "0x98614de4ffa53f5d950c98f9804c200f4c242d4fc8241fc11139b70d11bf8dae",
      "transactionIndex": "0xd",
      "blockHash": "0x0000000000000000000000000000000000000000000000000000000000000000",
      "blockNumber": "0x2392ec0",
      "gasUsed": "0xb442",
      "effectiveGasPrice": "0x124f80",
      "blobGasUsed": "0x79e0",
      "from": "0x5a8bd49cb9d90cc66d43c597a31837761bac6b43",
      "to": "0xea79f41572c1517a969cf159fbd5f134e1283571",
      "contractAddress": null,
      "daFootprintGasScalar": "0x138",
      "l1BaseFeeScalar": "0x44d",
      "l1BlobBaseFee": "0x3dbe9f2",
      "l1BlobBaseFeeScalar": "0xa118b",
      "l1Fee": "0x16374926d",
      "l1GasPrice": "0x393adf7d",
      "l1GasUsed": "0x640"
    },
    {
      "status": "0x1",
      "cumulativeGasUsed": "0x1fb927",
      "logs": [
        {
          "address": "0xd0cd1b2509975b5ed5b1e2c6d574751f952e1096",
          "topics": [
            "0x8c5be1e5ebec7d5bd14f71427d1e84f3dd0314c0f7b2291e5b200ac8c7c3b925",
            "0x0000000000000000000000005a8bd49cb9d90cc66d43c597a31837761bac6b43",
            "0x0000000000000000000000004b2c77d209d3405f41a037ec6c77f7f5b8e2ca80"
          ],
          "data": "0xffffffffffffffffffffffffffffffffffffffffffffffffffffffffffffffff",
          "blockHash": "0x0000000000000000000000000000000000000000000000000000000000000000",
          "blockNumber": "0x2392ec1",
          "blockTimestamp": "0x6985bc62",
          "transactionHash": "0xebf753b93dce7bcb460de202fbc09b5c958454e4a1df9f0bcc3186f938cf653d",
          "transactionIndex": "0x5",
          "logIndex": "0x1f",
          "removed": false
        }
      ],
      "logsBloom": "0x04000000000000010000000000000000000000000000000000000000000000000000000000000000000000000000000000000000000000020008000010200000000000000040000000000000000000000000000000000000000000000000000000000000000000000000000000000000000000000000000004000000000000000000000000000000000000000000000000000000400000000020000000000000020000000000000000000000000000000000000000000000000000000000000000000000000000000000000000000000000000000000000000000000000000000010000000000000000000000000000000000000000000000000000000000000",
      "type": "0x2",
      "transactionHash": "0xebf753b93dce7bcb460de202fbc09b5c958454e4a1df9f0bcc3186f938cf653d",
      "transactionIndex": "0x5",
      "blockHash": "0x0000000000000000000000000000000000000000000000000000000000000000",
      "blockNumber": "0x2392ec1",
      "gasUsed": "0xb47e",
      "effectiveGasPrice": "0x124f80",
      "blobGasUsed": "0x79e0",
      "from": "0x5a8bd49cb9d90cc66d43c597a31837761bac6b43",
      "to": "0xd0cd1b2509975b5ed5b1e2c6d574751f952e1096",
      "contractAddress": null,
      "daFootprintGasScalar": "0x138",
      "l1BaseFeeScalar": "0x44d",
      "l1BlobBaseFee": "0x3dbe9f2",
      "l1BlobBaseFeeScalar": "0xa118b",
      "l1Fee": "0x16374926d",
      "l1GasPrice": "0x393adf7d",
      "l1GasUsed": "0x640"
    },
    {
      "status": "0x1",
      "cumulativeGasUsed": "0x305912",
      "logs": [
        {
          "address": "0xea79f41572c1517a969cf159fbd5f134e1283571",
          "topics": [
            "0x8c5be1e5ebec7d5bd14f71427d1e84f3dd0314c0f7b2291e5b200ac8c7c3b925",
            "0x0000000000000000000000005a8bd49cb9d90cc66d43c597a31837761bac6b43",
            "0x0000000000000000000000004b2c77d209d3405f41a037ec6c77f7f5b8e2ca80"
          ],
          "data": "0xffffffffffffffffffffffffffffffffffffffffffffffffffffffffffffffff",
          "blockHash": "0x0000000000000000000000000000000000000000000000000000000000000000",
          "blockNumber": "0x2392ec2",
          "blockTimestamp": "0x6985bc64",
          "transactionHash": "0x283a61bb1f3335817841399e9532d1eabac2f639887370f5b62ef70a8ab1bedb",
          "transactionIndex": "0xc",
          "logIndex": "0x62",
          "removed": false
        }
      ],
      "logsBloom": "0x00000000000000010000000000000000000000000000000000000000000000000000000000000000000000000000000000000000000000000008000010200000000000000040000800000000000000000000000000000000000000000000000000000000000000000000000000000000000000000000000004000000000000100000000000000000000000000000000000000000000000000020080000000000020000000000000000000000000000000000000000000000000000000000000000000000000000000000000000000000000000000000000000000000000000000010000000000000000000000000000000000000000000000000000000000000",
      "type": "0x2",
      "transactionHash": "0x283a61bb1f3335817841399e9532d1eabac2f639887370f5b62ef70a8ab1bedb",
      "transactionIndex": "0xc",
      "blockHash": "0x0000000000000000000000000000000000000000000000000000000000000000",
      "blockNumber": "0x2392ec2",
      "gasUsed": "0xb47e",
      "effectiveGasPrice": "0x124f80",
      "blobGasUsed": "0x79e0",
      "from": "0x5a8bd49cb9d90cc66d43c597a31837761bac6b43",
      "to": "0xea79f41572c1517a969cf159fbd5f134e1283571",
      "contractAddress": null,
      "daFootprintGasScalar": "0x138",
      "l1BaseFeeScalar": "0x44d",
      "l1BlobBaseFee": "0x3dbe9f2",
      "l1BlobBaseFeeScalar": "0xa118b",
      "l1Fee": "0x16374926d",
      "l1GasPrice": "0x393adf7d",
      "l1GasUsed": "0x640"
    },
    {
      "status": "0x1",
      "cumulativeGasUsed": "0xf5ec00",
      "logs": [
        {
          "address": "0xd0cd1b2509975b5ed5b1e2c6d574751f952e1096",
          "topics": [
            "0x8c5be1e5ebec7d5bd14f71427d1e84f3dd0314c0f7b2291e5b200ac8c7c3b925",
            "0x0000000000000000000000005a8bd49cb9d90cc66d43c597a31837761bac6b43",
            "0x00000000000000000000000071cd4ea054f9cb3d3bf6251a00673303411a7dd9"
          ],
          "data": "0xffffffffffffffffffffffffffffffffffffffffffffffffffffffffffffffff",
          "blockHash": "0x2314fb4f19287ded947c97f1b9a64efde3c6a608dc41285001ad9549e924abc1",
          "blockNumber": "0x2392ec3",
          "blockTimestamp": "0x6985bc66",
          "transactionHash": "0x9bba041904729490ce506e202ba823175a7a8f5d66b382498a32707b30456005",
          "transactionIndex": "0xd",
          "logIndex": "0x226",
          "removed": false
        }
      ],
      "logsBloom": "0x04000000000000000000000000000000000000000000000000000000000000000000000000000000000000000000000000000000000000020000000000200000000000000040000000000000000000000000000000000000000000000000000000000000000000000000000000000000000000000000000004000000000000000000000000000000000000000000000000000000400000000020000000000000020000000000000000000000000000000000000000002000004000000000000000000000000000000000020000000000000000000000000000000000000000000010000000000000000000000000000000000000000000000000000000000000",
      "type": "0x2",
      "transactionHash": "0x9bba041904729490ce506e202ba823175a7a8f5d66b382498a32707b30456005",
      "transactionIndex": "0xd",
      "blockHash": "0x2314fb4f19287ded947c97f1b9a64efde3c6a608dc41285001ad9549e924abc1",
      "blockNumber": "0x2392ec3",
      "gasUsed": "0xb472",
      "effectiveGasPrice": "0x124f80",
      "blobGasUsed": "0x79e0",
      "from": "0x5a8bd49cb9d90cc66d43c597a31837761bac6b43",
      "to": "0xd0cd1b2509975b5ed5b1e2c6d574751f952e1096",
      "contractAddress": null,
      "daFootprintGasScalar": "0x138",
      "l1BaseFeeScalar": "0x44d",
      "l1BlobBaseFee": "0x3dbe9f2",
      "l1BlobBaseFeeScalar": "0xa118b",
      "l1Fee": "0x16374926d",
      "l1GasPrice": "0x393adf7d",
      "l1GasUsed": "0x640"
    },
    {
      "status": "0x1",
      "cumulativeGasUsed": "0xbb9e74",
      "logs": [
        {
          "address": "0xea79f41572c1517a969cf159fbd5f134e1283571",
          "topics": [
            "0x8c5be1e5ebec7d5bd14f71427d1e84f3dd0314c0f7b2291e5b200ac8c7c3b925",
            "0x0000000000000000000000005a8bd49cb9d90cc66d43c597a31837761bac6b43",
            "0x00000000000000000000000071cd4ea054f9cb3d3bf6251a00673303411a7dd9"
          ],
          "data": "0xffffffffffffffffffffffffffffffffffffffffffffffffffffffffffffffff",
          "blockHash": "0x0000000000000000000000000000000000000000000000000000000000000000",
          "blockNumber": "0x2392ec4",
          "blockTimestamp": "0x6985bc68",
          "transactionHash": "0xf54025b4779b8911dc0892c601660dcd9ab424d171a9869ffb62cac2676c0484",
          "transactionIndex": "0xe",
          "logIndex": "0x7f",
          "removed": false
        }
      ],
      "logsBloom": "0x00000000000000000000000000000000000000000000000000000000000000000000000000000000000000000000000000000000000000000000000000200000000000000040000800000000000000000000000000000000000000000000000000000000000000000000000000000000000000000000000004000000000000100000000000000000000000000000000000000000000000000020080000000000020000000000000000000000000000000000000000002000004000000000000000000000000000000000020000000000000000000000000000000000000000000010000000000000000000000000000000000000000000000000000000000000",
      "type": "0x2",
      "transactionHash": "0xf54025b4779b8911dc0892c601660dcd9ab424d171a9869ffb62cac2676c0484",
      "transactionIndex": "0xe",
      "blockHash": "0x0000000000000000000000000000000000000000000000000000000000000000",
      "blockNumber": "0x2392ec4",
      "gasUsed": "0xb472",
      "effectiveGasPrice": "0x125383",
      "blobGasUsed": "0x79e0",
      "from": "0x5a8bd49cb9d90cc66d43c597a31837761bac6b43",
      "to": "0xea79f41572c1517a969cf159fbd5f134e1283571",
      "contractAddress": null,
      "daFootprintGasScalar": "0x138",
      "l1BaseFeeScalar": "0x44d",
      "l1BlobBaseFee": "0x3dbe9f2",
      "l1BlobBaseFeeScalar": "0xa118b",
      "l1Fee": "0x16374926d",
      "l1GasPrice": "0x393adf7d",
      "l1GasUsed": "0x640"
    },
    {
      "status": "0x1",
      "cumulativeGasUsed": "0x4f8fde",
      "logs": [
        {
          "address": "0x000000000022d473030f116ddee9f6b43ac78ba3",
          "topics": [
            "0xda9fa7c1b00402c17d0161b249b1ab8bbec047c5a52207b9c112deffd817036b",
            "0x0000000000000000000000005a8bd49cb9d90cc66d43c597a31837761bac6b43",
            "0x000000000000000000000000d0cd1b2509975b5ed5b1e2c6d574751f952e1096",
            "0x0000000000000000000000004b2c77d209d3405f41a037ec6c77f7f5b8e2ca80"
          ],
          "data": "0x000000000000000000000000ffffffffffffffffffffffffffffffffffffffff0000000000000000000000000000000000000000000000000000ffffffffffff",
          "blockHash": "0x0000000000000000000000000000000000000000000000000000000000000000",
          "blockNumber": "0x2392ec5",
          "blockTimestamp": "0x6985bc6a",
          "transactionHash": "0x02c732a6c7f708c62ab5dc075646edde325785c9678c75d608915cf5e6aec2a6",
          "transactionIndex": "0x17",
          "logIndex": "0xad",
          "removed": false
        }
      ],
      "logsBloom": "0x00010000000000010000000000000000000000000000000000000000000000000000000000000000000000000000000000000000000000000008000010080000000000000040000000000000000000000000000000000000000000000000000000000000000000000000000000000000000000000008000004000000000000000020000000000000000000000000000000000000000000000020000000000000000000000000000000800000000000000000000000000000000000080000000000000000000000000000000000000000000000000000000040000000000080000000000000000000000000000000000000000000000000000000000000000400",
      "type": "0x2",
      "transactionHash": "0x02c732a6c7f708c62ab5dc075646edde325785c9678c75d608915cf5e6aec2a6",
      "transactionIndex": "0x17",
      "blockHash": "0x0000000000000000000000000000000000000000000000000000000000000000",
      "blockNumber": "0x2392ec5",
      "gasUsed": "0xbaca",
      "effectiveGasPrice": "0x125313",
      "blobGasUsed": "0x89b8",
      "from": "0x5a8bd49cb9d90cc66d43c597a31837761bac6b43",
      "to": "0x000000000022d473030f116ddee9f6b43ac78ba3",
      "contractAddress": null,
      "daFootprintGasScalar": "0x138",
      "l1BaseFeeScalar": "0x44d",
      "l1BlobBaseFee": "0x34c5638",
      "l1BlobBaseFeeScalar": "0xa118b",
      "l1Fee": "0x131dd0517",
      "l1GasPrice": "0x321613ea",
      "l1GasUsed": "0x710"
    },
    {
      "status": "0x1",
      "cumulativeGasUsed": "0x481dc",
      "logs": [
        {
          "address": "0x000000000022d473030f116ddee9f6b43ac78ba3",
          "topics": [
            "0xda9fa7c1b00402c17d0161b249b1ab8bbec047c5a52207b9c112deffd817036b",
            "0x0000000000000000000000005a8bd49cb9d90cc66d43c597a31837761bac6b43",
            "0x000000000000000000000000ea79f41572c1517a969cf159fbd5f134e1283571",
            "0x0000000000000000000000004b2c77d209d3405f41a037ec6c77f7f5b8e2ca80"
          ],
          "data": "0x000000000000000000000000ffffffffffffffffffffffffffffffffffffffff0000000000000000000000000000000000000000000000000000ffffffffffff",
          "blockHash": "0x0000000000000000000000000000000000000000000000000000000000000000",
          "blockNumber": "0x2392ec6",
          "blockTimestamp": "0x6985bc6c",
          "transactionHash": "0xf12084e6b5891f7ed38339171b0d627cd0ffc53eaa681e890b14e5cb69718dba",
          "transactionIndex": "0x3",
          "logIndex": "0x4",
          "removed": false
        }
      ],
      "logsBloom": "0x00010000000000010000000000080000000000000000000000000000000000000000000000000000000000000000000000000000000000000008000010080000000000000040000000000000010000000000000000000000000000000000000000000000000000000000000000000000000000000000000004000000800000000020000000000000000000000000000000000000000000000020000000000000000000000000000000000000000000000000000000000000000000080000000000000000000000000000000000000000000000000000000040000000000000000000000000000000000000000000000000000000000000000000000000000400",
      "type": "0x2",
      "transactionHash": "0xf12084e6b5891f7ed38339171b0d627cd0ffc53eaa681e890b14e5cb69718dba",
      "transactionIndex": "0x3",
      "blockHash": "0x0000000000000000000000000000000000000000000000000000000000000000",
      "blockNumber": "0x2392ec6",
      "gasUsed": "0xbaca",
      "effectiveGasPrice": "0x124f80",
      "blobGasUsed": "0x89b8",
      "from": "0x5a8bd49cb9d90cc66d43c597a31837761bac6b43",
      "to": "0x000000000022d473030f116ddee9f6b43ac78ba3",
      "contractAddress": null,
      "daFootprintGasScalar": "0x138",
      "l1BaseFeeScalar": "0x44d",
      "l1BlobBaseFee": "0x34c5638",
      "l1BlobBaseFeeScalar": "0xa118b",
      "l1Fee": "0x159a2d090",
      "l1GasPrice": "0x321613ea",
      "l1GasUsed": "0x710"
    },
    {
      "status": "0x1",
      "cumulativeGasUsed": "0x172424",
      "logs": [
        {
          "address": "0x000000000022d473030f116ddee9f6b43ac78ba3",
          "topics": [
            "0xda9fa7c1b00402c17d0161b249b1ab8bbec047c5a52207b9c112deffd817036b",
            "0x0000000000000000000000005a8bd49cb9d90cc66d43c597a31837761bac6b43",
            "0x000000000000000000000000d0cd1b2509975b5ed5b1e2c6d574751f952e1096",
            "0x00000000000000000000000071cd4ea054f9cb3d3bf6251a00673303411a7dd9"
          ],
          "data": "0x000000000000000000000000ffffffffffffffffffffffffffffffffffffffff0000000000000000000000000000000000000000000000000000ffffffffffff",
          "blockHash": "0x0000000000000000000000000000000000000000000000000000000000000000",
          "blockNumber": "0x2392ec7",
          "blockTimestamp": "0x6985bc6e",
          "transactionHash": "0x6644c5e27f39fc21f5f916eb66e9e636913f8c48852f06ced7c58d132357ce7d",
          "transactionIndex": "0x7",
          "logIndex": "0x29",
          "removed": false
        }
      ],
      "logsBloom": "0x00010000000000000000000000000000000000000000000000000000000000000000000000000000000000000000000000000000000000000000000000080000000000000040000000000000000000000000000000000000000000000000000000000000000000000000000000000000000000000008000004000000000000000020000000000000000000000000000000000000000000000020000000000000000000000000000000800000000000000000000000002000004000080000000000000000000000000000020000000000000000000000000040000000000080000000000000000000000000000000000000000000000000000000000000000400",
      "type": "0x2",
      "transactionHash": "0x6644c5e27f39fc21f5f916eb66e9e636913f8c48852f06ced7c58d132357ce7d",
      "transactionIndex": "0x7",
      "blockHash": "0x0000000000000000000000000000000000000000000000000000000000000000",
      "blockNumber": "0x2392ec7",
      "gasUsed": "0xbabe",
      "effectiveGasPrice": "0x124f80",
      "blobGasUsed": "0x89b8",
      "from": "0x5a8bd49cb9d90cc66d43c597a31837761bac6b43",
      "to": "0x000000000022d473030f116ddee9f6b43ac78ba3",
      "contractAddress": null,
      "daFootprintGasScalar": "0x138",
      "l1BaseFeeScalar": "0x44d",
      "l1BlobBaseFee": "0x34c5638",
      "l1BlobBaseFeeScalar": "0xa118b",
      "l1Fee": "0x24f41aa6c",
      "l1GasPrice": "0x321613ea",
      "l1GasUsed": "0x710"
    },
    {
      "status": "0x1",
      "cumulativeGasUsed": "0x167a44",
      "logs": [
        {
          "address": "0x000000000022d473030f116ddee9f6b43ac78ba3",
          "topics": [
            "0xda9fa7c1b00402c17d0161b249b1ab8bbec047c5a52207b9c112deffd817036b",
            "0x0000000000000000000000005a8bd49cb9d90cc66d43c597a31837761bac6b43",
            "0x000000000000000000000000ea79f41572c1517a969cf159fbd5f134e1283571",
            "0x00000000000000000000000071cd4ea054f9cb3d3bf6251a00673303411a7dd9"
          ],
          "data": "0x000000000000000000000000ffffffffffffffffffffffffffffffffffffffff0000000000000000000000000000000000000000000000000000ffffffffffff",
          "blockHash": "0x0000000000000000000000000000000000000000000000000000000000000000",
          "blockNumber": "0x2392ec8",
          "blockTimestamp": "0x6985bc70",
          "transactionHash": "0x04b7abf0409f7d67d233353e4d4557d2e84ecaefbfae14c2d99f95be97098422",
          "transactionIndex": "0x9",
          "logIndex": "0x27",
          "removed": false
        }
      ],
      "logsBloom": "0x00010000000000000000000000080000000000000000000000000000000000000000000000000000000000000000000000000000000000000000000000080000000000000040000000000000010000000000000000000000000000000000000000000000000000000000000000000000000000000000000004000000800000000020000000000000000000000000000000000000000000000020000000000000000000000000000000000000000000000000000000002000004000080000000000000000000000000000020000000000000000000000000040000000000000000000000000000000000000000000000000000000000000000000000000000400",
      "type": "0x2",
      "transactionHash": "0x04b7abf0409f7d67d233353e4d4557d2e84ecaefbfae14c2d99f95be97098422",
      "transactionIndex": "0x9",
      "blockHash": "0x0000000000000000000000000000000000000000000000000000000000000000",
      "blockNumber": "0x2392ec8",
      "gasUsed": "0xbabe",
      "effectiveGasPrice": "0x124f80",
      "blobGasUsed": "0x89b8",
      "from": "0x5a8bd49cb9d90cc66d43c597a31837761bac6b43",
      "to": "0x000000000022d473030f116ddee9f6b43ac78ba3",
      "contractAddress": null,
      "daFootprintGasScalar": "0x138",
      "l1BaseFeeScalar": "0x44d",
      "l1BlobBaseFee": "0x34c5638",
      "l1BlobBaseFeeScalar": "0xa118b",
      "l1Fee": "0x18f5d9038",
      "l1GasPrice": "0x321613ea",
      "l1GasUsed": "0x710"
    },
    {
      "status": "0x1",
      "cumulativeGasUsed": "0x463cf1",
      "logs": [
        {
          "address": "0x4b2c77d209d3405f41a037ec6c77f7f5b8e2ca80",
          "topics": [
            "0xddf252ad1be2c89b69c2b068fc378daa952ba7f163c4a11628f55a4df523b3ef",
            "0x0000000000000000000000000000000000000000000000000000000000000000",
            "0x0000000000000000000000005a8bd49cb9d90cc66d43c597a31837761bac6b43",
            "0x00000000000000000000000000000000000000000000000000000000000041c3"
          ],
          "data": "0x",
          "blockHash": "0x6a8502bc0fee9d7d07cd44347314700efc3137d7f5abb54c894424ead0f70c20",
          "blockNumber": "0x2392ec9",
          "blockTimestamp": "0x6985bc72",
          "transactionHash": "0xbfe96ce8101d1084fa0ce19dcc124d45ae2d290f269c88c7dca6c242cea8be3b",
          "transactionIndex": "0xa",
          "logIndex": "0x49",
          "removed": false
        },
        {
          "address": "0x05e73354cfdd6745c338b50bcfdfa3aa6fa03408",
          "topics": [
            "0xf208f4912782fd25c7f114ca3723a2d5dd6f3bcc3ac8db5af63baa85f711d5ec",
            "0xa342eb99ad56dc25f2084869af20dd2351089f51fef468c4c6df81281bfea39e",
            "0x0000000000000000000000004b2c77d209d3405f41a037ec6c77f7f5b8e2ca80"
          ],
          "data": "0x00000000000000000000000000000000000000000000000000000000000129a8000000000000000000000000000000000000000000000000000000000001395c00000000000000000000000000000000000000000000003635c9adc5dea0000000000000000000000000000000000000000000000000000000000000000041c3",
          "blockHash": "0x6a8502bc0fee9d7d07cd44347314700efc3137d7f5abb54c894424ead0f70c20",
          "blockNumber": "0x2392ec9",
          "blockTimestamp": "0x6985bc72",
          "transactionHash": "0xbfe96ce8101d1084fa0ce19dcc124d45ae2d290f269c88c7dca6c242cea8be3b",
          "transactionIndex": "0xa",
          "logIndex": "0x4a",
          "removed": false
        },
        {
          "address": "0xd0cd1b2509975b5ed5b1e2c6d574751f952e1096",
          "topics": [
            "0xddf252ad1be2c89b69c2b068fc378daa952ba7f163c4a11628f55a4df523b3ef",
            "0x0000000000000000000000005a8bd49cb9d90cc66d43c597a31837761bac6b43",
            "0x00000000000000000000000005e73354cfdd6745c338b50bcfdfa3aa6fa03408"
          ],
          "data": "0x0000000000000000000000000000000000000000000000001a2a87696426ccc1",
          "blockHash": "0x6a8502bc0fee9d7d07cd44347314700efc3137d7f5abb54c894424ead0f70c20",
          "blockNumber": "0x2392ec9",
          "blockTimestamp": "0x6985bc72",
          "transactionHash": "0xbfe96ce8101d1084fa0ce19dcc124d45ae2d290f269c88c7dca6c242cea8be3b",
          "transactionIndex": "0xa",
          "logIndex": "0x4b",
          "removed": false
        },
        {
          "address": "0xea79f41572c1517a969cf159fbd5f134e1283571",
          "topics": [
            "0xddf252ad1be2c89b69c2b068fc378daa952ba7f163c4a11628f55a4df523b3ef",
            "0x0000000000000000000000005a8bd49cb9d90cc66d43c597a31837761bac6b43",
            "0x00000000000000000000000005e73354cfdd6745c338b50bcfdfa3aa6fa03408"
          ],
          "data": "0x000000000000000000000000000000000000000000000106c4dd1e21374113ca",
          "blockHash": "0x6a8502bc0fee9d7d07cd44347314700efc3137d7f5abb54c894424ead0f70c20",
          "blockNumber": "0x2392ec9",
          "blockTimestamp": "0x6985bc72",
          "transactionHash": "0xbfe96ce8101d1084fa0ce19dcc124d45ae2d290f269c88c7dca6c242cea8be3b",
          "transactionIndex": "0xa",
          "logIndex": "0x4c",
          "removed": false
        }
      ],
      "logsBloom": "0x04000000000000010000000000000000000000000000000000000000000000000100000100000000000000000000000000000000000000020008000010000800000000000050000800000008000000000000000000100000000000008000000000000000020000000000000000000800000000000000000004000050000000100000000005000002000000000000000000100000400000000020080000000000000004000000000000000000000008000000000000000400200000000000000000000002001000000000000000000000000000000000000000000000000020000000000000000000000000000800000004000000000000000000000000000000",
      "type": "0x2",
      "transactionHash": "0xbfe96ce8101d1084fa0ce19dcc124d45ae2d290f269c88c7dca6c242cea8be3b",
      "transactionIndex": "0xa",
      "blockHash": "0x6a8502bc0fee9d7d07cd44347314700efc3137d7f5abb54c894424ead0f70c20",
      "blockNumber": "0x2392ec9",
      "gasUsed": "0x7013a",
      "effectiveGasPrice": "0x124f80",
      "blobGasUsed": "0x17010",
      "from": "0x5a8bd49cb9d90cc66d43c597a31837761bac6b43",
      "to": "0x4b2c77d209d3405f41a037ec6c77f7f5b8e2ca80",
      "contractAddress": null,
      "daFootprintGasScalar": "0x138",
      "l1BaseFeeScalar": "0x44d",
      "l1BlobBaseFee": "0x34c5638",
      "l1BlobBaseFeeScalar": "0xa118b",
      "l1Fee": "0x39bde1c1b",
      "l1GasPrice": "0x321613ea",
      "l1GasUsed": "0x12e0"
    }
  ],
  "libraries": [],
  "pending": [],
  "returns": {},
  "timestamp": 1770372278607,
  "chain": 84532,
  "commit": "7f33600"
}